{
	"contracts/9_payable.sol": {
		"Funder": {
			"abi": [
				{
					"inputs": [],
					"name": "FailedToSendEth",
					"type": "error"
				},
				{
					"anonymous": false,
					"inputs": [
						{
							"indexed": false,
							"internalType": "bool",
							"name": "success",
							"type": "bool"
						},
						{
							"indexed": false,
							"internalType": "bytes",
							"name": "data",
							"type": "bytes"
						}
					],
					"name": "Response",
					"type": "event"
				},
				{
					"inputs": [
						{
							"internalType": "address payable",
							"name": "_payableContractAddress",
							"type": "address"
						}
					],
					"name": "callDeposit",
					"outputs": [],
					"stateMutability": "payable",
					"type": "function"
				},
				{
					"inputs": [
						{
							"internalType": "address payable",
							"name": "_receiver",
							"type": "address"
						}
					],
					"name": "senWithSend",
					"outputs": [
						{
							"internalType": "bool",
							"name": "sent",
							"type": "bool"
						}
					],
					"stateMutability": "payable",
					"type": "function"
				},
				{
					"inputs": [
						{
							"internalType": "address payable",
							"name": "_receiver",
							"type": "address"
						}
					],
					"name": "sendWithCall",
					"outputs": [
						{
							"internalType": "bool",
							"name": "sent",
							"type": "bool"
						},
						{
							"internalType": "bytes",
							"name": "data",
							"type": "bytes"
						}
					],
					"stateMutability": "payable",
					"type": "function"
				},
				{
					"inputs": [
						{
							"internalType": "address payable",
							"name": "_receiver",
							"type": "address"
						}
					],
					"name": "sendWithTransfer",
					"outputs": [],
					"stateMutability": "payable",
					"type": "function"
				}
			],
			"devdoc": {
				"kind": "dev",
				"methods": {},
				"version": 1
			},
			"evm": {
				"assembly": "    /* \"contracts/9_payable.sol\":1089:2137  contract Funder {... */\n  mstore(0x40, 0x80)\n  callvalue\n  dup1\n  iszero\n  tag_1\n  jumpi\n  0x00\n  dup1\n  revert\ntag_1:\n  pop\n  dataSize(sub_0)\n  dup1\n  dataOffset(sub_0)\n  0x00\n  codecopy\n  0x00\n  return\nstop\n\nsub_0: assembly {\n        /* \"contracts/9_payable.sol\":1089:2137  contract Funder {... */\n      mstore(0x40, 0x80)\n      jumpi(tag_1, lt(calldatasize, 0x04))\n      shr(0xe0, calldataload(0x00))\n      dup1\n      0x5d3f13b9\n      eq\n      tag_2\n      jumpi\n      dup1\n      0x7d970d50\n      eq\n      tag_3\n      jumpi\n      dup1\n      0xf74e7688\n      eq\n      tag_4\n      jumpi\n      dup1\n      0xf93ac7c3\n      eq\n      tag_5\n      jumpi\n    tag_1:\n      0x00\n      dup1\n      revert\n        /* \"contracts/9_payable.sol\":1834:2134  function callDeposit(address payable _payableContractAddress) public payable {... */\n    tag_2:\n      tag_6\n      0x04\n      dup1\n      calldatasize\n      sub\n      dup2\n      add\n      swap1\n      tag_7\n      swap2\n      swap1\n      tag_8\n      jump\t// in\n    tag_7:\n      tag_9\n      jump\t// in\n    tag_6:\n      stop\n        /* \"contracts/9_payable.sol\":1188:1302  function sendWithTransfer(address payable _receiver) public payable {... */\n    tag_3:\n      tag_10\n      0x04\n      dup1\n      calldatasize\n      sub\n      dup2\n      add\n      swap1\n      tag_11\n      swap2\n      swap1\n      tag_8\n      jump\t// in\n    tag_11:\n      tag_12\n      jump\t// in\n    tag_10:\n      stop\n        /* \"contracts/9_payable.sol\":1446:1828  function sendWithCall(address payable _receiver) public payable returns (bool sent, bytes memory data) {... */\n    tag_4:\n      tag_13\n      0x04\n      dup1\n      calldatasize\n      sub\n      dup2\n      add\n      swap1\n      tag_14\n      swap2\n      swap1\n      tag_8\n      jump\t// in\n    tag_14:\n      tag_15\n      jump\t// in\n    tag_13:\n      mload(0x40)\n      tag_16\n      swap3\n      swap2\n      swap1\n      tag_17\n      jump\t// in\n    tag_16:\n      mload(0x40)\n      dup1\n      swap2\n      sub\n      swap1\n      return\n        /* \"contracts/9_payable.sol\":1308:1440  function senWithSend(address payable _receiver) public payable returns (bool sent) {... */\n    tag_5:\n      tag_18\n      0x04\n      dup1\n      calldatasize\n      sub\n      dup2\n      add\n      swap1\n      tag_19\n      swap2\n      swap1\n      tag_8\n      jump\t// in\n    tag_19:\n      tag_20\n      jump\t// in\n    tag_18:\n      mload(0x40)\n      tag_21\n      swap2\n      swap1\n      tag_22\n      jump\t// in\n    tag_21:\n      mload(0x40)\n      dup1\n      swap2\n      sub\n      swap1\n      return\n        /* \"contracts/9_payable.sol\":1834:2134  function callDeposit(address payable _payableContractAddress) public payable {... */\n    tag_9:\n        /* \"contracts/9_payable.sol\":1921:1935  uint256 amount */\n      0x00\n        /* \"contracts/9_payable.sol\":1938:1947  msg.value */\n      callvalue\n        /* \"contracts/9_payable.sol\":1921:1947  uint256 amount = msg.value */\n      swap1\n      pop\n        /* \"contracts/9_payable.sol\":1958:1970  bool success */\n      0x00\n        /* \"contracts/9_payable.sol\":1972:1989  bytes memory data */\n      dup1\n        /* \"contracts/9_payable.sol\":1993:2016  _payableContractAddress */\n      dup4\n        /* \"contracts/9_payable.sol\":1993:2021  _payableContractAddress.call */\n      0xffffffffffffffffffffffffffffffffffffffff\n      and\n        /* \"contracts/9_payable.sol\":2029:2035  amount */\n      dup4\n        /* \"contracts/9_payable.sol\":2081:2087  amount */\n      dup5\n        /* \"contracts/9_payable.sol\":2037:2088  abi.encodeWithSignature(\"deposit(uint256)\", amount) */\n      add(0x24, mload(0x40))\n      tag_24\n      swap2\n      swap1\n      tag_25\n      jump\t// in\n    tag_24:\n      mload(0x40)\n      0x20\n      dup2\n      dup4\n      sub\n      sub\n      dup2\n      mstore\n      swap1\n      0x40\n      mstore\n      and(not(0xffffffffffffffffffffffffffffffffffffffffffffffffffffffff), 0xb6b55f2500000000000000000000000000000000000000000000000000000000)\n      0x20\n      dup3\n      add\n      dup1\n      mload\n      0xffffffffffffffffffffffffffffffffffffffffffffffffffffffff\n      dup4\n      dup2\n      dup4\n      and\n      or\n      dup4\n      mstore\n      pop\n      pop\n      pop\n      pop\n        /* \"contracts/9_payable.sol\":1993:2089  _payableContractAddress.call{value: amount}(abi.encodeWithSignature(\"deposit(uint256)\", amount)) */\n      mload(0x40)\n      tag_26\n      swap2\n      swap1\n      tag_27\n      jump\t// in\n    tag_26:\n      0x00\n      mload(0x40)\n      dup1\n      dup4\n      sub\n      dup2\n      dup6\n      dup8\n      gas\n      call\n      swap3\n      pop\n      pop\n      pop\n      returndatasize\n      dup1\n      0x00\n      dup2\n      eq\n      tag_30\n      jumpi\n      mload(0x40)\n      swap2\n      pop\n      and(add(returndatasize, 0x3f), not(0x1f))\n      dup3\n      add\n      0x40\n      mstore\n      returndatasize\n      dup3\n      mstore\n      returndatasize\n      0x00\n      0x20\n      dup5\n      add\n      returndatacopy\n      jump(tag_29)\n    tag_30:\n      0x60\n      swap2\n      pop\n    tag_29:\n      pop\n        /* \"contracts/9_payable.sol\":1957:2089  (bool success, bytes memory data) = _payableContractAddress.call{value: amount}(abi.encodeWithSignature(\"deposit(uint256)\", amount)) */\n      swap2\n      pop\n      swap2\n      pop\n        /* \"contracts/9_payable.sol\":2104:2127  Response(success, data) */\n      0x13848c3e38f8886f3f5d2ad9dff80d8092c2bbb8efd5b887a99c2c6cfc09ac2a\n        /* \"contracts/9_payable.sol\":2113:2120  success */\n      dup3\n        /* \"contracts/9_payable.sol\":2122:2126  data */\n      dup3\n        /* \"contracts/9_payable.sol\":2104:2127  Response(success, data) */\n      mload(0x40)\n      tag_31\n      swap3\n      swap2\n      swap1\n      tag_17\n      jump\t// in\n    tag_31:\n      mload(0x40)\n      dup1\n      swap2\n      sub\n      swap1\n      log1\n        /* \"contracts/9_payable.sol\":1911:2134  {... */\n      pop\n      pop\n      pop\n        /* \"contracts/9_payable.sol\":1834:2134  function callDeposit(address payable _payableContractAddress) public payable {... */\n      pop\n      jump\t// out\n        /* \"contracts/9_payable.sol\":1188:1302  function sendWithTransfer(address payable _receiver) public payable {... */\n    tag_12:\n        /* \"contracts/9_payable.sol\":1266:1275  _receiver */\n      dup1\n        /* \"contracts/9_payable.sol\":1266:1284  _receiver.transfer */\n      0xffffffffffffffffffffffffffffffffffffffff\n      and\n        /* \"contracts/9_payable.sol\":1266:1295  _receiver.transfer(msg.value) */\n      0x08fc\n        /* \"contracts/9_payable.sol\":1285:1294  msg.value */\n      callvalue\n        /* \"contracts/9_payable.sol\":1266:1295  _receiver.transfer(msg.value) */\n      swap1\n      dup2\n      iszero\n      mul\n      swap1\n      mload(0x40)\n      0x00\n      mload(0x40)\n      dup1\n      dup4\n      sub\n      dup2\n      dup6\n      dup9\n      dup9\n      call\n      swap4\n      pop\n      pop\n      pop\n      pop\n      iszero\n      dup1\n      iszero\n      tag_34\n      jumpi\n      returndatasize\n      0x00\n      dup1\n      returndatacopy\n      revert(0x00, returndatasize)\n    tag_34:\n      pop\n        /* \"contracts/9_payable.sol\":1188:1302  function sendWithTransfer(address payable _receiver) public payable {... */\n      pop\n      jump\t// out\n        /* \"contracts/9_payable.sol\":1446:1828  function sendWithCall(address payable _receiver) public payable returns (bool sent, bytes memory data) {... */\n    tag_15:\n        /* \"contracts/9_payable.sol\":1519:1528  bool sent */\n      0x00\n        /* \"contracts/9_payable.sol\":1530:1547  bytes memory data */\n      0x60\n        /* \"contracts/9_payable.sol\":1574:1583  _receiver */\n      dup3\n        /* \"contracts/9_payable.sol\":1574:1588  _receiver.call */\n      0xffffffffffffffffffffffffffffffffffffffff\n      and\n        /* \"contracts/9_payable.sol\":1596:1605  msg.value */\n      callvalue\n        /* \"contracts/9_payable.sol\":1574:1610  _receiver.call{value: msg.value}(\"\") */\n      mload(0x40)\n      tag_36\n      swap1\n      tag_37\n      jump\t// in\n    tag_36:\n      0x00\n      mload(0x40)\n      dup1\n      dup4\n      sub\n      dup2\n      dup6\n      dup8\n      gas\n      call\n      swap3\n      pop\n      pop\n      pop\n      returndatasize\n      dup1\n      0x00\n      dup2\n      eq\n      tag_40\n      jumpi\n      mload(0x40)\n      swap2\n      pop\n      and(add(returndatasize, 0x3f), not(0x1f))\n      dup3\n      add\n      0x40\n      mstore\n      returndatasize\n      dup3\n      mstore\n      returndatasize\n      0x00\n      0x20\n      dup5\n      add\n      returndatacopy\n      jump(tag_39)\n    tag_40:\n      0x60\n      swap2\n      pop\n    tag_39:\n      pop\n        /* \"contracts/9_payable.sol\":1559:1610  (sent, data) = _receiver.call{value: msg.value}(\"\") */\n      dup1\n      swap3\n      pop\n      dup2\n      swap4\n      pop\n      pop\n      pop\n        /* \"contracts/9_payable.sol\":1767:1771  sent */\n      dup2\n        /* \"contracts/9_payable.sol\":1763:1822  if(!sent) {... */\n      tag_41\n      jumpi\n        /* \"contracts/9_payable.sol\":1794:1811  FailedToSendEth() */\n      mload(0x40)\n      0xfe8a94f400000000000000000000000000000000000000000000000000000000\n      dup2\n      mstore\n      0x04\n      add\n      mload(0x40)\n      dup1\n      swap2\n      sub\n      swap1\n      revert\n        /* \"contracts/9_payable.sol\":1763:1822  if(!sent) {... */\n    tag_41:\n        /* \"contracts/9_payable.sol\":1446:1828  function sendWithCall(address payable _receiver) public payable returns (bool sent, bytes memory data) {... */\n      swap2\n      pop\n      swap2\n      jump\t// out\n        /* \"contracts/9_payable.sol\":1308:1440  function senWithSend(address payable _receiver) public payable returns (bool sent) {... */\n    tag_20:\n        /* \"contracts/9_payable.sol\":1380:1389  bool sent */\n      0x00\n        /* \"contracts/9_payable.sol\":1408:1417  _receiver */\n      dup2\n        /* \"contracts/9_payable.sol\":1408:1422  _receiver.send */\n      0xffffffffffffffffffffffffffffffffffffffff\n      and\n        /* \"contracts/9_payable.sol\":1408:1433  _receiver.send(msg.value) */\n      0x08fc\n        /* \"contracts/9_payable.sol\":1423:1432  msg.value */\n      callvalue\n        /* \"contracts/9_payable.sol\":1408:1433  _receiver.send(msg.value) */\n      swap1\n      dup2\n      iszero\n      mul\n      swap1\n      mload(0x40)\n      0x00\n      mload(0x40)\n      dup1\n      dup4\n      sub\n      dup2\n      dup6\n      dup9\n      dup9\n      call\n      swap4\n      pop\n      pop\n      pop\n      pop\n        /* \"contracts/9_payable.sol\":1401:1433  sent = _receiver.send(msg.value) */\n      swap1\n      pop\n        /* \"contracts/9_payable.sol\":1308:1440  function senWithSend(address payable _receiver) public payable returns (bool sent) {... */\n      swap2\n      swap1\n      pop\n      jump\t// out\n        /* \"#utility.yul\":88:205   */\n    tag_45:\n        /* \"#utility.yul\":197:198   */\n      0x00\n        /* \"#utility.yul\":194:195   */\n      dup1\n        /* \"#utility.yul\":187:199   */\n      revert\n        /* \"#utility.yul\":334:460   */\n    tag_47:\n        /* \"#utility.yul\":371:378   */\n      0x00\n        /* \"#utility.yul\":411:453   */\n      0xffffffffffffffffffffffffffffffffffffffff\n        /* \"#utility.yul\":404:409   */\n      dup3\n        /* \"#utility.yul\":400:454   */\n      and\n        /* \"#utility.yul\":389:454   */\n      swap1\n      pop\n        /* \"#utility.yul\":334:460   */\n      swap2\n      swap1\n      pop\n      jump\t// out\n        /* \"#utility.yul\":466:570   */\n    tag_48:\n        /* \"#utility.yul\":511:518   */\n      0x00\n        /* \"#utility.yul\":540:564   */\n      tag_70\n        /* \"#utility.yul\":558:563   */\n      dup3\n        /* \"#utility.yul\":540:564   */\n      tag_47\n      jump\t// in\n    tag_70:\n        /* \"#utility.yul\":529:564   */\n      swap1\n      pop\n        /* \"#utility.yul\":466:570   */\n      swap2\n      swap1\n      pop\n      jump\t// out\n        /* \"#utility.yul\":576:714   */\n    tag_49:\n        /* \"#utility.yul\":657:689   */\n      tag_72\n        /* \"#utility.yul\":683:688   */\n      dup2\n        /* \"#utility.yul\":657:689   */\n      tag_48\n      jump\t// in\n    tag_72:\n        /* \"#utility.yul\":650:655   */\n      dup2\n        /* \"#utility.yul\":647:690   */\n      eq\n        /* \"#utility.yul\":637:708   */\n      tag_73\n      jumpi\n        /* \"#utility.yul\":704:705   */\n      0x00\n        /* \"#utility.yul\":701:702   */\n      dup1\n        /* \"#utility.yul\":694:706   */\n      revert\n        /* \"#utility.yul\":637:708   */\n    tag_73:\n        /* \"#utility.yul\":576:714   */\n      pop\n      jump\t// out\n        /* \"#utility.yul\":720:875   */\n    tag_50:\n        /* \"#utility.yul\":774:779   */\n      0x00\n        /* \"#utility.yul\":812:818   */\n      dup2\n        /* \"#utility.yul\":799:819   */\n      calldataload\n        /* \"#utility.yul\":790:819   */\n      swap1\n      pop\n        /* \"#utility.yul\":828:869   */\n      tag_75\n        /* \"#utility.yul\":863:868   */\n      dup2\n        /* \"#utility.yul\":828:869   */\n      tag_49\n      jump\t// in\n    tag_75:\n        /* \"#utility.yul\":720:875   */\n      swap3\n      swap2\n      pop\n      pop\n      jump\t// out\n        /* \"#utility.yul\":881:1226   */\n    tag_8:\n        /* \"#utility.yul\":948:954   */\n      0x00\n        /* \"#utility.yul\":997:999   */\n      0x20\n        /* \"#utility.yul\":985:994   */\n      dup3\n        /* \"#utility.yul\":976:983   */\n      dup5\n        /* \"#utility.yul\":972:995   */\n      sub\n        /* \"#utility.yul\":968:1000   */\n      slt\n        /* \"#utility.yul\":965:1084   */\n      iszero\n      tag_77\n      jumpi\n        /* \"#utility.yul\":1003:1082   */\n      tag_78\n      tag_45\n      jump\t// in\n    tag_78:\n        /* \"#utility.yul\":965:1084   */\n    tag_77:\n        /* \"#utility.yul\":1123:1124   */\n      0x00\n        /* \"#utility.yul\":1148:1209   */\n      tag_79\n        /* \"#utility.yul\":1201:1208   */\n      dup5\n        /* \"#utility.yul\":1192:1198   */\n      dup3\n        /* \"#utility.yul\":1181:1190   */\n      dup6\n        /* \"#utility.yul\":1177:1199   */\n      add\n        /* \"#utility.yul\":1148:1209   */\n      tag_50\n      jump\t// in\n    tag_79:\n        /* \"#utility.yul\":1138:1209   */\n      swap2\n      pop\n        /* \"#utility.yul\":1094:1219   */\n      pop\n        /* \"#utility.yul\":881:1226   */\n      swap3\n      swap2\n      pop\n      pop\n      jump\t// out\n        /* \"#utility.yul\":1232:1322   */\n    tag_51:\n        /* \"#utility.yul\":1266:1273   */\n      0x00\n        /* \"#utility.yul\":1309:1314   */\n      dup2\n        /* \"#utility.yul\":1302:1315   */\n      iszero\n        /* \"#utility.yul\":1295:1316   */\n      iszero\n        /* \"#utility.yul\":1284:1316   */\n      swap1\n      pop\n        /* \"#utility.yul\":1232:1322   */\n      swap2\n      swap1\n      pop\n      jump\t// out\n        /* \"#utility.yul\":1328:1437   */\n    tag_52:\n        /* \"#utility.yul\":1409:1430   */\n      tag_82\n        /* \"#utility.yul\":1424:1429   */\n      dup2\n        /* \"#utility.yul\":1409:1430   */\n      tag_51\n      jump\t// in\n    tag_82:\n        /* \"#utility.yul\":1404:1407   */\n      dup3\n        /* \"#utility.yul\":1397:1431   */\n      mstore\n        /* \"#utility.yul\":1328:1437   */\n      pop\n      pop\n      jump\t// out\n        /* \"#utility.yul\":1443:1541   */\n    tag_53:\n        /* \"#utility.yul\":1494:1500   */\n      0x00\n        /* \"#utility.yul\":1528:1533   */\n      dup2\n        /* \"#utility.yul\":1522:1534   */\n      mload\n        /* \"#utility.yul\":1512:1534   */\n      swap1\n      pop\n        /* \"#utility.yul\":1443:1541   */\n      swap2\n      swap1\n      pop\n      jump\t// out\n        /* \"#utility.yul\":1547:1715   */\n    tag_54:\n        /* \"#utility.yul\":1630:1641   */\n      0x00\n        /* \"#utility.yul\":1664:1670   */\n      dup3\n        /* \"#utility.yul\":1659:1662   */\n      dup3\n        /* \"#utility.yul\":1652:1671   */\n      mstore\n        /* \"#utility.yul\":1704:1708   */\n      0x20\n        /* \"#utility.yul\":1699:1702   */\n      dup3\n        /* \"#utility.yul\":1695:1709   */\n      add\n        /* \"#utility.yul\":1680:1709   */\n      swap1\n      pop\n        /* \"#utility.yul\":1547:1715   */\n      swap3\n      swap2\n      pop\n      pop\n      jump\t// out\n        /* \"#utility.yul\":1721:1860   */\n    tag_55:\n        /* \"#utility.yul\":1810:1816   */\n      dup3\n        /* \"#utility.yul\":1805:1808   */\n      dup2\n        /* \"#utility.yul\":1800:1803   */\n      dup4\n        /* \"#utility.yul\":1794:1817   */\n      mcopy\n        /* \"#utility.yul\":1851:1852   */\n      0x00\n        /* \"#utility.yul\":1842:1848   */\n      dup4\n        /* \"#utility.yul\":1837:1840   */\n      dup4\n        /* \"#utility.yul\":1833:1849   */\n      add\n        /* \"#utility.yul\":1826:1853   */\n      mstore\n        /* \"#utility.yul\":1721:1860   */\n      pop\n      pop\n      pop\n      jump\t// out\n        /* \"#utility.yul\":1866:1968   */\n    tag_56:\n        /* \"#utility.yul\":1907:1913   */\n      0x00\n        /* \"#utility.yul\":1958:1960   */\n      0x1f\n        /* \"#utility.yul\":1954:1961   */\n      not\n        /* \"#utility.yul\":1949:1951   */\n      0x1f\n        /* \"#utility.yul\":1942:1947   */\n      dup4\n        /* \"#utility.yul\":1938:1952   */\n      add\n        /* \"#utility.yul\":1934:1962   */\n      and\n        /* \"#utility.yul\":1924:1962   */\n      swap1\n      pop\n        /* \"#utility.yul\":1866:1968   */\n      swap2\n      swap1\n      pop\n      jump\t// out\n        /* \"#utility.yul\":1974:2347   */\n    tag_57:\n        /* \"#utility.yul\":2060:2063   */\n      0x00\n        /* \"#utility.yul\":2088:2126   */\n      tag_88\n        /* \"#utility.yul\":2120:2125   */\n      dup3\n        /* \"#utility.yul\":2088:2126   */\n      tag_53\n      jump\t// in\n    tag_88:\n        /* \"#utility.yul\":2142:2212   */\n      tag_89\n        /* \"#utility.yul\":2205:2211   */\n      dup2\n        /* \"#utility.yul\":2200:2203   */\n      dup6\n        /* \"#utility.yul\":2142:2212   */\n      tag_54\n      jump\t// in\n    tag_89:\n        /* \"#utility.yul\":2135:2212   */\n      swap4\n      pop\n        /* \"#utility.yul\":2221:2286   */\n      tag_90\n        /* \"#utility.yul\":2279:2285   */\n      dup2\n        /* \"#utility.yul\":2274:2277   */\n      dup6\n        /* \"#utility.yul\":2267:2271   */\n      0x20\n        /* \"#utility.yul\":2260:2265   */\n      dup7\n        /* \"#utility.yul\":2256:2272   */\n      add\n        /* \"#utility.yul\":2221:2286   */\n      tag_55\n      jump\t// in\n    tag_90:\n        /* \"#utility.yul\":2311:2340   */\n      tag_91\n        /* \"#utility.yul\":2333:2339   */\n      dup2\n        /* \"#utility.yul\":2311:2340   */\n      tag_56\n      jump\t// in\n    tag_91:\n        /* \"#utility.yul\":2306:2309   */\n      dup5\n        /* \"#utility.yul\":2302:2341   */\n      add\n        /* \"#utility.yul\":2295:2341   */\n      swap2\n      pop\n        /* \"#utility.yul\":2064:2347   */\n      pop\n        /* \"#utility.yul\":1974:2347   */\n      swap3\n      swap2\n      pop\n      pop\n      jump\t// out\n        /* \"#utility.yul\":2353:2760   */\n    tag_17:\n        /* \"#utility.yul\":2486:2490   */\n      0x00\n        /* \"#utility.yul\":2524:2526   */\n      0x40\n        /* \"#utility.yul\":2513:2522   */\n      dup3\n        /* \"#utility.yul\":2509:2527   */\n      add\n        /* \"#utility.yul\":2501:2527   */\n      swap1\n      pop\n        /* \"#utility.yul\":2537:2602   */\n      tag_93\n        /* \"#utility.yul\":2599:2600   */\n      0x00\n        /* \"#utility.yul\":2588:2597   */\n      dup4\n        /* \"#utility.yul\":2584:2601   */\n      add\n        /* \"#utility.yul\":2575:2581   */\n      dup6\n        /* \"#utility.yul\":2537:2602   */\n      tag_52\n      jump\t// in\n    tag_93:\n        /* \"#utility.yul\":2649:2658   */\n      dup2\n        /* \"#utility.yul\":2643:2647   */\n      dup2\n        /* \"#utility.yul\":2639:2659   */\n      sub\n        /* \"#utility.yul\":2634:2636   */\n      0x20\n        /* \"#utility.yul\":2623:2632   */\n      dup4\n        /* \"#utility.yul\":2619:2637   */\n      add\n        /* \"#utility.yul\":2612:2660   */\n      mstore\n        /* \"#utility.yul\":2677:2753   */\n      tag_94\n        /* \"#utility.yul\":2748:2752   */\n      dup2\n        /* \"#utility.yul\":2739:2745   */\n      dup5\n        /* \"#utility.yul\":2677:2753   */\n      tag_57\n      jump\t// in\n    tag_94:\n        /* \"#utility.yul\":2669:2753   */\n      swap1\n      pop\n        /* \"#utility.yul\":2353:2760   */\n      swap4\n      swap3\n      pop\n      pop\n      pop\n      jump\t// out\n        /* \"#utility.yul\":2766:2976   */\n    tag_22:\n        /* \"#utility.yul\":2853:2857   */\n      0x00\n        /* \"#utility.yul\":2891:2893   */\n      0x20\n        /* \"#utility.yul\":2880:2889   */\n      dup3\n        /* \"#utility.yul\":2876:2894   */\n      add\n        /* \"#utility.yul\":2868:2894   */\n      swap1\n      pop\n        /* \"#utility.yul\":2904:2969   */\n      tag_96\n        /* \"#utility.yul\":2966:2967   */\n      0x00\n        /* \"#utility.yul\":2955:2964   */\n      dup4\n        /* \"#utility.yul\":2951:2968   */\n      add\n        /* \"#utility.yul\":2942:2948   */\n      dup5\n        /* \"#utility.yul\":2904:2969   */\n      tag_52\n      jump\t// in\n    tag_96:\n        /* \"#utility.yul\":2766:2976   */\n      swap3\n      swap2\n      pop\n      pop\n      jump\t// out\n        /* \"#utility.yul\":2982:3059   */\n    tag_58:\n        /* \"#utility.yul\":3019:3026   */\n      0x00\n        /* \"#utility.yul\":3048:3053   */\n      dup2\n        /* \"#utility.yul\":3037:3053   */\n      swap1\n      pop\n        /* \"#utility.yul\":2982:3059   */\n      swap2\n      swap1\n      pop\n      jump\t// out\n        /* \"#utility.yul\":3065:3183   */\n    tag_59:\n        /* \"#utility.yul\":3152:3176   */\n      tag_99\n        /* \"#utility.yul\":3170:3175   */\n      dup2\n        /* \"#utility.yul\":3152:3176   */\n      tag_58\n      jump\t// in\n    tag_99:\n        /* \"#utility.yul\":3147:3150   */\n      dup3\n        /* \"#utility.yul\":3140:3177   */\n      mstore\n        /* \"#utility.yul\":3065:3183   */\n      pop\n      pop\n      jump\t// out\n        /* \"#utility.yul\":3189:3411   */\n    tag_25:\n        /* \"#utility.yul\":3282:3286   */\n      0x00\n        /* \"#utility.yul\":3320:3322   */\n      0x20\n        /* \"#utility.yul\":3309:3318   */\n      dup3\n        /* \"#utility.yul\":3305:3323   */\n      add\n        /* \"#utility.yul\":3297:3323   */\n      swap1\n      pop\n        /* \"#utility.yul\":3333:3404   */\n      tag_101\n        /* \"#utility.yul\":3401:3402   */\n      0x00\n        /* \"#utility.yul\":3390:3399   */\n      dup4\n        /* \"#utility.yul\":3386:3403   */\n      add\n        /* \"#utility.yul\":3377:3383   */\n      dup5\n        /* \"#utility.yul\":3333:3404   */\n      tag_59\n      jump\t// in\n    tag_101:\n        /* \"#utility.yul\":3189:3411   */\n      swap3\n      swap2\n      pop\n      pop\n      jump\t// out\n        /* \"#utility.yul\":3417:3564   */\n    tag_60:\n        /* \"#utility.yul\":3518:3529   */\n      0x00\n        /* \"#utility.yul\":3555:3558   */\n      dup2\n        /* \"#utility.yul\":3540:3558   */\n      swap1\n      pop\n        /* \"#utility.yul\":3417:3564   */\n      swap3\n      swap2\n      pop\n      pop\n      jump\t// out\n        /* \"#utility.yul\":3570:3956   */\n    tag_61:\n        /* \"#utility.yul\":3674:3677   */\n      0x00\n        /* \"#utility.yul\":3702:3740   */\n      tag_104\n        /* \"#utility.yul\":3734:3739   */\n      dup3\n        /* \"#utility.yul\":3702:3740   */\n      tag_53\n      jump\t// in\n    tag_104:\n        /* \"#utility.yul\":3756:3844   */\n      tag_105\n        /* \"#utility.yul\":3837:3843   */\n      dup2\n        /* \"#utility.yul\":3832:3835   */\n      dup6\n        /* \"#utility.yul\":3756:3844   */\n      tag_60\n      jump\t// in\n    tag_105:\n        /* \"#utility.yul\":3749:3844   */\n      swap4\n      pop\n        /* \"#utility.yul\":3853:3918   */\n      tag_106\n        /* \"#utility.yul\":3911:3917   */\n      dup2\n        /* \"#utility.yul\":3906:3909   */\n      dup6\n        /* \"#utility.yul\":3899:3903   */\n      0x20\n        /* \"#utility.yul\":3892:3897   */\n      dup7\n        /* \"#utility.yul\":3888:3904   */\n      add\n        /* \"#utility.yul\":3853:3918   */\n      tag_55\n      jump\t// in\n    tag_106:\n        /* \"#utility.yul\":3943:3949   */\n      dup1\n        /* \"#utility.yul\":3938:3941   */\n      dup5\n        /* \"#utility.yul\":3934:3950   */\n      add\n        /* \"#utility.yul\":3927:3950   */\n      swap2\n      pop\n        /* \"#utility.yul\":3678:3956   */\n      pop\n        /* \"#utility.yul\":3570:3956   */\n      swap3\n      swap2\n      pop\n      pop\n      jump\t// out\n        /* \"#utility.yul\":3962:4233   */\n    tag_27:\n        /* \"#utility.yul\":4092:4095   */\n      0x00\n        /* \"#utility.yul\":4114:4207   */\n      tag_108\n        /* \"#utility.yul\":4203:4206   */\n      dup3\n        /* \"#utility.yul\":4194:4200   */\n      dup5\n        /* \"#utility.yul\":4114:4207   */\n      tag_61\n      jump\t// in\n    tag_108:\n        /* \"#utility.yul\":4107:4207   */\n      swap2\n      pop\n        /* \"#utility.yul\":4224:4227   */\n      dup2\n        /* \"#utility.yul\":4217:4227   */\n      swap1\n      pop\n        /* \"#utility.yul\":3962:4233   */\n      swap3\n      swap2\n      pop\n      pop\n      jump\t// out\n        /* \"#utility.yul\":4239:4353   */\n    tag_62:\n      pop\n      jump\t// out\n        /* \"#utility.yul\":4359:4757   */\n    tag_63:\n        /* \"#utility.yul\":4518:4521   */\n      0x00\n        /* \"#utility.yul\":4539:4622   */\n      tag_111\n        /* \"#utility.yul\":4620:4621   */\n      0x00\n        /* \"#utility.yul\":4615:4618   */\n      dup4\n        /* \"#utility.yul\":4539:4622   */\n      tag_60\n      jump\t// in\n    tag_111:\n        /* \"#utility.yul\":4532:4622   */\n      swap2\n      pop\n        /* \"#utility.yul\":4631:4724   */\n      tag_112\n        /* \"#utility.yul\":4720:4723   */\n      dup3\n        /* \"#utility.yul\":4631:4724   */\n      tag_62\n      jump\t// in\n    tag_112:\n        /* \"#utility.yul\":4749:4750   */\n      0x00\n        /* \"#utility.yul\":4744:4747   */\n      dup3\n        /* \"#utility.yul\":4740:4751   */\n      add\n        /* \"#utility.yul\":4733:4751   */\n      swap1\n      pop\n        /* \"#utility.yul\":4359:4757   */\n      swap2\n      swap1\n      pop\n      jump\t// out\n        /* \"#utility.yul\":4763:5142   */\n    tag_37:\n        /* \"#utility.yul\":4947:4950   */\n      0x00\n        /* \"#utility.yul\":4969:5116   */\n      tag_114\n        /* \"#utility.yul\":5112:5115   */\n      dup3\n        /* \"#utility.yul\":4969:5116   */\n      tag_63\n      jump\t// in\n    tag_114:\n        /* \"#utility.yul\":4962:5116   */\n      swap2\n      pop\n        /* \"#utility.yul\":5133:5136   */\n      dup2\n        /* \"#utility.yul\":5126:5136   */\n      swap1\n      pop\n        /* \"#utility.yul\":4763:5142   */\n      swap2\n      swap1\n      pop\n      jump\t// out\n\n    auxdata: 0xa264697066735822122093b8fc112aa01530ce62050a793bf771f4122c85d8af234dfb98f81c0098614264736f6c634300081a0033\n}\n",
				"bytecode": {
					"linkReferences": {},
					"object": "6080604052348015600e575f80fd5b5061058d8061001c5f395ff3fe60806040526004361061003e575f3560e01c80635d3f13b9146100425780637d970d501461005e578063f74e76881461007a578063f93ac7c3146100ab575b5f80fd5b61005c600480360381019061005791906103a3565b6100db565b005b610078600480360381019061007391906103a3565b610217565b005b610094600480360381019061008f91906103a3565b61025e565b6040516100a2929190610458565b60405180910390f35b6100c560048036038101906100c091906103a3565b610309565b6040516100d29190610486565b60405180910390f35b5f3490505f808373ffffffffffffffffffffffffffffffffffffffff16838460405160240161010a91906104b7565b6040516020818303038152906040527fb6b55f25000000000000000000000000000000000000000000000000000000007bffffffffffffffffffffffffffffffffffffffffffffffffffffffff19166020820180517bffffffffffffffffffffffffffffffffffffffffffffffffffffffff8381831617835250505050604051610194919061050a565b5f6040518083038185875af1925050503d805f81146101ce576040519150601f19603f3d011682016040523d82523d5f602084013e6101d3565b606091505b50915091507f13848c3e38f8886f3f5d2ad9dff80d8092c2bbb8efd5b887a99c2c6cfc09ac2a8282604051610209929190610458565b60405180910390a150505050565b8073ffffffffffffffffffffffffffffffffffffffff166108fc3490811502906040515f60405180830381858888f1935050505015801561025a573d5f803e3d5ffd5b5050565b5f60608273ffffffffffffffffffffffffffffffffffffffff163460405161028590610543565b5f6040518083038185875af1925050503d805f81146102bf576040519150601f19603f3d011682016040523d82523d5f602084013e6102c4565b606091505b50809250819350505081610304576040517ffe8a94f400000000000000000000000000000000000000000000000000000000815260040160405180910390fd5b915091565b5f8173ffffffffffffffffffffffffffffffffffffffff166108fc3490811502906040515f60405180830381858888f193505050509050919050565b5f80fd5b5f73ffffffffffffffffffffffffffffffffffffffff82169050919050565b5f61037282610349565b9050919050565b61038281610368565b811461038c575f80fd5b50565b5f8135905061039d81610379565b92915050565b5f602082840312156103b8576103b7610345565b5b5f6103c58482850161038f565b91505092915050565b5f8115159050919050565b6103e2816103ce565b82525050565b5f81519050919050565b5f82825260208201905092915050565b8281835e5f83830152505050565b5f601f19601f8301169050919050565b5f61042a826103e8565b61043481856103f2565b9350610444818560208601610402565b61044d81610410565b840191505092915050565b5f60408201905061046b5f8301856103d9565b818103602083015261047d8184610420565b90509392505050565b5f6020820190506104995f8301846103d9565b92915050565b5f819050919050565b6104b18161049f565b82525050565b5f6020820190506104ca5f8301846104a8565b92915050565b5f81905092915050565b5f6104e4826103e8565b6104ee81856104d0565b93506104fe818560208601610402565b80840191505092915050565b5f61051582846104da565b915081905092915050565b50565b5f61052e5f836104d0565b915061053982610520565b5f82019050919050565b5f61054d82610523565b915081905091905056fea264697066735822122093b8fc112aa01530ce62050a793bf771f4122c85d8af234dfb98f81c0098614264736f6c634300081a0033",
					"opcodes": "PUSH1 0x80 PUSH1 0x40 MSTORE CALLVALUE DUP1 ISZERO PUSH1 0xE JUMPI PUSH0 DUP1 REVERT JUMPDEST POP PUSH2 0x58D DUP1 PUSH2 0x1C PUSH0 CODECOPY PUSH0 RETURN INVALID PUSH1 0x80 PUSH1 0x40 MSTORE PUSH1 0x4 CALLDATASIZE LT PUSH2 0x3E JUMPI PUSH0 CALLDATALOAD PUSH1 0xE0 SHR DUP1 PUSH4 0x5D3F13B9 EQ PUSH2 0x42 JUMPI DUP1 PUSH4 0x7D970D50 EQ PUSH2 0x5E JUMPI DUP1 PUSH4 0xF74E7688 EQ PUSH2 0x7A JUMPI DUP1 PUSH4 0xF93AC7C3 EQ PUSH2 0xAB JUMPI JUMPDEST PUSH0 DUP1 REVERT JUMPDEST PUSH2 0x5C PUSH1 0x4 DUP1 CALLDATASIZE SUB DUP2 ADD SWAP1 PUSH2 0x57 SWAP2 SWAP1 PUSH2 0x3A3 JUMP JUMPDEST PUSH2 0xDB JUMP JUMPDEST STOP JUMPDEST PUSH2 0x78 PUSH1 0x4 DUP1 CALLDATASIZE SUB DUP2 ADD SWAP1 PUSH2 0x73 SWAP2 SWAP1 PUSH2 0x3A3 JUMP JUMPDEST PUSH2 0x217 JUMP JUMPDEST STOP JUMPDEST PUSH2 0x94 PUSH1 0x4 DUP1 CALLDATASIZE SUB DUP2 ADD SWAP1 PUSH2 0x8F SWAP2 SWAP1 PUSH2 0x3A3 JUMP JUMPDEST PUSH2 0x25E JUMP JUMPDEST PUSH1 0x40 MLOAD PUSH2 0xA2 SWAP3 SWAP2 SWAP1 PUSH2 0x458 JUMP JUMPDEST PUSH1 0x40 MLOAD DUP1 SWAP2 SUB SWAP1 RETURN JUMPDEST PUSH2 0xC5 PUSH1 0x4 DUP1 CALLDATASIZE SUB DUP2 ADD SWAP1 PUSH2 0xC0 SWAP2 SWAP1 PUSH2 0x3A3 JUMP JUMPDEST PUSH2 0x309 JUMP JUMPDEST PUSH1 0x40 MLOAD PUSH2 0xD2 SWAP2 SWAP1 PUSH2 0x486 JUMP JUMPDEST PUSH1 0x40 MLOAD DUP1 SWAP2 SUB SWAP1 RETURN JUMPDEST PUSH0 CALLVALUE SWAP1 POP PUSH0 DUP1 DUP4 PUSH20 0xFFFFFFFFFFFFFFFFFFFFFFFFFFFFFFFFFFFFFFFF AND DUP4 DUP5 PUSH1 0x40 MLOAD PUSH1 0x24 ADD PUSH2 0x10A SWAP2 SWAP1 PUSH2 0x4B7 JUMP JUMPDEST PUSH1 0x40 MLOAD PUSH1 0x20 DUP2 DUP4 SUB SUB DUP2 MSTORE SWAP1 PUSH1 0x40 MSTORE PUSH32 0xB6B55F2500000000000000000000000000000000000000000000000000000000 PUSH28 0xFFFFFFFFFFFFFFFFFFFFFFFFFFFFFFFFFFFFFFFFFFFFFFFFFFFFFFFF NOT AND PUSH1 0x20 DUP3 ADD DUP1 MLOAD PUSH28 0xFFFFFFFFFFFFFFFFFFFFFFFFFFFFFFFFFFFFFFFFFFFFFFFFFFFFFFFF DUP4 DUP2 DUP4 AND OR DUP4 MSTORE POP POP POP POP PUSH1 0x40 MLOAD PUSH2 0x194 SWAP2 SWAP1 PUSH2 0x50A JUMP JUMPDEST PUSH0 PUSH1 0x40 MLOAD DUP1 DUP4 SUB DUP2 DUP6 DUP8 GAS CALL SWAP3 POP POP POP RETURNDATASIZE DUP1 PUSH0 DUP2 EQ PUSH2 0x1CE JUMPI PUSH1 0x40 MLOAD SWAP2 POP PUSH1 0x1F NOT PUSH1 0x3F RETURNDATASIZE ADD AND DUP3 ADD PUSH1 0x40 MSTORE RETURNDATASIZE DUP3 MSTORE RETURNDATASIZE PUSH0 PUSH1 0x20 DUP5 ADD RETURNDATACOPY PUSH2 0x1D3 JUMP JUMPDEST PUSH1 0x60 SWAP2 POP JUMPDEST POP SWAP2 POP SWAP2 POP PUSH32 0x13848C3E38F8886F3F5D2AD9DFF80D8092C2BBB8EFD5B887A99C2C6CFC09AC2A DUP3 DUP3 PUSH1 0x40 MLOAD PUSH2 0x209 SWAP3 SWAP2 SWAP1 PUSH2 0x458 JUMP JUMPDEST PUSH1 0x40 MLOAD DUP1 SWAP2 SUB SWAP1 LOG1 POP POP POP POP JUMP JUMPDEST DUP1 PUSH20 0xFFFFFFFFFFFFFFFFFFFFFFFFFFFFFFFFFFFFFFFF AND PUSH2 0x8FC CALLVALUE SWAP1 DUP2 ISZERO MUL SWAP1 PUSH1 0x40 MLOAD PUSH0 PUSH1 0x40 MLOAD DUP1 DUP4 SUB DUP2 DUP6 DUP9 DUP9 CALL SWAP4 POP POP POP POP ISZERO DUP1 ISZERO PUSH2 0x25A JUMPI RETURNDATASIZE PUSH0 DUP1 RETURNDATACOPY RETURNDATASIZE PUSH0 REVERT JUMPDEST POP POP JUMP JUMPDEST PUSH0 PUSH1 0x60 DUP3 PUSH20 0xFFFFFFFFFFFFFFFFFFFFFFFFFFFFFFFFFFFFFFFF AND CALLVALUE PUSH1 0x40 MLOAD PUSH2 0x285 SWAP1 PUSH2 0x543 JUMP JUMPDEST PUSH0 PUSH1 0x40 MLOAD DUP1 DUP4 SUB DUP2 DUP6 DUP8 GAS CALL SWAP3 POP POP POP RETURNDATASIZE DUP1 PUSH0 DUP2 EQ PUSH2 0x2BF JUMPI PUSH1 0x40 MLOAD SWAP2 POP PUSH1 0x1F NOT PUSH1 0x3F RETURNDATASIZE ADD AND DUP3 ADD PUSH1 0x40 MSTORE RETURNDATASIZE DUP3 MSTORE RETURNDATASIZE PUSH0 PUSH1 0x20 DUP5 ADD RETURNDATACOPY PUSH2 0x2C4 JUMP JUMPDEST PUSH1 0x60 SWAP2 POP JUMPDEST POP DUP1 SWAP3 POP DUP2 SWAP4 POP POP POP DUP2 PUSH2 0x304 JUMPI PUSH1 0x40 MLOAD PUSH32 0xFE8A94F400000000000000000000000000000000000000000000000000000000 DUP2 MSTORE PUSH1 0x4 ADD PUSH1 0x40 MLOAD DUP1 SWAP2 SUB SWAP1 REVERT JUMPDEST SWAP2 POP SWAP2 JUMP JUMPDEST PUSH0 DUP2 PUSH20 0xFFFFFFFFFFFFFFFFFFFFFFFFFFFFFFFFFFFFFFFF AND PUSH2 0x8FC CALLVALUE SWAP1 DUP2 ISZERO MUL SWAP1 PUSH1 0x40 MLOAD PUSH0 PUSH1 0x40 MLOAD DUP1 DUP4 SUB DUP2 DUP6 DUP9 DUP9 CALL SWAP4 POP POP POP POP SWAP1 POP SWAP2 SWAP1 POP JUMP JUMPDEST PUSH0 DUP1 REVERT JUMPDEST PUSH0 PUSH20 0xFFFFFFFFFFFFFFFFFFFFFFFFFFFFFFFFFFFFFFFF DUP3 AND SWAP1 POP SWAP2 SWAP1 POP JUMP JUMPDEST PUSH0 PUSH2 0x372 DUP3 PUSH2 0x349 JUMP JUMPDEST SWAP1 POP SWAP2 SWAP1 POP JUMP JUMPDEST PUSH2 0x382 DUP2 PUSH2 0x368 JUMP JUMPDEST DUP2 EQ PUSH2 0x38C JUMPI PUSH0 DUP1 REVERT JUMPDEST POP JUMP JUMPDEST PUSH0 DUP2 CALLDATALOAD SWAP1 POP PUSH2 0x39D DUP2 PUSH2 0x379 JUMP JUMPDEST SWAP3 SWAP2 POP POP JUMP JUMPDEST PUSH0 PUSH1 0x20 DUP3 DUP5 SUB SLT ISZERO PUSH2 0x3B8 JUMPI PUSH2 0x3B7 PUSH2 0x345 JUMP JUMPDEST JUMPDEST PUSH0 PUSH2 0x3C5 DUP5 DUP3 DUP6 ADD PUSH2 0x38F JUMP JUMPDEST SWAP2 POP POP SWAP3 SWAP2 POP POP JUMP JUMPDEST PUSH0 DUP2 ISZERO ISZERO SWAP1 POP SWAP2 SWAP1 POP JUMP JUMPDEST PUSH2 0x3E2 DUP2 PUSH2 0x3CE JUMP JUMPDEST DUP3 MSTORE POP POP JUMP JUMPDEST PUSH0 DUP2 MLOAD SWAP1 POP SWAP2 SWAP1 POP JUMP JUMPDEST PUSH0 DUP3 DUP3 MSTORE PUSH1 0x20 DUP3 ADD SWAP1 POP SWAP3 SWAP2 POP POP JUMP JUMPDEST DUP3 DUP2 DUP4 MCOPY PUSH0 DUP4 DUP4 ADD MSTORE POP POP POP JUMP JUMPDEST PUSH0 PUSH1 0x1F NOT PUSH1 0x1F DUP4 ADD AND SWAP1 POP SWAP2 SWAP1 POP JUMP JUMPDEST PUSH0 PUSH2 0x42A DUP3 PUSH2 0x3E8 JUMP JUMPDEST PUSH2 0x434 DUP2 DUP6 PUSH2 0x3F2 JUMP JUMPDEST SWAP4 POP PUSH2 0x444 DUP2 DUP6 PUSH1 0x20 DUP7 ADD PUSH2 0x402 JUMP JUMPDEST PUSH2 0x44D DUP2 PUSH2 0x410 JUMP JUMPDEST DUP5 ADD SWAP2 POP POP SWAP3 SWAP2 POP POP JUMP JUMPDEST PUSH0 PUSH1 0x40 DUP3 ADD SWAP1 POP PUSH2 0x46B PUSH0 DUP4 ADD DUP6 PUSH2 0x3D9 JUMP JUMPDEST DUP2 DUP2 SUB PUSH1 0x20 DUP4 ADD MSTORE PUSH2 0x47D DUP2 DUP5 PUSH2 0x420 JUMP JUMPDEST SWAP1 POP SWAP4 SWAP3 POP POP POP JUMP JUMPDEST PUSH0 PUSH1 0x20 DUP3 ADD SWAP1 POP PUSH2 0x499 PUSH0 DUP4 ADD DUP5 PUSH2 0x3D9 JUMP JUMPDEST SWAP3 SWAP2 POP POP JUMP JUMPDEST PUSH0 DUP2 SWAP1 POP SWAP2 SWAP1 POP JUMP JUMPDEST PUSH2 0x4B1 DUP2 PUSH2 0x49F JUMP JUMPDEST DUP3 MSTORE POP POP JUMP JUMPDEST PUSH0 PUSH1 0x20 DUP3 ADD SWAP1 POP PUSH2 0x4CA PUSH0 DUP4 ADD DUP5 PUSH2 0x4A8 JUMP JUMPDEST SWAP3 SWAP2 POP POP JUMP JUMPDEST PUSH0 DUP2 SWAP1 POP SWAP3 SWAP2 POP POP JUMP JUMPDEST PUSH0 PUSH2 0x4E4 DUP3 PUSH2 0x3E8 JUMP JUMPDEST PUSH2 0x4EE DUP2 DUP6 PUSH2 0x4D0 JUMP JUMPDEST SWAP4 POP PUSH2 0x4FE DUP2 DUP6 PUSH1 0x20 DUP7 ADD PUSH2 0x402 JUMP JUMPDEST DUP1 DUP5 ADD SWAP2 POP POP SWAP3 SWAP2 POP POP JUMP JUMPDEST PUSH0 PUSH2 0x515 DUP3 DUP5 PUSH2 0x4DA JUMP JUMPDEST SWAP2 POP DUP2 SWAP1 POP SWAP3 SWAP2 POP POP JUMP JUMPDEST POP JUMP JUMPDEST PUSH0 PUSH2 0x52E PUSH0 DUP4 PUSH2 0x4D0 JUMP JUMPDEST SWAP2 POP PUSH2 0x539 DUP3 PUSH2 0x520 JUMP JUMPDEST PUSH0 DUP3 ADD SWAP1 POP SWAP2 SWAP1 POP JUMP JUMPDEST PUSH0 PUSH2 0x54D DUP3 PUSH2 0x523 JUMP JUMPDEST SWAP2 POP DUP2 SWAP1 POP SWAP2 SWAP1 POP JUMP INVALID LOG2 PUSH5 0x6970667358 0x22 SLT KECCAK256 SWAP4 0xB8 0xFC GT 0x2A LOG0 ISZERO ADDRESS 0xCE PUSH3 0x50A79 EXTCODESIZE 0xF7 PUSH18 0xF4122C85D8AF234DFB98F81C009861426473 PUSH16 0x6C634300081A00330000000000000000 "
				},
				"gasEstimates": {
					"creation": {
						"codeDepositCost": "284200",
						"executionCost": "322",
						"totalCost": "284522"
					},
					"external": {
						"callDeposit(address)": "infinite",
						"senWithSend(address)": "infinite",
						"sendWithCall(address)": "infinite",
						"sendWithTransfer(address)": "infinite"
					}
				},
				"methodIdentifiers": {
					"callDeposit(address)": "5d3f13b9",
					"senWithSend(address)": "f93ac7c3",
					"sendWithCall(address)": "f74e7688",
					"sendWithTransfer(address)": "7d970d50"
				}
			},
			"storageLayout": {
				"storage": [],
				"types": null
			},
			"userdoc": {
				"kind": "user",
				"methods": {},
				"version": 1
			}
		}
	}
}