{
	"contracts/7_streaming.sol": {
		"MusicStreaming": {
			"abi": [
				{
					"anonymous": false,
					"inputs": [
						{
							"indexed": false,
							"internalType": "uint256",
							"name": "id",
							"type": "uint256"
						},
						{
							"indexed": false,
							"internalType": "address",
							"name": "listener",
							"type": "address"
						}
					],
					"name": "SongStreamed",
					"type": "event"
				},
				{
					"anonymous": false,
					"inputs": [
						{
							"indexed": false,
							"internalType": "uint256",
							"name": "id",
							"type": "uint256"
						},
						{
							"indexed": false,
							"internalType": "address",
							"name": "artist",
							"type": "address"
						},
						{
							"indexed": false,
							"internalType": "string",
							"name": "title",
							"type": "string"
						},
						{
							"indexed": false,
							"internalType": "string",
							"name": "ipfsHash",
							"type": "string"
						}
					],
					"name": "SongUploaded",
					"type": "event"
				},
				{
					"anonymous": false,
					"inputs": [
						{
							"indexed": false,
							"internalType": "address",
							"name": "user",
							"type": "address"
						},
						{
							"indexed": false,
							"internalType": "uint256",
							"name": "expiration",
							"type": "uint256"
						}
					],
					"name": "UserSubscribed",
					"type": "event"
				},
				{
					"inputs": [
						{
							"internalType": "address",
							"name": "",
							"type": "address"
						}
					],
					"name": "artistEarnings",
					"outputs": [
						{
							"internalType": "uint256",
							"name": "",
							"type": "uint256"
						}
					],
					"stateMutability": "view",
					"type": "function"
				},
				{
					"inputs": [],
					"name": "songCount",
					"outputs": [
						{
							"internalType": "uint256",
							"name": "",
							"type": "uint256"
						}
					],
					"stateMutability": "view",
					"type": "function"
				},
				{
					"inputs": [
						{
							"internalType": "uint256",
							"name": "",
							"type": "uint256"
						}
					],
					"name": "songs",
					"outputs": [
						{
							"internalType": "uint256",
							"name": "id",
							"type": "uint256"
						},
						{
							"internalType": "address",
							"name": "artist",
							"type": "address"
						},
						{
							"internalType": "string",
							"name": "title",
							"type": "string"
						},
						{
							"internalType": "string",
							"name": "artistName",
							"type": "string"
						},
						{
							"internalType": "string",
							"name": "ipfsHash",
							"type": "string"
						},
						{
							"internalType": "uint256",
							"name": "streamCount",
							"type": "uint256"
						}
					],
					"stateMutability": "view",
					"type": "function"
				},
				{
					"inputs": [
						{
							"internalType": "uint256",
							"name": "_songId",
							"type": "uint256"
						}
					],
					"name": "streamSong",
					"outputs": [],
					"stateMutability": "nonpayable",
					"type": "function"
				},
				{
					"inputs": [],
					"name": "subscribe",
					"outputs": [],
					"stateMutability": "payable",
					"type": "function"
				},
				{
					"inputs": [],
					"name": "subscriptionPrice",
					"outputs": [
						{
							"internalType": "uint256",
							"name": "",
							"type": "uint256"
						}
					],
					"stateMutability": "view",
					"type": "function"
				},
				{
					"inputs": [],
					"name": "totalRevenue",
					"outputs": [
						{
							"internalType": "uint256",
							"name": "",
							"type": "uint256"
						}
					],
					"stateMutability": "view",
					"type": "function"
				},
				{
					"inputs": [],
					"name": "totalStreams",
					"outputs": [
						{
							"internalType": "uint256",
							"name": "",
							"type": "uint256"
						}
					],
					"stateMutability": "view",
					"type": "function"
				},
				{
					"inputs": [
						{
							"internalType": "string",
							"name": "_title",
							"type": "string"
						},
						{
							"internalType": "string",
							"name": "_artistName",
							"type": "string"
						},
						{
							"internalType": "string",
							"name": "_ipfsHash",
							"type": "string"
						}
					],
					"name": "uploadSong",
					"outputs": [],
					"stateMutability": "nonpayable",
					"type": "function"
				},
				{
					"inputs": [
						{
							"internalType": "address",
							"name": "",
							"type": "address"
						}
					],
					"name": "userSubscriptions",
					"outputs": [
						{
							"internalType": "uint256",
							"name": "",
							"type": "uint256"
						}
					],
					"stateMutability": "view",
					"type": "function"
				},
				{
					"inputs": [],
					"name": "withdrawEarnings",
					"outputs": [],
					"stateMutability": "nonpayable",
					"type": "function"
				}
			],
			"devdoc": {
				"kind": "dev",
				"methods": {},
				"version": 1
			},
			"evm": {
				"assembly": "    /* \"contracts/7_streaming.sol\":57:2455  contract MusicStreaming {... */\n  mstore(0x40, 0x80)\n    /* \"contracts/7_streaming.sol\":513:523  0.01 ether */\n  0x2386f26fc10000\n    /* \"contracts/7_streaming.sol\":478:523  uint256 public subscriptionPrice = 0.01 ether */\n  0x04\n  sstore\n    /* \"contracts/7_streaming.sol\":57:2455  contract MusicStreaming {... */\n  callvalue\n  dup1\n  iszero\n  tag_1\n  jumpi\n  0x00\n  dup1\n  revert\ntag_1:\n  pop\n  dataSize(sub_0)\n  dup1\n  dataOffset(sub_0)\n  0x00\n  codecopy\n  0x00\n  return\nstop\n\nsub_0: assembly {\n        /* \"contracts/7_streaming.sol\":57:2455  contract MusicStreaming {... */\n      mstore(0x40, 0x80)\n      jumpi(tag_1, lt(calldatasize, 0x04))\n      shr(0xe0, calldataload(0x00))\n      dup1\n      0x931a889b\n      gt\n      tag_13\n      jumpi\n      dup1\n      0x931a889b\n      eq\n      tag_7\n      jumpi\n      dup1\n      0xb73c6ce9\n      eq\n      tag_8\n      jumpi\n      dup1\n      0xbdc8e54c\n      eq\n      tag_9\n      jumpi\n      dup1\n      0xbf2d9e0b\n      eq\n      tag_10\n      jumpi\n      dup1\n      0xcf14b9e4\n      eq\n      tag_11\n      jumpi\n      dup1\n      0xfc6ff96f\n      eq\n      tag_12\n      jumpi\n      jump(tag_1)\n    tag_13:\n      dup1\n      0x05b40e19\n      eq\n      tag_2\n      jumpi\n      dup1\n      0x231f9f5e\n      eq\n      tag_3\n      jumpi\n      dup1\n      0x304cff30\n      eq\n      tag_4\n      jumpi\n      dup1\n      0x8a15359d\n      eq\n      tag_5\n      jumpi\n      dup1\n      0x8f449a05\n      eq\n      tag_6\n      jumpi\n    tag_1:\n      0x00\n      dup1\n      revert\n        /* \"contracts/7_streaming.sol\":1883:2171  function streamSong(uint256 _songId) public {... */\n    tag_2:\n      callvalue\n      dup1\n      iszero\n      tag_14\n      jumpi\n      0x00\n      dup1\n      revert\n    tag_14:\n      pop\n      tag_15\n      0x04\n      dup1\n      calldatasize\n      sub\n      dup2\n      add\n      swap1\n      tag_16\n      swap2\n      swap1\n      tag_17\n      jump\t// in\n    tag_16:\n      tag_18\n      jump\t// in\n    tag_15:\n      stop\n        /* \"contracts/7_streaming.sol\":888:1460  function uploadSong(string memory _title, string memory _artistName, string memory _ipfsHash) public {... */\n    tag_3:\n      callvalue\n      dup1\n      iszero\n      tag_19\n      jumpi\n      0x00\n      dup1\n      revert\n    tag_19:\n      pop\n      tag_20\n      0x04\n      dup1\n      calldatasize\n      sub\n      dup2\n      add\n      swap1\n      tag_21\n      swap2\n      swap1\n      tag_22\n      jump\t// in\n    tag_21:\n      tag_23\n      jump\t// in\n    tag_20:\n      stop\n        /* \"contracts/7_streaming.sol\":321:358  mapping(uint256 => Song) public songs */\n    tag_4:\n      callvalue\n      dup1\n      iszero\n      tag_24\n      jumpi\n      0x00\n      dup1\n      revert\n    tag_24:\n      pop\n      tag_25\n      0x04\n      dup1\n      calldatasize\n      sub\n      dup2\n      add\n      swap1\n      tag_26\n      swap2\n      swap1\n      tag_17\n      jump\t// in\n    tag_26:\n      tag_27\n      jump\t// in\n    tag_25:\n      mload(0x40)\n      tag_28\n      swap7\n      swap6\n      swap5\n      swap4\n      swap3\n      swap2\n      swap1\n      tag_29\n      jump\t// in\n    tag_28:\n      mload(0x40)\n      dup1\n      swap2\n      sub\n      swap1\n      return\n        /* \"contracts/7_streaming.sol\":364:413  mapping(address => uint256) public artistEarnings */\n    tag_5:\n      callvalue\n      dup1\n      iszero\n      tag_30\n      jumpi\n      0x00\n      dup1\n      revert\n    tag_30:\n      pop\n      tag_31\n      0x04\n      dup1\n      calldatasize\n      sub\n      dup2\n      add\n      swap1\n      tag_32\n      swap2\n      swap1\n      tag_33\n      jump\t// in\n    tag_32:\n      tag_34\n      jump\t// in\n    tag_31:\n      mload(0x40)\n      tag_35\n      swap2\n      swap1\n      tag_36\n      jump\t// in\n    tag_35:\n      mload(0x40)\n      dup1\n      swap2\n      sub\n      swap1\n      return\n        /* \"contracts/7_streaming.sol\":1466:1877  function subscribe() public payable {... */\n    tag_6:\n      tag_37\n      tag_38\n      jump\t// in\n    tag_37:\n      stop\n        /* \"contracts/7_streaming.sol\":291:315  uint256 public songCount */\n    tag_7:\n      callvalue\n      dup1\n      iszero\n      tag_39\n      jumpi\n      0x00\n      dup1\n      revert\n    tag_39:\n      pop\n      tag_40\n      tag_41\n      jump\t// in\n    tag_40:\n      mload(0x40)\n      tag_42\n      swap2\n      swap1\n      tag_36\n      jump\t// in\n    tag_42:\n      mload(0x40)\n      dup1\n      swap2\n      sub\n      swap1\n      return\n        /* \"contracts/7_streaming.sol\":2177:2453  function withdrawEarnings() public {... */\n    tag_8:\n      callvalue\n      dup1\n      iszero\n      tag_43\n      jumpi\n      0x00\n      dup1\n      revert\n    tag_43:\n      pop\n      tag_44\n      tag_45\n      jump\t// in\n    tag_44:\n      stop\n        /* \"contracts/7_streaming.sol\":478:523  uint256 public subscriptionPrice = 0.01 ether */\n    tag_9:\n      callvalue\n      dup1\n      iszero\n      tag_46\n      jumpi\n      0x00\n      dup1\n      revert\n    tag_46:\n      pop\n      tag_47\n      tag_48\n      jump\t// in\n    tag_47:\n      mload(0x40)\n      tag_49\n      swap2\n      swap1\n      tag_36\n      jump\t// in\n    tag_49:\n      mload(0x40)\n      dup1\n      swap2\n      sub\n      swap1\n      return\n        /* \"contracts/7_streaming.sol\":559:586  uint256 public totalRevenue */\n    tag_10:\n      callvalue\n      dup1\n      iszero\n      tag_50\n      jumpi\n      0x00\n      dup1\n      revert\n    tag_50:\n      pop\n      tag_51\n      tag_52\n      jump\t// in\n    tag_51:\n      mload(0x40)\n      tag_53\n      swap2\n      swap1\n      tag_36\n      jump\t// in\n    tag_53:\n      mload(0x40)\n      dup1\n      swap2\n      sub\n      swap1\n      return\n        /* \"contracts/7_streaming.sol\":419:471  mapping(address => uint256) public userSubscriptions */\n    tag_11:\n      callvalue\n      dup1\n      iszero\n      tag_54\n      jumpi\n      0x00\n      dup1\n      revert\n    tag_54:\n      pop\n      tag_55\n      0x04\n      dup1\n      calldatasize\n      sub\n      dup2\n      add\n      swap1\n      tag_56\n      swap2\n      swap1\n      tag_33\n      jump\t// in\n    tag_56:\n      tag_57\n      jump\t// in\n    tag_55:\n      mload(0x40)\n      tag_58\n      swap2\n      swap1\n      tag_36\n      jump\t// in\n    tag_58:\n      mload(0x40)\n      dup1\n      swap2\n      sub\n      swap1\n      return\n        /* \"contracts/7_streaming.sol\":622:649  uint256 public totalStreams */\n    tag_12:\n      callvalue\n      dup1\n      iszero\n      tag_59\n      jumpi\n      0x00\n      dup1\n      revert\n    tag_59:\n      pop\n      tag_60\n      tag_61\n      jump\t// in\n    tag_60:\n      mload(0x40)\n      tag_62\n      swap2\n      swap1\n      tag_36\n      jump\t// in\n    tag_62:\n      mload(0x40)\n      dup1\n      swap2\n      sub\n      swap1\n      return\n        /* \"contracts/7_streaming.sol\":1883:2171  function streamSong(uint256 _songId) public {... */\n    tag_18:\n        /* \"contracts/7_streaming.sol\":1978:1993  block.timestamp */\n      timestamp\n        /* \"contracts/7_streaming.sol\":1945:1962  userSubscriptions */\n      0x03\n        /* \"contracts/7_streaming.sol\":1945:1974  userSubscriptions[msg.sender] */\n      0x00\n        /* \"contracts/7_streaming.sol\":1963:1973  msg.sender */\n      caller\n        /* \"contracts/7_streaming.sol\":1945:1974  userSubscriptions[msg.sender] */\n      0xffffffffffffffffffffffffffffffffffffffff\n      and\n      0xffffffffffffffffffffffffffffffffffffffff\n      and\n      dup2\n      mstore\n      0x20\n      add\n      swap1\n      dup2\n      mstore\n      0x20\n      add\n      0x00\n      keccak256\n      sload\n        /* \"contracts/7_streaming.sol\":1945:1993  userSubscriptions[msg.sender] >= block.timestamp */\n      lt\n      iszero\n        /* \"contracts/7_streaming.sol\":1937:2018  require(userSubscriptions[msg.sender] >= block.timestamp, \"Subscription expired\") */\n      tag_64\n      jumpi\n      mload(0x40)\n      0x08c379a000000000000000000000000000000000000000000000000000000000\n      dup2\n      mstore\n      0x04\n      add\n      tag_65\n      swap1\n      tag_66\n      jump\t// in\n    tag_65:\n      mload(0x40)\n      dup1\n      swap2\n      sub\n      swap1\n      revert\n    tag_64:\n        /* \"contracts/7_streaming.sol\":2029:2046  Song storage song */\n      0x00\n        /* \"contracts/7_streaming.sol\":2049:2054  songs */\n      0x01\n        /* \"contracts/7_streaming.sol\":2049:2063  songs[_songId] */\n      0x00\n        /* \"contracts/7_streaming.sol\":2055:2062  _songId */\n      dup4\n        /* \"contracts/7_streaming.sol\":2049:2063  songs[_songId] */\n      dup2\n      mstore\n      0x20\n      add\n      swap1\n      dup2\n      mstore\n      0x20\n      add\n      0x00\n      keccak256\n        /* \"contracts/7_streaming.sol\":2029:2063  Song storage song = songs[_songId] */\n      swap1\n      pop\n        /* \"contracts/7_streaming.sol\":2073:2077  song */\n      dup1\n        /* \"contracts/7_streaming.sol\":2073:2089  song.streamCount */\n      0x05\n      add\n      0x00\n        /* \"contracts/7_streaming.sol\":2073:2091  song.streamCount++ */\n      dup2\n      sload\n      dup1\n      swap3\n      swap2\n      swap1\n      tag_67\n      swap1\n      tag_68\n      jump\t// in\n    tag_67:\n      swap2\n      swap1\n      pop\n      sstore\n      pop\n        /* \"contracts/7_streaming.sol\":2101:2113  totalStreams */\n      0x06\n      0x00\n        /* \"contracts/7_streaming.sol\":2101:2115  totalStreams++ */\n      dup2\n      sload\n      dup1\n      swap3\n      swap2\n      swap1\n      tag_69\n      swap1\n      tag_68\n      jump\t// in\n    tag_69:\n      swap2\n      swap1\n      pop\n      sstore\n      pop\n        /* \"contracts/7_streaming.sol\":2131:2164  SongStreamed(_songId, msg.sender) */\n      0xf8263f8deb4160b94a6e41f6a018f07ebdffad90884cdf4e5dc20efdb52746e4\n        /* \"contracts/7_streaming.sol\":2144:2151  _songId */\n      dup3\n        /* \"contracts/7_streaming.sol\":2153:2163  msg.sender */\n      caller\n        /* \"contracts/7_streaming.sol\":2131:2164  SongStreamed(_songId, msg.sender) */\n      mload(0x40)\n      tag_70\n      swap3\n      swap2\n      swap1\n      tag_71\n      jump\t// in\n    tag_70:\n      mload(0x40)\n      dup1\n      swap2\n      sub\n      swap1\n      log1\n        /* \"contracts/7_streaming.sol\":1927:2171  {... */\n      pop\n        /* \"contracts/7_streaming.sol\":1883:2171  function streamSong(uint256 _songId) public {... */\n      pop\n      jump\t// out\n        /* \"contracts/7_streaming.sol\":888:1460  function uploadSong(string memory _title, string memory _artistName, string memory _ipfsHash) public {... */\n    tag_23:\n        /* \"contracts/7_streaming.sol\":1030:1031  0 */\n      0x00\n        /* \"contracts/7_streaming.sol\":1013:1019  _title */\n      dup4\n        /* \"contracts/7_streaming.sol\":1007:1027  bytes(_title).length */\n      mload\n        /* \"contracts/7_streaming.sol\":1007:1031  bytes(_title).length > 0 */\n      gt\n        /* \"contracts/7_streaming.sol\":999:1057  require(bytes(_title).length > 0, \"Title cannot be empty\") */\n      tag_73\n      jumpi\n      mload(0x40)\n      0x08c379a000000000000000000000000000000000000000000000000000000000\n      dup2\n      mstore\n      0x04\n      add\n      tag_74\n      swap1\n      tag_75\n      jump\t// in\n    tag_74:\n      mload(0x40)\n      dup1\n      swap2\n      sub\n      swap1\n      revert\n    tag_73:\n        /* \"contracts/7_streaming.sol\":1101:1102  0 */\n      0x00\n        /* \"contracts/7_streaming.sol\":1081:1090  _ipfsHash */\n      dup2\n        /* \"contracts/7_streaming.sol\":1075:1098  bytes(_ipfsHash).length */\n      mload\n        /* \"contracts/7_streaming.sol\":1075:1102  bytes(_ipfsHash).length > 0 */\n      gt\n        /* \"contracts/7_streaming.sol\":1067:1132  require(bytes(_ipfsHash).length > 0, \"IPFS hash cannot be empty\") */\n      tag_76\n      jumpi\n      mload(0x40)\n      0x08c379a000000000000000000000000000000000000000000000000000000000\n      dup2\n      mstore\n      0x04\n      add\n      tag_77\n      swap1\n      tag_78\n      jump\t// in\n    tag_77:\n      mload(0x40)\n      dup1\n      swap2\n      sub\n      swap1\n      revert\n    tag_76:\n        /* \"contracts/7_streaming.sol\":1143:1152  songCount */\n      0x00\n      dup1\n        /* \"contracts/7_streaming.sol\":1143:1154  songCount++ */\n      dup2\n      sload\n      dup1\n      swap3\n      swap2\n      swap1\n      tag_79\n      swap1\n      tag_68\n      jump\t// in\n    tag_79:\n      swap2\n      swap1\n      pop\n      sstore\n      pop\n        /* \"contracts/7_streaming.sol\":1183:1383  Song({... */\n      mload(0x40)\n      dup1\n      0xc0\n      add\n      0x40\n      mstore\n      dup1\n        /* \"contracts/7_streaming.sol\":1206:1215  songCount */\n      sload(0x00)\n        /* \"contracts/7_streaming.sol\":1183:1383  Song({... */\n      dup2\n      mstore\n      0x20\n      add\n        /* \"contracts/7_streaming.sol\":1237:1247  msg.sender */\n      caller\n        /* \"contracts/7_streaming.sol\":1183:1383  Song({... */\n      0xffffffffffffffffffffffffffffffffffffffff\n      and\n      dup2\n      mstore\n      0x20\n      add\n        /* \"contracts/7_streaming.sol\":1268:1274  _title */\n      dup5\n        /* \"contracts/7_streaming.sol\":1183:1383  Song({... */\n      dup2\n      mstore\n      0x20\n      add\n        /* \"contracts/7_streaming.sol\":1300:1311  _artistName */\n      dup4\n        /* \"contracts/7_streaming.sol\":1183:1383  Song({... */\n      dup2\n      mstore\n      0x20\n      add\n        /* \"contracts/7_streaming.sol\":1335:1344  _ipfsHash */\n      dup3\n        /* \"contracts/7_streaming.sol\":1183:1383  Song({... */\n      dup2\n      mstore\n      0x20\n      add\n        /* \"contracts/7_streaming.sol\":1371:1372  0 */\n      0x00\n        /* \"contracts/7_streaming.sol\":1183:1383  Song({... */\n      dup2\n      mstore\n      pop\n        /* \"contracts/7_streaming.sol\":1164:1169  songs */\n      0x01\n        /* \"contracts/7_streaming.sol\":1164:1180  songs[songCount] */\n      0x00\n        /* \"contracts/7_streaming.sol\":1170:1179  songCount */\n      dup1\n      sload\n        /* \"contracts/7_streaming.sol\":1164:1180  songs[songCount] */\n      dup2\n      mstore\n      0x20\n      add\n      swap1\n      dup2\n      mstore\n      0x20\n      add\n      0x00\n      keccak256\n        /* \"contracts/7_streaming.sol\":1164:1383  songs[songCount] = Song({... */\n      0x00\n      dup3\n      add\n      mload\n      dup2\n      0x00\n      add\n      sstore\n      0x20\n      dup3\n      add\n      mload\n      dup2\n      0x01\n      add\n      exp(0x0100, 0x00)\n      dup2\n      sload\n      dup2\n      0xffffffffffffffffffffffffffffffffffffffff\n      mul\n      not\n      and\n      swap1\n      dup4\n      0xffffffffffffffffffffffffffffffffffffffff\n      and\n      mul\n      or\n      swap1\n      sstore\n      pop\n      0x40\n      dup3\n      add\n      mload\n      dup2\n      0x02\n      add\n      swap1\n      dup2\n      tag_80\n      swap2\n      swap1\n      tag_81\n      jump\t// in\n    tag_80:\n      pop\n      0x60\n      dup3\n      add\n      mload\n      dup2\n      0x03\n      add\n      swap1\n      dup2\n      tag_82\n      swap2\n      swap1\n      tag_81\n      jump\t// in\n    tag_82:\n      pop\n      0x80\n      dup3\n      add\n      mload\n      dup2\n      0x04\n      add\n      swap1\n      dup2\n      tag_83\n      swap2\n      swap1\n      tag_81\n      jump\t// in\n    tag_83:\n      pop\n      0xa0\n      dup3\n      add\n      mload\n      dup2\n      0x05\n      add\n      sstore\n      swap1\n      pop\n      pop\n        /* \"contracts/7_streaming.sol\":1399:1453  SongUploaded(songCount, msg.sender, _title, _ipfsHash) */\n      0xa15e76a608db68d9c75eef1f7d6055eecaaad4126ed6b33aa1002689ca3c8b4b\n        /* \"contracts/7_streaming.sol\":1412:1421  songCount */\n      sload(0x00)\n        /* \"contracts/7_streaming.sol\":1423:1433  msg.sender */\n      caller\n        /* \"contracts/7_streaming.sol\":1435:1441  _title */\n      dup6\n        /* \"contracts/7_streaming.sol\":1443:1452  _ipfsHash */\n      dup5\n        /* \"contracts/7_streaming.sol\":1399:1453  SongUploaded(songCount, msg.sender, _title, _ipfsHash) */\n      mload(0x40)\n      tag_84\n      swap5\n      swap4\n      swap3\n      swap2\n      swap1\n      tag_85\n      jump\t// in\n    tag_84:\n      mload(0x40)\n      dup1\n      swap2\n      sub\n      swap1\n      log1\n        /* \"contracts/7_streaming.sol\":888:1460  function uploadSong(string memory _title, string memory _artistName, string memory _ipfsHash) public {... */\n      pop\n      pop\n      pop\n      jump\t// out\n        /* \"contracts/7_streaming.sol\":321:358  mapping(uint256 => Song) public songs */\n    tag_27:\n      mstore(0x20, 0x01)\n      dup1\n      0x00\n      mstore\n      keccak256(0x00, 0x40)\n      0x00\n      swap2\n      pop\n      swap1\n      pop\n      dup1\n      0x00\n      add\n      sload\n      swap1\n      dup1\n      0x01\n      add\n      0x00\n      swap1\n      sload\n      swap1\n      0x0100\n      exp\n      swap1\n      div\n      0xffffffffffffffffffffffffffffffffffffffff\n      and\n      swap1\n      dup1\n      0x02\n      add\n      dup1\n      sload\n      tag_86\n      swap1\n      tag_87\n      jump\t// in\n    tag_86:\n      dup1\n      0x1f\n      add\n      0x20\n      dup1\n      swap2\n      div\n      mul\n      0x20\n      add\n      mload(0x40)\n      swap1\n      dup2\n      add\n      0x40\n      mstore\n      dup1\n      swap3\n      swap2\n      swap1\n      dup2\n      dup2\n      mstore\n      0x20\n      add\n      dup3\n      dup1\n      sload\n      tag_88\n      swap1\n      tag_87\n      jump\t// in\n    tag_88:\n      dup1\n      iszero\n      tag_89\n      jumpi\n      dup1\n      0x1f\n      lt\n      tag_90\n      jumpi\n      0x0100\n      dup1\n      dup4\n      sload\n      div\n      mul\n      dup4\n      mstore\n      swap2\n      0x20\n      add\n      swap2\n      jump(tag_89)\n    tag_90:\n      dup3\n      add\n      swap2\n      swap1\n      0x00\n      mstore\n      keccak256(0x00, 0x20)\n      swap1\n    tag_91:\n      dup2\n      sload\n      dup2\n      mstore\n      swap1\n      0x01\n      add\n      swap1\n      0x20\n      add\n      dup1\n      dup4\n      gt\n      tag_91\n      jumpi\n      dup3\n      swap1\n      sub\n      0x1f\n      and\n      dup3\n      add\n      swap2\n    tag_89:\n      pop\n      pop\n      pop\n      pop\n      pop\n      swap1\n      dup1\n      0x03\n      add\n      dup1\n      sload\n      tag_92\n      swap1\n      tag_87\n      jump\t// in\n    tag_92:\n      dup1\n      0x1f\n      add\n      0x20\n      dup1\n      swap2\n      div\n      mul\n      0x20\n      add\n      mload(0x40)\n      swap1\n      dup2\n      add\n      0x40\n      mstore\n      dup1\n      swap3\n      swap2\n      swap1\n      dup2\n      dup2\n      mstore\n      0x20\n      add\n      dup3\n      dup1\n      sload\n      tag_93\n      swap1\n      tag_87\n      jump\t// in\n    tag_93:\n      dup1\n      iszero\n      tag_94\n      jumpi\n      dup1\n      0x1f\n      lt\n      tag_95\n      jumpi\n      0x0100\n      dup1\n      dup4\n      sload\n      div\n      mul\n      dup4\n      mstore\n      swap2\n      0x20\n      add\n      swap2\n      jump(tag_94)\n    tag_95:\n      dup3\n      add\n      swap2\n      swap1\n      0x00\n      mstore\n      keccak256(0x00, 0x20)\n      swap1\n    tag_96:\n      dup2\n      sload\n      dup2\n      mstore\n      swap1\n      0x01\n      add\n      swap1\n      0x20\n      add\n      dup1\n      dup4\n      gt\n      tag_96\n      jumpi\n      dup3\n      swap1\n      sub\n      0x1f\n      and\n      dup3\n      add\n      swap2\n    tag_94:\n      pop\n      pop\n      pop\n      pop\n      pop\n      swap1\n      dup1\n      0x04\n      add\n      dup1\n      sload\n      tag_97\n      swap1\n      tag_87\n      jump\t// in\n    tag_97:\n      dup1\n      0x1f\n      add\n      0x20\n      dup1\n      swap2\n      div\n      mul\n      0x20\n      add\n      mload(0x40)\n      swap1\n      dup2\n      add\n      0x40\n      mstore\n      dup1\n      swap3\n      swap2\n      swap1\n      dup2\n      dup2\n      mstore\n      0x20\n      add\n      dup3\n      dup1\n      sload\n      tag_98\n      swap1\n      tag_87\n      jump\t// in\n    tag_98:\n      dup1\n      iszero\n      tag_99\n      jumpi\n      dup1\n      0x1f\n      lt\n      tag_100\n      jumpi\n      0x0100\n      dup1\n      dup4\n      sload\n      div\n      mul\n      dup4\n      mstore\n      swap2\n      0x20\n      add\n      swap2\n      jump(tag_99)\n    tag_100:\n      dup3\n      add\n      swap2\n      swap1\n      0x00\n      mstore\n      keccak256(0x00, 0x20)\n      swap1\n    tag_101:\n      dup2\n      sload\n      dup2\n      mstore\n      swap1\n      0x01\n      add\n      swap1\n      0x20\n      add\n      dup1\n      dup4\n      gt\n      tag_101\n      jumpi\n      dup3\n      swap1\n      sub\n      0x1f\n      and\n      dup3\n      add\n      swap2\n    tag_99:\n      pop\n      pop\n      pop\n      pop\n      pop\n      swap1\n      dup1\n      0x05\n      add\n      sload\n      swap1\n      pop\n      dup7\n      jump\t// out\n        /* \"contracts/7_streaming.sol\":364:413  mapping(address => uint256) public artistEarnings */\n    tag_34:\n      mstore(0x20, 0x02)\n      dup1\n      0x00\n      mstore\n      keccak256(0x00, 0x40)\n      0x00\n      swap2\n      pop\n      swap1\n      pop\n      sload\n      dup2\n      jump\t// out\n        /* \"contracts/7_streaming.sol\":1466:1877  function subscribe() public payable {... */\n    tag_38:\n        /* \"contracts/7_streaming.sol\":1533:1550  subscriptionPrice */\n      sload(0x04)\n        /* \"contracts/7_streaming.sol\":1520:1529  msg.value */\n      callvalue\n        /* \"contracts/7_streaming.sol\":1520:1550  msg.value >= subscriptionPrice */\n      lt\n      iszero\n        /* \"contracts/7_streaming.sol\":1512:1575  require(msg.value >= subscriptionPrice, \"Insufficient payment\") */\n      tag_103\n      jumpi\n      mload(0x40)\n      0x08c379a000000000000000000000000000000000000000000000000000000000\n      dup2\n      mstore\n      0x04\n      add\n      tag_104\n      swap1\n      tag_105\n      jump\t// in\n    tag_104:\n      mload(0x40)\n      dup1\n      swap2\n      sub\n      swap1\n      revert\n    tag_103:\n        /* \"contracts/7_streaming.sol\":1611:1628  userSubscriptions */\n      0x03\n        /* \"contracts/7_streaming.sol\":1611:1640  userSubscriptions[msg.sender] */\n      0x00\n        /* \"contracts/7_streaming.sol\":1629:1639  msg.sender */\n      caller\n        /* \"contracts/7_streaming.sol\":1611:1640  userSubscriptions[msg.sender] */\n      0xffffffffffffffffffffffffffffffffffffffff\n      and\n      0xffffffffffffffffffffffffffffffffffffffff\n      and\n      dup2\n      mstore\n      0x20\n      add\n      swap1\n      dup2\n      mstore\n      0x20\n      add\n      0x00\n      keccak256\n      sload\n        /* \"contracts/7_streaming.sol\":1593:1608  block.timestamp */\n      timestamp\n        /* \"contracts/7_streaming.sol\":1593:1640  block.timestamp > userSubscriptions[msg.sender] */\n      gt\n        /* \"contracts/7_streaming.sol\":1585:1670  require(block.timestamp > userSubscriptions[msg.sender], \"Subscription still active\") */\n      tag_106\n      jumpi\n      mload(0x40)\n      0x08c379a000000000000000000000000000000000000000000000000000000000\n      dup2\n      mstore\n      0x04\n      add\n      tag_107\n      swap1\n      tag_108\n      jump\t// in\n    tag_107:\n      mload(0x40)\n      dup1\n      swap2\n      sub\n      swap1\n      revert\n    tag_106:\n        /* \"contracts/7_streaming.sol\":1731:1738  30 days */\n      0x278d00\n        /* \"contracts/7_streaming.sol\":1713:1728  block.timestamp */\n      timestamp\n        /* \"contracts/7_streaming.sol\":1713:1738  block.timestamp + 30 days */\n      tag_109\n      swap2\n      swap1\n      tag_110\n      jump\t// in\n    tag_109:\n        /* \"contracts/7_streaming.sol\":1681:1698  userSubscriptions */\n      0x03\n        /* \"contracts/7_streaming.sol\":1681:1710  userSubscriptions[msg.sender] */\n      0x00\n        /* \"contracts/7_streaming.sol\":1699:1709  msg.sender */\n      caller\n        /* \"contracts/7_streaming.sol\":1681:1710  userSubscriptions[msg.sender] */\n      0xffffffffffffffffffffffffffffffffffffffff\n      and\n      0xffffffffffffffffffffffffffffffffffffffff\n      and\n      dup2\n      mstore\n      0x20\n      add\n      swap1\n      dup2\n      mstore\n      0x20\n      add\n      0x00\n      keccak256\n        /* \"contracts/7_streaming.sol\":1681:1738  userSubscriptions[msg.sender] = block.timestamp + 30 days */\n      dup2\n      swap1\n      sstore\n      pop\n        /* \"contracts/7_streaming.sol\":1788:1797  msg.value */\n      callvalue\n        /* \"contracts/7_streaming.sol\":1772:1784  totalRevenue */\n      0x05\n      0x00\n        /* \"contracts/7_streaming.sol\":1772:1797  totalRevenue += msg.value */\n      dup3\n      dup3\n      sload\n      tag_111\n      swap2\n      swap1\n      tag_110\n      jump\t// in\n    tag_111:\n      swap3\n      pop\n      pop\n      dup2\n      swap1\n      sstore\n      pop\n        /* \"contracts/7_streaming.sol\":1813:1870  UserSubscribed(msg.sender, userSubscriptions[msg.sender]) */\n      0x12a9d58ffb04d701ab6af4284b5499dc95596e7bf6294a0970828baa2700545d\n        /* \"contracts/7_streaming.sol\":1828:1838  msg.sender */\n      caller\n        /* \"contracts/7_streaming.sol\":1840:1857  userSubscriptions */\n      0x03\n        /* \"contracts/7_streaming.sol\":1840:1869  userSubscriptions[msg.sender] */\n      0x00\n        /* \"contracts/7_streaming.sol\":1858:1868  msg.sender */\n      caller\n        /* \"contracts/7_streaming.sol\":1840:1869  userSubscriptions[msg.sender] */\n      0xffffffffffffffffffffffffffffffffffffffff\n      and\n      0xffffffffffffffffffffffffffffffffffffffff\n      and\n      dup2\n      mstore\n      0x20\n      add\n      swap1\n      dup2\n      mstore\n      0x20\n      add\n      0x00\n      keccak256\n      sload\n        /* \"contracts/7_streaming.sol\":1813:1870  UserSubscribed(msg.sender, userSubscriptions[msg.sender]) */\n      mload(0x40)\n      tag_112\n      swap3\n      swap2\n      swap1\n      tag_113\n      jump\t// in\n    tag_112:\n      mload(0x40)\n      dup1\n      swap2\n      sub\n      swap1\n      log1\n        /* \"contracts/7_streaming.sol\":1466:1877  function subscribe() public payable {... */\n      jump\t// out\n        /* \"contracts/7_streaming.sol\":291:315  uint256 public songCount */\n    tag_41:\n      sload(0x00)\n      dup2\n      jump\t// out\n        /* \"contracts/7_streaming.sol\":2177:2453  function withdrawEarnings() public {... */\n    tag_45:\n        /* \"contracts/7_streaming.sol\":2222:2238  uint256 earnings */\n      0x00\n        /* \"contracts/7_streaming.sol\":2287:2299  totalStreams */\n      sload(0x06)\n        /* \"contracts/7_streaming.sol\":2271:2283  totalRevenue */\n      sload(0x05)\n        /* \"contracts/7_streaming.sol\":2242:2256  artistEarnings */\n      0x02\n        /* \"contracts/7_streaming.sol\":2242:2268  artistEarnings[msg.sender] */\n      0x00\n        /* \"contracts/7_streaming.sol\":2257:2267  msg.sender */\n      caller\n        /* \"contracts/7_streaming.sol\":2242:2268  artistEarnings[msg.sender] */\n      0xffffffffffffffffffffffffffffffffffffffff\n      and\n      0xffffffffffffffffffffffffffffffffffffffff\n      and\n      dup2\n      mstore\n      0x20\n      add\n      swap1\n      dup2\n      mstore\n      0x20\n      add\n      0x00\n      keccak256\n      sload\n        /* \"contracts/7_streaming.sol\":2242:2283  artistEarnings[msg.sender] * totalRevenue */\n      tag_115\n      swap2\n      swap1\n      tag_116\n      jump\t// in\n    tag_115:\n        /* \"contracts/7_streaming.sol\":2241:2299  (artistEarnings[msg.sender] * totalRevenue) / totalStreams */\n      tag_117\n      swap2\n      swap1\n      tag_118\n      jump\t// in\n    tag_117:\n        /* \"contracts/7_streaming.sol\":2222:2299  uint256 earnings = (artistEarnings[msg.sender] * totalRevenue) / totalStreams */\n      swap1\n      pop\n        /* \"contracts/7_streaming.sol\":2328:2329  0 */\n      0x00\n        /* \"contracts/7_streaming.sol\":2317:2325  earnings */\n      dup2\n        /* \"contracts/7_streaming.sol\":2317:2329  earnings > 0 */\n      gt\n        /* \"contracts/7_streaming.sol\":2309:2357  require(earnings > 0, \"No earnings to withdraw\") */\n      tag_119\n      jumpi\n      mload(0x40)\n      0x08c379a000000000000000000000000000000000000000000000000000000000\n      dup2\n      mstore\n      0x04\n      add\n      tag_120\n      swap1\n      tag_121\n      jump\t// in\n    tag_120:\n      mload(0x40)\n      dup1\n      swap2\n      sub\n      swap1\n      revert\n    tag_119:\n        /* \"contracts/7_streaming.sol\":2397:2398  0 */\n      0x00\n        /* \"contracts/7_streaming.sol\":2368:2382  artistEarnings */\n      0x02\n        /* \"contracts/7_streaming.sol\":2368:2394  artistEarnings[msg.sender] */\n      0x00\n        /* \"contracts/7_streaming.sol\":2383:2393  msg.sender */\n      caller\n        /* \"contracts/7_streaming.sol\":2368:2394  artistEarnings[msg.sender] */\n      0xffffffffffffffffffffffffffffffffffffffff\n      and\n      0xffffffffffffffffffffffffffffffffffffffff\n      and\n      dup2\n      mstore\n      0x20\n      add\n      swap1\n      dup2\n      mstore\n      0x20\n      add\n      0x00\n      keccak256\n        /* \"contracts/7_streaming.sol\":2368:2398  artistEarnings[msg.sender] = 0 */\n      dup2\n      swap1\n      sstore\n      pop\n        /* \"contracts/7_streaming.sol\":2416:2426  msg.sender */\n      caller\n        /* \"contracts/7_streaming.sol\":2408:2436  payable(msg.sender).transfer */\n      0xffffffffffffffffffffffffffffffffffffffff\n      and\n        /* \"contracts/7_streaming.sol\":2408:2446  payable(msg.sender).transfer(earnings) */\n      0x08fc\n        /* \"contracts/7_streaming.sol\":2437:2445  earnings */\n      dup3\n        /* \"contracts/7_streaming.sol\":2408:2446  payable(msg.sender).transfer(earnings) */\n      swap1\n      dup2\n      iszero\n      mul\n      swap1\n      mload(0x40)\n      0x00\n      mload(0x40)\n      dup1\n      dup4\n      sub\n      dup2\n      dup6\n      dup9\n      dup9\n      call\n      swap4\n      pop\n      pop\n      pop\n      pop\n      iszero\n      dup1\n      iszero\n      tag_123\n      jumpi\n      returndatasize\n      0x00\n      dup1\n      returndatacopy\n      revert(0x00, returndatasize)\n    tag_123:\n      pop\n        /* \"contracts/7_streaming.sol\":2212:2453  {... */\n      pop\n        /* \"contracts/7_streaming.sol\":2177:2453  function withdrawEarnings() public {... */\n      jump\t// out\n        /* \"contracts/7_streaming.sol\":478:523  uint256 public subscriptionPrice = 0.01 ether */\n    tag_48:\n      sload(0x04)\n      dup2\n      jump\t// out\n        /* \"contracts/7_streaming.sol\":559:586  uint256 public totalRevenue */\n    tag_52:\n      sload(0x05)\n      dup2\n      jump\t// out\n        /* \"contracts/7_streaming.sol\":419:471  mapping(address => uint256) public userSubscriptions */\n    tag_57:\n      mstore(0x20, 0x03)\n      dup1\n      0x00\n      mstore\n      keccak256(0x00, 0x40)\n      0x00\n      swap2\n      pop\n      swap1\n      pop\n      sload\n      dup2\n      jump\t// out\n        /* \"contracts/7_streaming.sol\":622:649  uint256 public totalStreams */\n    tag_61:\n      sload(0x06)\n      dup2\n      jump\t// out\n        /* \"#utility.yul\":7:82   */\n    tag_124:\n        /* \"#utility.yul\":40:46   */\n      0x00\n        /* \"#utility.yul\":73:75   */\n      0x40\n        /* \"#utility.yul\":67:76   */\n      mload\n        /* \"#utility.yul\":57:76   */\n      swap1\n      pop\n        /* \"#utility.yul\":7:82   */\n      swap1\n      jump\t// out\n        /* \"#utility.yul\":88:205   */\n    tag_125:\n        /* \"#utility.yul\":197:198   */\n      0x00\n        /* \"#utility.yul\":194:195   */\n      dup1\n        /* \"#utility.yul\":187:199   */\n      revert\n        /* \"#utility.yul\":211:328   */\n    tag_126:\n        /* \"#utility.yul\":320:321   */\n      0x00\n        /* \"#utility.yul\":317:318   */\n      dup1\n        /* \"#utility.yul\":310:322   */\n      revert\n        /* \"#utility.yul\":334:411   */\n    tag_127:\n        /* \"#utility.yul\":371:378   */\n      0x00\n        /* \"#utility.yul\":400:405   */\n      dup2\n        /* \"#utility.yul\":389:405   */\n      swap1\n      pop\n        /* \"#utility.yul\":334:411   */\n      swap2\n      swap1\n      pop\n      jump\t// out\n        /* \"#utility.yul\":417:539   */\n    tag_128:\n        /* \"#utility.yul\":490:514   */\n      tag_186\n        /* \"#utility.yul\":508:513   */\n      dup2\n        /* \"#utility.yul\":490:514   */\n      tag_127\n      jump\t// in\n    tag_186:\n        /* \"#utility.yul\":483:488   */\n      dup2\n        /* \"#utility.yul\":480:515   */\n      eq\n        /* \"#utility.yul\":470:533   */\n      tag_187\n      jumpi\n        /* \"#utility.yul\":529:530   */\n      0x00\n        /* \"#utility.yul\":526:527   */\n      dup1\n        /* \"#utility.yul\":519:531   */\n      revert\n        /* \"#utility.yul\":470:533   */\n    tag_187:\n        /* \"#utility.yul\":417:539   */\n      pop\n      jump\t// out\n        /* \"#utility.yul\":545:684   */\n    tag_129:\n        /* \"#utility.yul\":591:596   */\n      0x00\n        /* \"#utility.yul\":629:635   */\n      dup2\n        /* \"#utility.yul\":616:636   */\n      calldataload\n        /* \"#utility.yul\":607:636   */\n      swap1\n      pop\n        /* \"#utility.yul\":645:678   */\n      tag_189\n        /* \"#utility.yul\":672:677   */\n      dup2\n        /* \"#utility.yul\":645:678   */\n      tag_128\n      jump\t// in\n    tag_189:\n        /* \"#utility.yul\":545:684   */\n      swap3\n      swap2\n      pop\n      pop\n      jump\t// out\n        /* \"#utility.yul\":690:1019   */\n    tag_17:\n        /* \"#utility.yul\":749:755   */\n      0x00\n        /* \"#utility.yul\":798:800   */\n      0x20\n        /* \"#utility.yul\":786:795   */\n      dup3\n        /* \"#utility.yul\":777:784   */\n      dup5\n        /* \"#utility.yul\":773:796   */\n      sub\n        /* \"#utility.yul\":769:801   */\n      slt\n        /* \"#utility.yul\":766:885   */\n      iszero\n      tag_191\n      jumpi\n        /* \"#utility.yul\":804:883   */\n      tag_192\n      tag_125\n      jump\t// in\n    tag_192:\n        /* \"#utility.yul\":766:885   */\n    tag_191:\n        /* \"#utility.yul\":924:925   */\n      0x00\n        /* \"#utility.yul\":949:1002   */\n      tag_193\n        /* \"#utility.yul\":994:1001   */\n      dup5\n        /* \"#utility.yul\":985:991   */\n      dup3\n        /* \"#utility.yul\":974:983   */\n      dup6\n        /* \"#utility.yul\":970:992   */\n      add\n        /* \"#utility.yul\":949:1002   */\n      tag_129\n      jump\t// in\n    tag_193:\n        /* \"#utility.yul\":939:1002   */\n      swap2\n      pop\n        /* \"#utility.yul\":895:1012   */\n      pop\n        /* \"#utility.yul\":690:1019   */\n      swap3\n      swap2\n      pop\n      pop\n      jump\t// out\n        /* \"#utility.yul\":1025:1142   */\n    tag_130:\n        /* \"#utility.yul\":1134:1135   */\n      0x00\n        /* \"#utility.yul\":1131:1132   */\n      dup1\n        /* \"#utility.yul\":1124:1136   */\n      revert\n        /* \"#utility.yul\":1148:1265   */\n    tag_131:\n        /* \"#utility.yul\":1257:1258   */\n      0x00\n        /* \"#utility.yul\":1254:1255   */\n      dup1\n        /* \"#utility.yul\":1247:1259   */\n      revert\n        /* \"#utility.yul\":1271:1373   */\n    tag_132:\n        /* \"#utility.yul\":1312:1318   */\n      0x00\n        /* \"#utility.yul\":1363:1365   */\n      0x1f\n        /* \"#utility.yul\":1359:1366   */\n      not\n        /* \"#utility.yul\":1354:1356   */\n      0x1f\n        /* \"#utility.yul\":1347:1352   */\n      dup4\n        /* \"#utility.yul\":1343:1357   */\n      add\n        /* \"#utility.yul\":1339:1367   */\n      and\n        /* \"#utility.yul\":1329:1367   */\n      swap1\n      pop\n        /* \"#utility.yul\":1271:1373   */\n      swap2\n      swap1\n      pop\n      jump\t// out\n        /* \"#utility.yul\":1379:1559   */\n    tag_133:\n        /* \"#utility.yul\":1427:1504   */\n      0x4e487b7100000000000000000000000000000000000000000000000000000000\n        /* \"#utility.yul\":1424:1425   */\n      0x00\n        /* \"#utility.yul\":1417:1505   */\n      mstore\n        /* \"#utility.yul\":1524:1528   */\n      0x41\n        /* \"#utility.yul\":1521:1522   */\n      0x04\n        /* \"#utility.yul\":1514:1529   */\n      mstore\n        /* \"#utility.yul\":1548:1552   */\n      0x24\n        /* \"#utility.yul\":1545:1546   */\n      0x00\n        /* \"#utility.yul\":1538:1553   */\n      revert\n        /* \"#utility.yul\":1565:1846   */\n    tag_134:\n        /* \"#utility.yul\":1648:1675   */\n      tag_199\n        /* \"#utility.yul\":1670:1674   */\n      dup3\n        /* \"#utility.yul\":1648:1675   */\n      tag_132\n      jump\t// in\n    tag_199:\n        /* \"#utility.yul\":1640:1646   */\n      dup2\n        /* \"#utility.yul\":1636:1676   */\n      add\n        /* \"#utility.yul\":1778:1784   */\n      dup2\n        /* \"#utility.yul\":1766:1776   */\n      dup2\n        /* \"#utility.yul\":1763:1785   */\n      lt\n        /* \"#utility.yul\":1742:1760   */\n      0xffffffffffffffff\n        /* \"#utility.yul\":1730:1740   */\n      dup3\n        /* \"#utility.yul\":1727:1761   */\n      gt\n        /* \"#utility.yul\":1724:1786   */\n      or\n        /* \"#utility.yul\":1721:1809   */\n      iszero\n      tag_200\n      jumpi\n        /* \"#utility.yul\":1789:1807   */\n      tag_201\n      tag_133\n      jump\t// in\n    tag_201:\n        /* \"#utility.yul\":1721:1809   */\n    tag_200:\n        /* \"#utility.yul\":1829:1839   */\n      dup1\n        /* \"#utility.yul\":1825:1827   */\n      0x40\n        /* \"#utility.yul\":1818:1840   */\n      mstore\n        /* \"#utility.yul\":1608:1846   */\n      pop\n        /* \"#utility.yul\":1565:1846   */\n      pop\n      pop\n      jump\t// out\n        /* \"#utility.yul\":1852:1981   */\n    tag_135:\n        /* \"#utility.yul\":1886:1892   */\n      0x00\n        /* \"#utility.yul\":1913:1933   */\n      tag_203\n      tag_124\n      jump\t// in\n    tag_203:\n        /* \"#utility.yul\":1903:1933   */\n      swap1\n      pop\n        /* \"#utility.yul\":1942:1975   */\n      tag_204\n        /* \"#utility.yul\":1970:1974   */\n      dup3\n        /* \"#utility.yul\":1962:1968   */\n      dup3\n        /* \"#utility.yul\":1942:1975   */\n      tag_134\n      jump\t// in\n    tag_204:\n        /* \"#utility.yul\":1852:1981   */\n      swap2\n      swap1\n      pop\n      jump\t// out\n        /* \"#utility.yul\":1987:2295   */\n    tag_136:\n        /* \"#utility.yul\":2049:2053   */\n      0x00\n        /* \"#utility.yul\":2139:2157   */\n      0xffffffffffffffff\n        /* \"#utility.yul\":2131:2137   */\n      dup3\n        /* \"#utility.yul\":2128:2158   */\n      gt\n        /* \"#utility.yul\":2125:2181   */\n      iszero\n      tag_206\n      jumpi\n        /* \"#utility.yul\":2161:2179   */\n      tag_207\n      tag_133\n      jump\t// in\n    tag_207:\n        /* \"#utility.yul\":2125:2181   */\n    tag_206:\n        /* \"#utility.yul\":2199:2228   */\n      tag_208\n        /* \"#utility.yul\":2221:2227   */\n      dup3\n        /* \"#utility.yul\":2199:2228   */\n      tag_132\n      jump\t// in\n    tag_208:\n        /* \"#utility.yul\":2191:2228   */\n      swap1\n      pop\n        /* \"#utility.yul\":2283:2287   */\n      0x20\n        /* \"#utility.yul\":2277:2281   */\n      dup2\n        /* \"#utility.yul\":2273:2288   */\n      add\n        /* \"#utility.yul\":2265:2288   */\n      swap1\n      pop\n        /* \"#utility.yul\":1987:2295   */\n      swap2\n      swap1\n      pop\n      jump\t// out\n        /* \"#utility.yul\":2301:2449   */\n    tag_137:\n        /* \"#utility.yul\":2399:2405   */\n      dup3\n        /* \"#utility.yul\":2394:2397   */\n      dup2\n        /* \"#utility.yul\":2389:2392   */\n      dup4\n        /* \"#utility.yul\":2376:2406   */\n      calldatacopy\n        /* \"#utility.yul\":2440:2441   */\n      0x00\n        /* \"#utility.yul\":2431:2437   */\n      dup4\n        /* \"#utility.yul\":2426:2429   */\n      dup4\n        /* \"#utility.yul\":2422:2438   */\n      add\n        /* \"#utility.yul\":2415:2442   */\n      mstore\n        /* \"#utility.yul\":2301:2449   */\n      pop\n      pop\n      pop\n      jump\t// out\n        /* \"#utility.yul\":2455:2880   */\n    tag_138:\n        /* \"#utility.yul\":2533:2538   */\n      0x00\n        /* \"#utility.yul\":2558:2624   */\n      tag_211\n        /* \"#utility.yul\":2574:2623   */\n      tag_212\n        /* \"#utility.yul\":2616:2622   */\n      dup5\n        /* \"#utility.yul\":2574:2623   */\n      tag_136\n      jump\t// in\n    tag_212:\n        /* \"#utility.yul\":2558:2624   */\n      tag_135\n      jump\t// in\n    tag_211:\n        /* \"#utility.yul\":2549:2624   */\n      swap1\n      pop\n        /* \"#utility.yul\":2647:2653   */\n      dup3\n        /* \"#utility.yul\":2640:2645   */\n      dup2\n        /* \"#utility.yul\":2633:2654   */\n      mstore\n        /* \"#utility.yul\":2685:2689   */\n      0x20\n        /* \"#utility.yul\":2678:2683   */\n      dup2\n        /* \"#utility.yul\":2674:2690   */\n      add\n        /* \"#utility.yul\":2723:2726   */\n      dup5\n        /* \"#utility.yul\":2714:2720   */\n      dup5\n        /* \"#utility.yul\":2709:2712   */\n      dup5\n        /* \"#utility.yul\":2705:2721   */\n      add\n        /* \"#utility.yul\":2702:2727   */\n      gt\n        /* \"#utility.yul\":2699:2811   */\n      iszero\n      tag_213\n      jumpi\n        /* \"#utility.yul\":2730:2809   */\n      tag_214\n      tag_131\n      jump\t// in\n    tag_214:\n        /* \"#utility.yul\":2699:2811   */\n    tag_213:\n        /* \"#utility.yul\":2820:2874   */\n      tag_215\n        /* \"#utility.yul\":2867:2873   */\n      dup5\n        /* \"#utility.yul\":2862:2865   */\n      dup3\n        /* \"#utility.yul\":2857:2860   */\n      dup6\n        /* \"#utility.yul\":2820:2874   */\n      tag_137\n      jump\t// in\n    tag_215:\n        /* \"#utility.yul\":2539:2880   */\n      pop\n        /* \"#utility.yul\":2455:2880   */\n      swap4\n      swap3\n      pop\n      pop\n      pop\n      jump\t// out\n        /* \"#utility.yul\":2900:3240   */\n    tag_139:\n        /* \"#utility.yul\":2956:2961   */\n      0x00\n        /* \"#utility.yul\":3005:3008   */\n      dup3\n        /* \"#utility.yul\":2998:3002   */\n      0x1f\n        /* \"#utility.yul\":2990:2996   */\n      dup4\n        /* \"#utility.yul\":2986:3003   */\n      add\n        /* \"#utility.yul\":2982:3009   */\n      slt\n        /* \"#utility.yul\":2972:3094   */\n      tag_217\n      jumpi\n        /* \"#utility.yul\":3013:3092   */\n      tag_218\n      tag_130\n      jump\t// in\n    tag_218:\n        /* \"#utility.yul\":2972:3094   */\n    tag_217:\n        /* \"#utility.yul\":3130:3136   */\n      dup2\n        /* \"#utility.yul\":3117:3137   */\n      calldataload\n        /* \"#utility.yul\":3155:3234   */\n      tag_219\n        /* \"#utility.yul\":3230:3233   */\n      dup5\n        /* \"#utility.yul\":3222:3228   */\n      dup3\n        /* \"#utility.yul\":3215:3219   */\n      0x20\n        /* \"#utility.yul\":3207:3213   */\n      dup7\n        /* \"#utility.yul\":3203:3220   */\n      add\n        /* \"#utility.yul\":3155:3234   */\n      tag_138\n      jump\t// in\n    tag_219:\n        /* \"#utility.yul\":3146:3234   */\n      swap2\n      pop\n        /* \"#utility.yul\":2962:3240   */\n      pop\n        /* \"#utility.yul\":2900:3240   */\n      swap3\n      swap2\n      pop\n      pop\n      jump\t// out\n        /* \"#utility.yul\":3246:4405   */\n    tag_22:\n        /* \"#utility.yul\":3353:3359   */\n      0x00\n        /* \"#utility.yul\":3361:3367   */\n      dup1\n        /* \"#utility.yul\":3369:3375   */\n      0x00\n        /* \"#utility.yul\":3418:3420   */\n      0x60\n        /* \"#utility.yul\":3406:3415   */\n      dup5\n        /* \"#utility.yul\":3397:3404   */\n      dup7\n        /* \"#utility.yul\":3393:3416   */\n      sub\n        /* \"#utility.yul\":3389:3421   */\n      slt\n        /* \"#utility.yul\":3386:3505   */\n      iszero\n      tag_221\n      jumpi\n        /* \"#utility.yul\":3424:3503   */\n      tag_222\n      tag_125\n      jump\t// in\n    tag_222:\n        /* \"#utility.yul\":3386:3505   */\n    tag_221:\n        /* \"#utility.yul\":3572:3573   */\n      0x00\n        /* \"#utility.yul\":3561:3570   */\n      dup5\n        /* \"#utility.yul\":3557:3574   */\n      add\n        /* \"#utility.yul\":3544:3575   */\n      calldataload\n        /* \"#utility.yul\":3602:3620   */\n      0xffffffffffffffff\n        /* \"#utility.yul\":3594:3600   */\n      dup2\n        /* \"#utility.yul\":3591:3621   */\n      gt\n        /* \"#utility.yul\":3588:3705   */\n      iszero\n      tag_223\n      jumpi\n        /* \"#utility.yul\":3624:3703   */\n      tag_224\n      tag_126\n      jump\t// in\n    tag_224:\n        /* \"#utility.yul\":3588:3705   */\n    tag_223:\n        /* \"#utility.yul\":3729:3792   */\n      tag_225\n        /* \"#utility.yul\":3784:3791   */\n      dup7\n        /* \"#utility.yul\":3775:3781   */\n      dup3\n        /* \"#utility.yul\":3764:3773   */\n      dup8\n        /* \"#utility.yul\":3760:3782   */\n      add\n        /* \"#utility.yul\":3729:3792   */\n      tag_139\n      jump\t// in\n    tag_225:\n        /* \"#utility.yul\":3719:3792   */\n      swap4\n      pop\n        /* \"#utility.yul\":3515:3802   */\n      pop\n        /* \"#utility.yul\":3869:3871   */\n      0x20\n        /* \"#utility.yul\":3858:3867   */\n      dup5\n        /* \"#utility.yul\":3854:3872   */\n      add\n        /* \"#utility.yul\":3841:3873   */\n      calldataload\n        /* \"#utility.yul\":3900:3918   */\n      0xffffffffffffffff\n        /* \"#utility.yul\":3892:3898   */\n      dup2\n        /* \"#utility.yul\":3889:3919   */\n      gt\n        /* \"#utility.yul\":3886:4003   */\n      iszero\n      tag_226\n      jumpi\n        /* \"#utility.yul\":3922:4001   */\n      tag_227\n      tag_126\n      jump\t// in\n    tag_227:\n        /* \"#utility.yul\":3886:4003   */\n    tag_226:\n        /* \"#utility.yul\":4027:4090   */\n      tag_228\n        /* \"#utility.yul\":4082:4089   */\n      dup7\n        /* \"#utility.yul\":4073:4079   */\n      dup3\n        /* \"#utility.yul\":4062:4071   */\n      dup8\n        /* \"#utility.yul\":4058:4080   */\n      add\n        /* \"#utility.yul\":4027:4090   */\n      tag_139\n      jump\t// in\n    tag_228:\n        /* \"#utility.yul\":4017:4090   */\n      swap3\n      pop\n        /* \"#utility.yul\":3812:4100   */\n      pop\n        /* \"#utility.yul\":4167:4169   */\n      0x40\n        /* \"#utility.yul\":4156:4165   */\n      dup5\n        /* \"#utility.yul\":4152:4170   */\n      add\n        /* \"#utility.yul\":4139:4171   */\n      calldataload\n        /* \"#utility.yul\":4198:4216   */\n      0xffffffffffffffff\n        /* \"#utility.yul\":4190:4196   */\n      dup2\n        /* \"#utility.yul\":4187:4217   */\n      gt\n        /* \"#utility.yul\":4184:4301   */\n      iszero\n      tag_229\n      jumpi\n        /* \"#utility.yul\":4220:4299   */\n      tag_230\n      tag_126\n      jump\t// in\n    tag_230:\n        /* \"#utility.yul\":4184:4301   */\n    tag_229:\n        /* \"#utility.yul\":4325:4388   */\n      tag_231\n        /* \"#utility.yul\":4380:4387   */\n      dup7\n        /* \"#utility.yul\":4371:4377   */\n      dup3\n        /* \"#utility.yul\":4360:4369   */\n      dup8\n        /* \"#utility.yul\":4356:4378   */\n      add\n        /* \"#utility.yul\":4325:4388   */\n      tag_139\n      jump\t// in\n    tag_231:\n        /* \"#utility.yul\":4315:4388   */\n      swap2\n      pop\n        /* \"#utility.yul\":4110:4398   */\n      pop\n        /* \"#utility.yul\":3246:4405   */\n      swap3\n      pop\n      swap3\n      pop\n      swap3\n      jump\t// out\n        /* \"#utility.yul\":4411:4529   */\n    tag_140:\n        /* \"#utility.yul\":4498:4522   */\n      tag_233\n        /* \"#utility.yul\":4516:4521   */\n      dup2\n        /* \"#utility.yul\":4498:4522   */\n      tag_127\n      jump\t// in\n    tag_233:\n        /* \"#utility.yul\":4493:4496   */\n      dup3\n        /* \"#utility.yul\":4486:4523   */\n      mstore\n        /* \"#utility.yul\":4411:4529   */\n      pop\n      pop\n      jump\t// out\n        /* \"#utility.yul\":4535:4661   */\n    tag_141:\n        /* \"#utility.yul\":4572:4579   */\n      0x00\n        /* \"#utility.yul\":4612:4654   */\n      0xffffffffffffffffffffffffffffffffffffffff\n        /* \"#utility.yul\":4605:4610   */\n      dup3\n        /* \"#utility.yul\":4601:4655   */\n      and\n        /* \"#utility.yul\":4590:4655   */\n      swap1\n      pop\n        /* \"#utility.yul\":4535:4661   */\n      swap2\n      swap1\n      pop\n      jump\t// out\n        /* \"#utility.yul\":4667:4763   */\n    tag_142:\n        /* \"#utility.yul\":4704:4711   */\n      0x00\n        /* \"#utility.yul\":4733:4757   */\n      tag_236\n        /* \"#utility.yul\":4751:4756   */\n      dup3\n        /* \"#utility.yul\":4733:4757   */\n      tag_141\n      jump\t// in\n    tag_236:\n        /* \"#utility.yul\":4722:4757   */\n      swap1\n      pop\n        /* \"#utility.yul\":4667:4763   */\n      swap2\n      swap1\n      pop\n      jump\t// out\n        /* \"#utility.yul\":4769:4887   */\n    tag_143:\n        /* \"#utility.yul\":4856:4880   */\n      tag_238\n        /* \"#utility.yul\":4874:4879   */\n      dup2\n        /* \"#utility.yul\":4856:4880   */\n      tag_142\n      jump\t// in\n    tag_238:\n        /* \"#utility.yul\":4851:4854   */\n      dup3\n        /* \"#utility.yul\":4844:4881   */\n      mstore\n        /* \"#utility.yul\":4769:4887   */\n      pop\n      pop\n      jump\t// out\n        /* \"#utility.yul\":4893:4992   */\n    tag_144:\n        /* \"#utility.yul\":4945:4951   */\n      0x00\n        /* \"#utility.yul\":4979:4984   */\n      dup2\n        /* \"#utility.yul\":4973:4985   */\n      mload\n        /* \"#utility.yul\":4963:4985   */\n      swap1\n      pop\n        /* \"#utility.yul\":4893:4992   */\n      swap2\n      swap1\n      pop\n      jump\t// out\n        /* \"#utility.yul\":4998:5167   */\n    tag_145:\n        /* \"#utility.yul\":5082:5093   */\n      0x00\n        /* \"#utility.yul\":5116:5122   */\n      dup3\n        /* \"#utility.yul\":5111:5114   */\n      dup3\n        /* \"#utility.yul\":5104:5123   */\n      mstore\n        /* \"#utility.yul\":5156:5160   */\n      0x20\n        /* \"#utility.yul\":5151:5154   */\n      dup3\n        /* \"#utility.yul\":5147:5161   */\n      add\n        /* \"#utility.yul\":5132:5161   */\n      swap1\n      pop\n        /* \"#utility.yul\":4998:5167   */\n      swap3\n      swap2\n      pop\n      pop\n      jump\t// out\n        /* \"#utility.yul\":5173:5312   */\n    tag_146:\n        /* \"#utility.yul\":5262:5268   */\n      dup3\n        /* \"#utility.yul\":5257:5260   */\n      dup2\n        /* \"#utility.yul\":5252:5255   */\n      dup4\n        /* \"#utility.yul\":5246:5269   */\n      mcopy\n        /* \"#utility.yul\":5303:5304   */\n      0x00\n        /* \"#utility.yul\":5294:5300   */\n      dup4\n        /* \"#utility.yul\":5289:5292   */\n      dup4\n        /* \"#utility.yul\":5285:5301   */\n      add\n        /* \"#utility.yul\":5278:5305   */\n      mstore\n        /* \"#utility.yul\":5173:5312   */\n      pop\n      pop\n      pop\n      jump\t// out\n        /* \"#utility.yul\":5318:5695   */\n    tag_147:\n        /* \"#utility.yul\":5406:5409   */\n      0x00\n        /* \"#utility.yul\":5434:5473   */\n      tag_243\n        /* \"#utility.yul\":5467:5472   */\n      dup3\n        /* \"#utility.yul\":5434:5473   */\n      tag_144\n      jump\t// in\n    tag_243:\n        /* \"#utility.yul\":5489:5560   */\n      tag_244\n        /* \"#utility.yul\":5553:5559   */\n      dup2\n        /* \"#utility.yul\":5548:5551   */\n      dup6\n        /* \"#utility.yul\":5489:5560   */\n      tag_145\n      jump\t// in\n    tag_244:\n        /* \"#utility.yul\":5482:5560   */\n      swap4\n      pop\n        /* \"#utility.yul\":5569:5634   */\n      tag_245\n        /* \"#utility.yul\":5627:5633   */\n      dup2\n        /* \"#utility.yul\":5622:5625   */\n      dup6\n        /* \"#utility.yul\":5615:5619   */\n      0x20\n        /* \"#utility.yul\":5608:5613   */\n      dup7\n        /* \"#utility.yul\":5604:5620   */\n      add\n        /* \"#utility.yul\":5569:5634   */\n      tag_146\n      jump\t// in\n    tag_245:\n        /* \"#utility.yul\":5659:5688   */\n      tag_246\n        /* \"#utility.yul\":5681:5687   */\n      dup2\n        /* \"#utility.yul\":5659:5688   */\n      tag_132\n      jump\t// in\n    tag_246:\n        /* \"#utility.yul\":5654:5657   */\n      dup5\n        /* \"#utility.yul\":5650:5689   */\n      add\n        /* \"#utility.yul\":5643:5689   */\n      swap2\n      pop\n        /* \"#utility.yul\":5410:5695   */\n      pop\n        /* \"#utility.yul\":5318:5695   */\n      swap3\n      swap2\n      pop\n      pop\n      jump\t// out\n        /* \"#utility.yul\":5701:6749   */\n    tag_29:\n        /* \"#utility.yul\":5994:5998   */\n      0x00\n        /* \"#utility.yul\":6032:6035   */\n      0xc0\n        /* \"#utility.yul\":6021:6030   */\n      dup3\n        /* \"#utility.yul\":6017:6036   */\n      add\n        /* \"#utility.yul\":6009:6036   */\n      swap1\n      pop\n        /* \"#utility.yul\":6046:6117   */\n      tag_248\n        /* \"#utility.yul\":6114:6115   */\n      0x00\n        /* \"#utility.yul\":6103:6112   */\n      dup4\n        /* \"#utility.yul\":6099:6116   */\n      add\n        /* \"#utility.yul\":6090:6096   */\n      dup10\n        /* \"#utility.yul\":6046:6117   */\n      tag_140\n      jump\t// in\n    tag_248:\n        /* \"#utility.yul\":6127:6199   */\n      tag_249\n        /* \"#utility.yul\":6195:6197   */\n      0x20\n        /* \"#utility.yul\":6184:6193   */\n      dup4\n        /* \"#utility.yul\":6180:6198   */\n      add\n        /* \"#utility.yul\":6171:6177   */\n      dup9\n        /* \"#utility.yul\":6127:6199   */\n      tag_143\n      jump\t// in\n    tag_249:\n        /* \"#utility.yul\":6246:6255   */\n      dup2\n        /* \"#utility.yul\":6240:6244   */\n      dup2\n        /* \"#utility.yul\":6236:6256   */\n      sub\n        /* \"#utility.yul\":6231:6233   */\n      0x40\n        /* \"#utility.yul\":6220:6229   */\n      dup4\n        /* \"#utility.yul\":6216:6234   */\n      add\n        /* \"#utility.yul\":6209:6257   */\n      mstore\n        /* \"#utility.yul\":6274:6352   */\n      tag_250\n        /* \"#utility.yul\":6347:6351   */\n      dup2\n        /* \"#utility.yul\":6338:6344   */\n      dup8\n        /* \"#utility.yul\":6274:6352   */\n      tag_147\n      jump\t// in\n    tag_250:\n        /* \"#utility.yul\":6266:6352   */\n      swap1\n      pop\n        /* \"#utility.yul\":6399:6408   */\n      dup2\n        /* \"#utility.yul\":6393:6397   */\n      dup2\n        /* \"#utility.yul\":6389:6409   */\n      sub\n        /* \"#utility.yul\":6384:6386   */\n      0x60\n        /* \"#utility.yul\":6373:6382   */\n      dup4\n        /* \"#utility.yul\":6369:6387   */\n      add\n        /* \"#utility.yul\":6362:6410   */\n      mstore\n        /* \"#utility.yul\":6427:6505   */\n      tag_251\n        /* \"#utility.yul\":6500:6504   */\n      dup2\n        /* \"#utility.yul\":6491:6497   */\n      dup7\n        /* \"#utility.yul\":6427:6505   */\n      tag_147\n      jump\t// in\n    tag_251:\n        /* \"#utility.yul\":6419:6505   */\n      swap1\n      pop\n        /* \"#utility.yul\":6553:6562   */\n      dup2\n        /* \"#utility.yul\":6547:6551   */\n      dup2\n        /* \"#utility.yul\":6543:6563   */\n      sub\n        /* \"#utility.yul\":6537:6540   */\n      0x80\n        /* \"#utility.yul\":6526:6535   */\n      dup4\n        /* \"#utility.yul\":6522:6541   */\n      add\n        /* \"#utility.yul\":6515:6564   */\n      mstore\n        /* \"#utility.yul\":6581:6659   */\n      tag_252\n        /* \"#utility.yul\":6654:6658   */\n      dup2\n        /* \"#utility.yul\":6645:6651   */\n      dup6\n        /* \"#utility.yul\":6581:6659   */\n      tag_147\n      jump\t// in\n    tag_252:\n        /* \"#utility.yul\":6573:6659   */\n      swap1\n      pop\n        /* \"#utility.yul\":6669:6742   */\n      tag_253\n        /* \"#utility.yul\":6737:6740   */\n      0xa0\n        /* \"#utility.yul\":6726:6735   */\n      dup4\n        /* \"#utility.yul\":6722:6741   */\n      add\n        /* \"#utility.yul\":6713:6719   */\n      dup5\n        /* \"#utility.yul\":6669:6742   */\n      tag_140\n      jump\t// in\n    tag_253:\n        /* \"#utility.yul\":5701:6749   */\n      swap8\n      swap7\n      pop\n      pop\n      pop\n      pop\n      pop\n      pop\n      pop\n      jump\t// out\n        /* \"#utility.yul\":6755:6877   */\n    tag_148:\n        /* \"#utility.yul\":6828:6852   */\n      tag_255\n        /* \"#utility.yul\":6846:6851   */\n      dup2\n        /* \"#utility.yul\":6828:6852   */\n      tag_142\n      jump\t// in\n    tag_255:\n        /* \"#utility.yul\":6821:6826   */\n      dup2\n        /* \"#utility.yul\":6818:6853   */\n      eq\n        /* \"#utility.yul\":6808:6871   */\n      tag_256\n      jumpi\n        /* \"#utility.yul\":6867:6868   */\n      0x00\n        /* \"#utility.yul\":6864:6865   */\n      dup1\n        /* \"#utility.yul\":6857:6869   */\n      revert\n        /* \"#utility.yul\":6808:6871   */\n    tag_256:\n        /* \"#utility.yul\":6755:6877   */\n      pop\n      jump\t// out\n        /* \"#utility.yul\":6883:7022   */\n    tag_149:\n        /* \"#utility.yul\":6929:6934   */\n      0x00\n        /* \"#utility.yul\":6967:6973   */\n      dup2\n        /* \"#utility.yul\":6954:6974   */\n      calldataload\n        /* \"#utility.yul\":6945:6974   */\n      swap1\n      pop\n        /* \"#utility.yul\":6983:7016   */\n      tag_258\n        /* \"#utility.yul\":7010:7015   */\n      dup2\n        /* \"#utility.yul\":6983:7016   */\n      tag_148\n      jump\t// in\n    tag_258:\n        /* \"#utility.yul\":6883:7022   */\n      swap3\n      swap2\n      pop\n      pop\n      jump\t// out\n        /* \"#utility.yul\":7028:7357   */\n    tag_33:\n        /* \"#utility.yul\":7087:7093   */\n      0x00\n        /* \"#utility.yul\":7136:7138   */\n      0x20\n        /* \"#utility.yul\":7124:7133   */\n      dup3\n        /* \"#utility.yul\":7115:7122   */\n      dup5\n        /* \"#utility.yul\":7111:7134   */\n      sub\n        /* \"#utility.yul\":7107:7139   */\n      slt\n        /* \"#utility.yul\":7104:7223   */\n      iszero\n      tag_260\n      jumpi\n        /* \"#utility.yul\":7142:7221   */\n      tag_261\n      tag_125\n      jump\t// in\n    tag_261:\n        /* \"#utility.yul\":7104:7223   */\n    tag_260:\n        /* \"#utility.yul\":7262:7263   */\n      0x00\n        /* \"#utility.yul\":7287:7340   */\n      tag_262\n        /* \"#utility.yul\":7332:7339   */\n      dup5\n        /* \"#utility.yul\":7323:7329   */\n      dup3\n        /* \"#utility.yul\":7312:7321   */\n      dup6\n        /* \"#utility.yul\":7308:7330   */\n      add\n        /* \"#utility.yul\":7287:7340   */\n      tag_149\n      jump\t// in\n    tag_262:\n        /* \"#utility.yul\":7277:7340   */\n      swap2\n      pop\n        /* \"#utility.yul\":7233:7350   */\n      pop\n        /* \"#utility.yul\":7028:7357   */\n      swap3\n      swap2\n      pop\n      pop\n      jump\t// out\n        /* \"#utility.yul\":7363:7585   */\n    tag_36:\n        /* \"#utility.yul\":7456:7460   */\n      0x00\n        /* \"#utility.yul\":7494:7496   */\n      0x20\n        /* \"#utility.yul\":7483:7492   */\n      dup3\n        /* \"#utility.yul\":7479:7497   */\n      add\n        /* \"#utility.yul\":7471:7497   */\n      swap1\n      pop\n        /* \"#utility.yul\":7507:7578   */\n      tag_264\n        /* \"#utility.yul\":7575:7576   */\n      0x00\n        /* \"#utility.yul\":7564:7573   */\n      dup4\n        /* \"#utility.yul\":7560:7577   */\n      add\n        /* \"#utility.yul\":7551:7557   */\n      dup5\n        /* \"#utility.yul\":7507:7578   */\n      tag_140\n      jump\t// in\n    tag_264:\n        /* \"#utility.yul\":7363:7585   */\n      swap3\n      swap2\n      pop\n      pop\n      jump\t// out\n        /* \"#utility.yul\":7591:7761   */\n    tag_150:\n        /* \"#utility.yul\":7731:7753   */\n      0x537562736372697074696f6e2065787069726564000000000000000000000000\n        /* \"#utility.yul\":7727:7728   */\n      0x00\n        /* \"#utility.yul\":7719:7725   */\n      dup3\n        /* \"#utility.yul\":7715:7729   */\n      add\n        /* \"#utility.yul\":7708:7754   */\n      mstore\n        /* \"#utility.yul\":7591:7761   */\n      pop\n      jump\t// out\n        /* \"#utility.yul\":7767:8133   */\n    tag_151:\n        /* \"#utility.yul\":7909:7912   */\n      0x00\n        /* \"#utility.yul\":7930:7997   */\n      tag_267\n        /* \"#utility.yul\":7994:7996   */\n      0x14\n        /* \"#utility.yul\":7989:7992   */\n      dup4\n        /* \"#utility.yul\":7930:7997   */\n      tag_145\n      jump\t// in\n    tag_267:\n        /* \"#utility.yul\":7923:7997   */\n      swap2\n      pop\n        /* \"#utility.yul\":8006:8099   */\n      tag_268\n        /* \"#utility.yul\":8095:8098   */\n      dup3\n        /* \"#utility.yul\":8006:8099   */\n      tag_150\n      jump\t// in\n    tag_268:\n        /* \"#utility.yul\":8124:8126   */\n      0x20\n        /* \"#utility.yul\":8119:8122   */\n      dup3\n        /* \"#utility.yul\":8115:8127   */\n      add\n        /* \"#utility.yul\":8108:8127   */\n      swap1\n      pop\n        /* \"#utility.yul\":7767:8133   */\n      swap2\n      swap1\n      pop\n      jump\t// out\n        /* \"#utility.yul\":8139:8558   */\n    tag_66:\n        /* \"#utility.yul\":8305:8309   */\n      0x00\n        /* \"#utility.yul\":8343:8345   */\n      0x20\n        /* \"#utility.yul\":8332:8341   */\n      dup3\n        /* \"#utility.yul\":8328:8346   */\n      add\n        /* \"#utility.yul\":8320:8346   */\n      swap1\n      pop\n        /* \"#utility.yul\":8392:8401   */\n      dup2\n        /* \"#utility.yul\":8386:8390   */\n      dup2\n        /* \"#utility.yul\":8382:8402   */\n      sub\n        /* \"#utility.yul\":8378:8379   */\n      0x00\n        /* \"#utility.yul\":8367:8376   */\n      dup4\n        /* \"#utility.yul\":8363:8380   */\n      add\n        /* \"#utility.yul\":8356:8403   */\n      mstore\n        /* \"#utility.yul\":8420:8551   */\n      tag_270\n        /* \"#utility.yul\":8546:8550   */\n      dup2\n        /* \"#utility.yul\":8420:8551   */\n      tag_151\n      jump\t// in\n    tag_270:\n        /* \"#utility.yul\":8412:8551   */\n      swap1\n      pop\n        /* \"#utility.yul\":8139:8558   */\n      swap2\n      swap1\n      pop\n      jump\t// out\n        /* \"#utility.yul\":8564:8744   */\n    tag_152:\n        /* \"#utility.yul\":8612:8689   */\n      0x4e487b7100000000000000000000000000000000000000000000000000000000\n        /* \"#utility.yul\":8609:8610   */\n      0x00\n        /* \"#utility.yul\":8602:8690   */\n      mstore\n        /* \"#utility.yul\":8709:8713   */\n      0x11\n        /* \"#utility.yul\":8706:8707   */\n      0x04\n        /* \"#utility.yul\":8699:8714   */\n      mstore\n        /* \"#utility.yul\":8733:8737   */\n      0x24\n        /* \"#utility.yul\":8730:8731   */\n      0x00\n        /* \"#utility.yul\":8723:8738   */\n      revert\n        /* \"#utility.yul\":8750:8983   */\n    tag_68:\n        /* \"#utility.yul\":8789:8792   */\n      0x00\n        /* \"#utility.yul\":8812:8836   */\n      tag_273\n        /* \"#utility.yul\":8830:8835   */\n      dup3\n        /* \"#utility.yul\":8812:8836   */\n      tag_127\n      jump\t// in\n    tag_273:\n        /* \"#utility.yul\":8803:8836   */\n      swap2\n      pop\n        /* \"#utility.yul\":8858:8924   */\n      0xffffffffffffffffffffffffffffffffffffffffffffffffffffffffffffffff\n        /* \"#utility.yul\":8851:8856   */\n      dup3\n        /* \"#utility.yul\":8848:8925   */\n      sub\n        /* \"#utility.yul\":8845:8948   */\n      tag_274\n      jumpi\n        /* \"#utility.yul\":8928:8946   */\n      tag_275\n      tag_152\n      jump\t// in\n    tag_275:\n        /* \"#utility.yul\":8845:8948   */\n    tag_274:\n        /* \"#utility.yul\":8975:8976   */\n      0x01\n        /* \"#utility.yul\":8968:8973   */\n      dup3\n        /* \"#utility.yul\":8964:8977   */\n      add\n        /* \"#utility.yul\":8957:8977   */\n      swap1\n      pop\n        /* \"#utility.yul\":8750:8983   */\n      swap2\n      swap1\n      pop\n      jump\t// out\n        /* \"#utility.yul\":8989:9321   */\n    tag_71:\n        /* \"#utility.yul\":9110:9114   */\n      0x00\n        /* \"#utility.yul\":9148:9150   */\n      0x40\n        /* \"#utility.yul\":9137:9146   */\n      dup3\n        /* \"#utility.yul\":9133:9151   */\n      add\n        /* \"#utility.yul\":9125:9151   */\n      swap1\n      pop\n        /* \"#utility.yul\":9161:9232   */\n      tag_277\n        /* \"#utility.yul\":9229:9230   */\n      0x00\n        /* \"#utility.yul\":9218:9227   */\n      dup4\n        /* \"#utility.yul\":9214:9231   */\n      add\n        /* \"#utility.yul\":9205:9211   */\n      dup6\n        /* \"#utility.yul\":9161:9232   */\n      tag_140\n      jump\t// in\n    tag_277:\n        /* \"#utility.yul\":9242:9314   */\n      tag_278\n        /* \"#utility.yul\":9310:9312   */\n      0x20\n        /* \"#utility.yul\":9299:9308   */\n      dup4\n        /* \"#utility.yul\":9295:9313   */\n      add\n        /* \"#utility.yul\":9286:9292   */\n      dup5\n        /* \"#utility.yul\":9242:9314   */\n      tag_143\n      jump\t// in\n    tag_278:\n        /* \"#utility.yul\":8989:9321   */\n      swap4\n      swap3\n      pop\n      pop\n      pop\n      jump\t// out\n        /* \"#utility.yul\":9327:9498   */\n    tag_153:\n        /* \"#utility.yul\":9467:9490   */\n      0x5469746c652063616e6e6f7420626520656d7074790000000000000000000000\n        /* \"#utility.yul\":9463:9464   */\n      0x00\n        /* \"#utility.yul\":9455:9461   */\n      dup3\n        /* \"#utility.yul\":9451:9465   */\n      add\n        /* \"#utility.yul\":9444:9491   */\n      mstore\n        /* \"#utility.yul\":9327:9498   */\n      pop\n      jump\t// out\n        /* \"#utility.yul\":9504:9870   */\n    tag_154:\n        /* \"#utility.yul\":9646:9649   */\n      0x00\n        /* \"#utility.yul\":9667:9734   */\n      tag_281\n        /* \"#utility.yul\":9731:9733   */\n      0x15\n        /* \"#utility.yul\":9726:9729   */\n      dup4\n        /* \"#utility.yul\":9667:9734   */\n      tag_145\n      jump\t// in\n    tag_281:\n        /* \"#utility.yul\":9660:9734   */\n      swap2\n      pop\n        /* \"#utility.yul\":9743:9836   */\n      tag_282\n        /* \"#utility.yul\":9832:9835   */\n      dup3\n        /* \"#utility.yul\":9743:9836   */\n      tag_153\n      jump\t// in\n    tag_282:\n        /* \"#utility.yul\":9861:9863   */\n      0x20\n        /* \"#utility.yul\":9856:9859   */\n      dup3\n        /* \"#utility.yul\":9852:9864   */\n      add\n        /* \"#utility.yul\":9845:9864   */\n      swap1\n      pop\n        /* \"#utility.yul\":9504:9870   */\n      swap2\n      swap1\n      pop\n      jump\t// out\n        /* \"#utility.yul\":9876:10295   */\n    tag_75:\n        /* \"#utility.yul\":10042:10046   */\n      0x00\n        /* \"#utility.yul\":10080:10082   */\n      0x20\n        /* \"#utility.yul\":10069:10078   */\n      dup3\n        /* \"#utility.yul\":10065:10083   */\n      add\n        /* \"#utility.yul\":10057:10083   */\n      swap1\n      pop\n        /* \"#utility.yul\":10129:10138   */\n      dup2\n        /* \"#utility.yul\":10123:10127   */\n      dup2\n        /* \"#utility.yul\":10119:10139   */\n      sub\n        /* \"#utility.yul\":10115:10116   */\n      0x00\n        /* \"#utility.yul\":10104:10113   */\n      dup4\n        /* \"#utility.yul\":10100:10117   */\n      add\n        /* \"#utility.yul\":10093:10140   */\n      mstore\n        /* \"#utility.yul\":10157:10288   */\n      tag_284\n        /* \"#utility.yul\":10283:10287   */\n      dup2\n        /* \"#utility.yul\":10157:10288   */\n      tag_154\n      jump\t// in\n    tag_284:\n        /* \"#utility.yul\":10149:10288   */\n      swap1\n      pop\n        /* \"#utility.yul\":9876:10295   */\n      swap2\n      swap1\n      pop\n      jump\t// out\n        /* \"#utility.yul\":10301:10476   */\n    tag_155:\n        /* \"#utility.yul\":10441:10468   */\n      0x4950465320686173682063616e6e6f7420626520656d70747900000000000000\n        /* \"#utility.yul\":10437:10438   */\n      0x00\n        /* \"#utility.yul\":10429:10435   */\n      dup3\n        /* \"#utility.yul\":10425:10439   */\n      add\n        /* \"#utility.yul\":10418:10469   */\n      mstore\n        /* \"#utility.yul\":10301:10476   */\n      pop\n      jump\t// out\n        /* \"#utility.yul\":10482:10848   */\n    tag_156:\n        /* \"#utility.yul\":10624:10627   */\n      0x00\n        /* \"#utility.yul\":10645:10712   */\n      tag_287\n        /* \"#utility.yul\":10709:10711   */\n      0x19\n        /* \"#utility.yul\":10704:10707   */\n      dup4\n        /* \"#utility.yul\":10645:10712   */\n      tag_145\n      jump\t// in\n    tag_287:\n        /* \"#utility.yul\":10638:10712   */\n      swap2\n      pop\n        /* \"#utility.yul\":10721:10814   */\n      tag_288\n        /* \"#utility.yul\":10810:10813   */\n      dup3\n        /* \"#utility.yul\":10721:10814   */\n      tag_155\n      jump\t// in\n    tag_288:\n        /* \"#utility.yul\":10839:10841   */\n      0x20\n        /* \"#utility.yul\":10834:10837   */\n      dup3\n        /* \"#utility.yul\":10830:10842   */\n      add\n        /* \"#utility.yul\":10823:10842   */\n      swap1\n      pop\n        /* \"#utility.yul\":10482:10848   */\n      swap2\n      swap1\n      pop\n      jump\t// out\n        /* \"#utility.yul\":10854:11273   */\n    tag_78:\n        /* \"#utility.yul\":11020:11024   */\n      0x00\n        /* \"#utility.yul\":11058:11060   */\n      0x20\n        /* \"#utility.yul\":11047:11056   */\n      dup3\n        /* \"#utility.yul\":11043:11061   */\n      add\n        /* \"#utility.yul\":11035:11061   */\n      swap1\n      pop\n        /* \"#utility.yul\":11107:11116   */\n      dup2\n        /* \"#utility.yul\":11101:11105   */\n      dup2\n        /* \"#utility.yul\":11097:11117   */\n      sub\n        /* \"#utility.yul\":11093:11094   */\n      0x00\n        /* \"#utility.yul\":11082:11091   */\n      dup4\n        /* \"#utility.yul\":11078:11095   */\n      add\n        /* \"#utility.yul\":11071:11118   */\n      mstore\n        /* \"#utility.yul\":11135:11266   */\n      tag_290\n        /* \"#utility.yul\":11261:11265   */\n      dup2\n        /* \"#utility.yul\":11135:11266   */\n      tag_156\n      jump\t// in\n    tag_290:\n        /* \"#utility.yul\":11127:11266   */\n      swap1\n      pop\n        /* \"#utility.yul\":10854:11273   */\n      swap2\n      swap1\n      pop\n      jump\t// out\n        /* \"#utility.yul\":11279:11459   */\n    tag_157:\n        /* \"#utility.yul\":11327:11404   */\n      0x4e487b7100000000000000000000000000000000000000000000000000000000\n        /* \"#utility.yul\":11324:11325   */\n      0x00\n        /* \"#utility.yul\":11317:11405   */\n      mstore\n        /* \"#utility.yul\":11424:11428   */\n      0x22\n        /* \"#utility.yul\":11421:11422   */\n      0x04\n        /* \"#utility.yul\":11414:11429   */\n      mstore\n        /* \"#utility.yul\":11448:11452   */\n      0x24\n        /* \"#utility.yul\":11445:11446   */\n      0x00\n        /* \"#utility.yul\":11438:11453   */\n      revert\n        /* \"#utility.yul\":11465:11785   */\n    tag_87:\n        /* \"#utility.yul\":11509:11515   */\n      0x00\n        /* \"#utility.yul\":11546:11547   */\n      0x02\n        /* \"#utility.yul\":11540:11544   */\n      dup3\n        /* \"#utility.yul\":11536:11548   */\n      div\n        /* \"#utility.yul\":11526:11548   */\n      swap1\n      pop\n        /* \"#utility.yul\":11593:11594   */\n      0x01\n        /* \"#utility.yul\":11587:11591   */\n      dup3\n        /* \"#utility.yul\":11583:11595   */\n      and\n        /* \"#utility.yul\":11614:11632   */\n      dup1\n        /* \"#utility.yul\":11604:11685   */\n      tag_293\n      jumpi\n        /* \"#utility.yul\":11670:11674   */\n      0x7f\n        /* \"#utility.yul\":11662:11668   */\n      dup3\n        /* \"#utility.yul\":11658:11675   */\n      and\n        /* \"#utility.yul\":11648:11675   */\n      swap2\n      pop\n        /* \"#utility.yul\":11604:11685   */\n    tag_293:\n        /* \"#utility.yul\":11732:11734   */\n      0x20\n        /* \"#utility.yul\":11724:11730   */\n      dup3\n        /* \"#utility.yul\":11721:11735   */\n      lt\n        /* \"#utility.yul\":11701:11719   */\n      dup2\n        /* \"#utility.yul\":11698:11736   */\n      sub\n        /* \"#utility.yul\":11695:11779   */\n      tag_294\n      jumpi\n        /* \"#utility.yul\":11751:11769   */\n      tag_295\n      tag_157\n      jump\t// in\n    tag_295:\n        /* \"#utility.yul\":11695:11779   */\n    tag_294:\n        /* \"#utility.yul\":11516:11785   */\n      pop\n        /* \"#utility.yul\":11465:11785   */\n      swap2\n      swap1\n      pop\n      jump\t// out\n        /* \"#utility.yul\":11791:11932   */\n    tag_158:\n        /* \"#utility.yul\":11840:11844   */\n      0x00\n        /* \"#utility.yul\":11863:11866   */\n      dup2\n        /* \"#utility.yul\":11855:11866   */\n      swap1\n      pop\n        /* \"#utility.yul\":11886:11889   */\n      dup2\n        /* \"#utility.yul\":11883:11884   */\n      0x00\n        /* \"#utility.yul\":11876:11890   */\n      mstore\n        /* \"#utility.yul\":11920:11924   */\n      0x20\n        /* \"#utility.yul\":11917:11918   */\n      0x00\n        /* \"#utility.yul\":11907:11925   */\n      keccak256\n        /* \"#utility.yul\":11899:11925   */\n      swap1\n      pop\n        /* \"#utility.yul\":11791:11932   */\n      swap2\n      swap1\n      pop\n      jump\t// out\n        /* \"#utility.yul\":11938:12031   */\n    tag_159:\n        /* \"#utility.yul\":11975:11981   */\n      0x00\n        /* \"#utility.yul\":12022:12024   */\n      0x20\n        /* \"#utility.yul\":12017:12019   */\n      0x1f\n        /* \"#utility.yul\":12010:12015   */\n      dup4\n        /* \"#utility.yul\":12006:12020   */\n      add\n        /* \"#utility.yul\":12002:12025   */\n      div\n        /* \"#utility.yul\":11992:12025   */\n      swap1\n      pop\n        /* \"#utility.yul\":11938:12031   */\n      swap2\n      swap1\n      pop\n      jump\t// out\n        /* \"#utility.yul\":12037:12144   */\n    tag_160:\n        /* \"#utility.yul\":12081:12089   */\n      0x00\n        /* \"#utility.yul\":12131:12136   */\n      dup3\n        /* \"#utility.yul\":12125:12129   */\n      dup3\n        /* \"#utility.yul\":12121:12137   */\n      shl\n        /* \"#utility.yul\":12100:12137   */\n      swap1\n      pop\n        /* \"#utility.yul\":12037:12144   */\n      swap3\n      swap2\n      pop\n      pop\n      jump\t// out\n        /* \"#utility.yul\":12150:12543   */\n    tag_161:\n        /* \"#utility.yul\":12219:12225   */\n      0x00\n        /* \"#utility.yul\":12269:12270   */\n      0x08\n        /* \"#utility.yul\":12257:12267   */\n      dup4\n        /* \"#utility.yul\":12253:12271   */\n      mul\n        /* \"#utility.yul\":12292:12389   */\n      tag_300\n        /* \"#utility.yul\":12322:12388   */\n      0xffffffffffffffffffffffffffffffffffffffffffffffffffffffffffffffff\n        /* \"#utility.yul\":12311:12320   */\n      dup3\n        /* \"#utility.yul\":12292:12389   */\n      tag_160\n      jump\t// in\n    tag_300:\n        /* \"#utility.yul\":12410:12449   */\n      tag_301\n        /* \"#utility.yul\":12440:12448   */\n      dup7\n        /* \"#utility.yul\":12429:12438   */\n      dup4\n        /* \"#utility.yul\":12410:12449   */\n      tag_160\n      jump\t// in\n    tag_301:\n        /* \"#utility.yul\":12398:12449   */\n      swap6\n      pop\n        /* \"#utility.yul\":12482:12486   */\n      dup1\n        /* \"#utility.yul\":12478:12487   */\n      not\n        /* \"#utility.yul\":12471:12476   */\n      dup5\n        /* \"#utility.yul\":12467:12488   */\n      and\n        /* \"#utility.yul\":12458:12488   */\n      swap4\n      pop\n        /* \"#utility.yul\":12531:12535   */\n      dup1\n        /* \"#utility.yul\":12521:12529   */\n      dup7\n        /* \"#utility.yul\":12517:12536   */\n      and\n        /* \"#utility.yul\":12510:12515   */\n      dup5\n        /* \"#utility.yul\":12507:12537   */\n      or\n        /* \"#utility.yul\":12497:12537   */\n      swap3\n      pop\n        /* \"#utility.yul\":12226:12543   */\n      pop\n      pop\n        /* \"#utility.yul\":12150:12543   */\n      swap4\n      swap3\n      pop\n      pop\n      pop\n      jump\t// out\n        /* \"#utility.yul\":12549:12609   */\n    tag_162:\n        /* \"#utility.yul\":12577:12580   */\n      0x00\n        /* \"#utility.yul\":12598:12603   */\n      dup2\n        /* \"#utility.yul\":12591:12603   */\n      swap1\n      pop\n        /* \"#utility.yul\":12549:12609   */\n      swap2\n      swap1\n      pop\n      jump\t// out\n        /* \"#utility.yul\":12615:12757   */\n    tag_163:\n        /* \"#utility.yul\":12665:12674   */\n      0x00\n        /* \"#utility.yul\":12698:12751   */\n      tag_304\n        /* \"#utility.yul\":12716:12750   */\n      tag_305\n        /* \"#utility.yul\":12725:12749   */\n      tag_306\n        /* \"#utility.yul\":12743:12748   */\n      dup5\n        /* \"#utility.yul\":12725:12749   */\n      tag_127\n      jump\t// in\n    tag_306:\n        /* \"#utility.yul\":12716:12750   */\n      tag_162\n      jump\t// in\n    tag_305:\n        /* \"#utility.yul\":12698:12751   */\n      tag_127\n      jump\t// in\n    tag_304:\n        /* \"#utility.yul\":12685:12751   */\n      swap1\n      pop\n        /* \"#utility.yul\":12615:12757   */\n      swap2\n      swap1\n      pop\n      jump\t// out\n        /* \"#utility.yul\":12763:12838   */\n    tag_164:\n        /* \"#utility.yul\":12806:12809   */\n      0x00\n        /* \"#utility.yul\":12827:12832   */\n      dup2\n        /* \"#utility.yul\":12820:12832   */\n      swap1\n      pop\n        /* \"#utility.yul\":12763:12838   */\n      swap2\n      swap1\n      pop\n      jump\t// out\n        /* \"#utility.yul\":12844:13113   */\n    tag_165:\n        /* \"#utility.yul\":12954:12993   */\n      tag_309\n        /* \"#utility.yul\":12985:12992   */\n      dup4\n        /* \"#utility.yul\":12954:12993   */\n      tag_163\n      jump\t// in\n    tag_309:\n        /* \"#utility.yul\":13015:13106   */\n      tag_310\n        /* \"#utility.yul\":13064:13105   */\n      tag_311\n        /* \"#utility.yul\":13088:13104   */\n      dup3\n        /* \"#utility.yul\":13064:13105   */\n      tag_164\n      jump\t// in\n    tag_311:\n        /* \"#utility.yul\":13056:13062   */\n      dup5\n        /* \"#utility.yul\":13049:13053   */\n      dup5\n        /* \"#utility.yul\":13043:13054   */\n      sload\n        /* \"#utility.yul\":13015:13106   */\n      tag_161\n      jump\t// in\n    tag_310:\n        /* \"#utility.yul\":13009:13013   */\n      dup3\n        /* \"#utility.yul\":13002:13107   */\n      sstore\n        /* \"#utility.yul\":12920:13113   */\n      pop\n        /* \"#utility.yul\":12844:13113   */\n      pop\n      pop\n      pop\n      jump\t// out\n        /* \"#utility.yul\":13119:13192   */\n    tag_166:\n        /* \"#utility.yul\":13164:13167   */\n      0x00\n        /* \"#utility.yul\":13119:13192   */\n      swap1\n      jump\t// out\n        /* \"#utility.yul\":13198:13387   */\n    tag_167:\n        /* \"#utility.yul\":13275:13307   */\n      tag_314\n      tag_166\n      jump\t// in\n    tag_314:\n        /* \"#utility.yul\":13316:13381   */\n      tag_315\n        /* \"#utility.yul\":13374:13380   */\n      dup2\n        /* \"#utility.yul\":13366:13372   */\n      dup5\n        /* \"#utility.yul\":13360:13364   */\n      dup5\n        /* \"#utility.yul\":13316:13381   */\n      tag_165\n      jump\t// in\n    tag_315:\n        /* \"#utility.yul\":13251:13387   */\n      pop\n        /* \"#utility.yul\":13198:13387   */\n      pop\n      pop\n      jump\t// out\n        /* \"#utility.yul\":13393:13579   */\n    tag_168:\n        /* \"#utility.yul\":13453:13573   */\n    tag_317:\n        /* \"#utility.yul\":13470:13473   */\n      dup2\n        /* \"#utility.yul\":13463:13468   */\n      dup2\n        /* \"#utility.yul\":13460:13474   */\n      lt\n        /* \"#utility.yul\":13453:13573   */\n      iszero\n      tag_319\n      jumpi\n        /* \"#utility.yul\":13524:13563   */\n      tag_320\n        /* \"#utility.yul\":13561:13562   */\n      0x00\n        /* \"#utility.yul\":13554:13559   */\n      dup3\n        /* \"#utility.yul\":13524:13563   */\n      tag_167\n      jump\t// in\n    tag_320:\n        /* \"#utility.yul\":13497:13498   */\n      0x01\n        /* \"#utility.yul\":13490:13495   */\n      dup2\n        /* \"#utility.yul\":13486:13499   */\n      add\n        /* \"#utility.yul\":13477:13499   */\n      swap1\n      pop\n        /* \"#utility.yul\":13453:13573   */\n      jump(tag_317)\n    tag_319:\n        /* \"#utility.yul\":13393:13579   */\n      pop\n      pop\n      jump\t// out\n        /* \"#utility.yul\":13585:14128   */\n    tag_169:\n        /* \"#utility.yul\":13686:13688   */\n      0x1f\n        /* \"#utility.yul\":13681:13684   */\n      dup3\n        /* \"#utility.yul\":13678:13689   */\n      gt\n        /* \"#utility.yul\":13675:14121   */\n      iszero\n      tag_322\n      jumpi\n        /* \"#utility.yul\":13720:13758   */\n      tag_323\n        /* \"#utility.yul\":13752:13757   */\n      dup2\n        /* \"#utility.yul\":13720:13758   */\n      tag_158\n      jump\t// in\n    tag_323:\n        /* \"#utility.yul\":13804:13833   */\n      tag_324\n        /* \"#utility.yul\":13822:13832   */\n      dup5\n        /* \"#utility.yul\":13804:13833   */\n      tag_159\n      jump\t// in\n    tag_324:\n        /* \"#utility.yul\":13794:13802   */\n      dup2\n        /* \"#utility.yul\":13790:13834   */\n      add\n        /* \"#utility.yul\":13987:13989   */\n      0x20\n        /* \"#utility.yul\":13975:13985   */\n      dup6\n        /* \"#utility.yul\":13972:13990   */\n      lt\n        /* \"#utility.yul\":13969:14018   */\n      iszero\n      tag_325\n      jumpi\n        /* \"#utility.yul\":14008:14016   */\n      dup2\n        /* \"#utility.yul\":13993:14016   */\n      swap1\n      pop\n        /* \"#utility.yul\":13969:14018   */\n    tag_325:\n        /* \"#utility.yul\":14031:14111   */\n      tag_326\n        /* \"#utility.yul\":14087:14109   */\n      tag_327\n        /* \"#utility.yul\":14105:14108   */\n      dup6\n        /* \"#utility.yul\":14087:14109   */\n      tag_159\n      jump\t// in\n    tag_327:\n        /* \"#utility.yul\":14077:14085   */\n      dup4\n        /* \"#utility.yul\":14073:14110   */\n      add\n        /* \"#utility.yul\":14060:14071   */\n      dup3\n        /* \"#utility.yul\":14031:14111   */\n      tag_168\n      jump\t// in\n    tag_326:\n        /* \"#utility.yul\":13690:14121   */\n      pop\n      pop\n        /* \"#utility.yul\":13675:14121   */\n    tag_322:\n        /* \"#utility.yul\":13585:14128   */\n      pop\n      pop\n      pop\n      jump\t// out\n        /* \"#utility.yul\":14134:14251   */\n    tag_170:\n        /* \"#utility.yul\":14188:14196   */\n      0x00\n        /* \"#utility.yul\":14238:14243   */\n      dup3\n        /* \"#utility.yul\":14232:14236   */\n      dup3\n        /* \"#utility.yul\":14228:14244   */\n      shr\n        /* \"#utility.yul\":14207:14244   */\n      swap1\n      pop\n        /* \"#utility.yul\":14134:14251   */\n      swap3\n      swap2\n      pop\n      pop\n      jump\t// out\n        /* \"#utility.yul\":14257:14426   */\n    tag_171:\n        /* \"#utility.yul\":14301:14307   */\n      0x00\n        /* \"#utility.yul\":14334:14385   */\n      tag_330\n        /* \"#utility.yul\":14382:14383   */\n      0x00\n        /* \"#utility.yul\":14378:14384   */\n      not\n        /* \"#utility.yul\":14370:14375   */\n      dup5\n        /* \"#utility.yul\":14367:14368   */\n      0x08\n        /* \"#utility.yul\":14363:14376   */\n      mul\n        /* \"#utility.yul\":14334:14385   */\n      tag_170\n      jump\t// in\n    tag_330:\n        /* \"#utility.yul\":14330:14386   */\n      not\n        /* \"#utility.yul\":14415:14419   */\n      dup1\n        /* \"#utility.yul\":14409:14413   */\n      dup4\n        /* \"#utility.yul\":14405:14420   */\n      and\n        /* \"#utility.yul\":14395:14420   */\n      swap2\n      pop\n        /* \"#utility.yul\":14308:14426   */\n      pop\n        /* \"#utility.yul\":14257:14426   */\n      swap3\n      swap2\n      pop\n      pop\n      jump\t// out\n        /* \"#utility.yul\":14431:14726   */\n    tag_172:\n        /* \"#utility.yul\":14507:14511   */\n      0x00\n        /* \"#utility.yul\":14653:14682   */\n      tag_332\n        /* \"#utility.yul\":14678:14681   */\n      dup4\n        /* \"#utility.yul\":14672:14676   */\n      dup4\n        /* \"#utility.yul\":14653:14682   */\n      tag_171\n      jump\t// in\n    tag_332:\n        /* \"#utility.yul\":14645:14682   */\n      swap2\n      pop\n        /* \"#utility.yul\":14715:14718   */\n      dup3\n        /* \"#utility.yul\":14712:14713   */\n      0x02\n        /* \"#utility.yul\":14708:14719   */\n      mul\n        /* \"#utility.yul\":14702:14706   */\n      dup3\n        /* \"#utility.yul\":14699:14720   */\n      or\n        /* \"#utility.yul\":14691:14720   */\n      swap1\n      pop\n        /* \"#utility.yul\":14431:14726   */\n      swap3\n      swap2\n      pop\n      pop\n      jump\t// out\n        /* \"#utility.yul\":14731:16126   */\n    tag_81:\n        /* \"#utility.yul\":14848:14885   */\n      tag_334\n        /* \"#utility.yul\":14881:14884   */\n      dup3\n        /* \"#utility.yul\":14848:14885   */\n      tag_144\n      jump\t// in\n    tag_334:\n        /* \"#utility.yul\":14950:14968   */\n      0xffffffffffffffff\n        /* \"#utility.yul\":14942:14948   */\n      dup2\n        /* \"#utility.yul\":14939:14969   */\n      gt\n        /* \"#utility.yul\":14936:14992   */\n      iszero\n      tag_335\n      jumpi\n        /* \"#utility.yul\":14972:14990   */\n      tag_336\n      tag_133\n      jump\t// in\n    tag_336:\n        /* \"#utility.yul\":14936:14992   */\n    tag_335:\n        /* \"#utility.yul\":15016:15054   */\n      tag_337\n        /* \"#utility.yul\":15048:15052   */\n      dup3\n        /* \"#utility.yul\":15042:15053   */\n      sload\n        /* \"#utility.yul\":15016:15054   */\n      tag_87\n      jump\t// in\n    tag_337:\n        /* \"#utility.yul\":15101:15168   */\n      tag_338\n        /* \"#utility.yul\":15161:15167   */\n      dup3\n        /* \"#utility.yul\":15153:15159   */\n      dup3\n        /* \"#utility.yul\":15147:15151   */\n      dup6\n        /* \"#utility.yul\":15101:15168   */\n      tag_169\n      jump\t// in\n    tag_338:\n        /* \"#utility.yul\":15195:15196   */\n      0x00\n        /* \"#utility.yul\":15219:15223   */\n      0x20\n        /* \"#utility.yul\":15206:15223   */\n      swap1\n      pop\n        /* \"#utility.yul\":15251:15253   */\n      0x1f\n        /* \"#utility.yul\":15243:15249   */\n      dup4\n        /* \"#utility.yul\":15240:15254   */\n      gt\n        /* \"#utility.yul\":15268:15269   */\n      0x01\n        /* \"#utility.yul\":15263:15881   */\n      dup2\n      eq\n      tag_340\n      jumpi\n        /* \"#utility.yul\":15925:15926   */\n      0x00\n        /* \"#utility.yul\":15942:15948   */\n      dup5\n        /* \"#utility.yul\":15939:16016   */\n      iszero\n      tag_341\n      jumpi\n        /* \"#utility.yul\":15991:16000   */\n      dup3\n        /* \"#utility.yul\":15986:15989   */\n      dup8\n        /* \"#utility.yul\":15982:16001   */\n      add\n        /* \"#utility.yul\":15976:16002   */\n      mload\n        /* \"#utility.yul\":15967:16002   */\n      swap1\n      pop\n        /* \"#utility.yul\":15939:16016   */\n    tag_341:\n        /* \"#utility.yul\":16042:16109   */\n      tag_342\n        /* \"#utility.yul\":16102:16108   */\n      dup6\n        /* \"#utility.yul\":16095:16100   */\n      dup3\n        /* \"#utility.yul\":16042:16109   */\n      tag_172\n      jump\t// in\n    tag_342:\n        /* \"#utility.yul\":16036:16040   */\n      dup7\n        /* \"#utility.yul\":16029:16110   */\n      sstore\n        /* \"#utility.yul\":15898:16120   */\n      pop\n        /* \"#utility.yul\":15233:16120   */\n      jump(tag_339)\n        /* \"#utility.yul\":15263:15881   */\n    tag_340:\n        /* \"#utility.yul\":15315:15319   */\n      0x1f\n        /* \"#utility.yul\":15311:15320   */\n      not\n        /* \"#utility.yul\":15303:15309   */\n      dup5\n        /* \"#utility.yul\":15299:15321   */\n      and\n        /* \"#utility.yul\":15349:15386   */\n      tag_343\n        /* \"#utility.yul\":15381:15385   */\n      dup7\n        /* \"#utility.yul\":15349:15386   */\n      tag_158\n      jump\t// in\n    tag_343:\n        /* \"#utility.yul\":15408:15409   */\n      0x00\n        /* \"#utility.yul\":15422:15630   */\n    tag_344:\n        /* \"#utility.yul\":15436:15443   */\n      dup3\n        /* \"#utility.yul\":15433:15434   */\n      dup2\n        /* \"#utility.yul\":15430:15444   */\n      lt\n        /* \"#utility.yul\":15422:15630   */\n      iszero\n      tag_346\n      jumpi\n        /* \"#utility.yul\":15515:15524   */\n      dup5\n        /* \"#utility.yul\":15510:15513   */\n      dup10\n        /* \"#utility.yul\":15506:15525   */\n      add\n        /* \"#utility.yul\":15500:15526   */\n      mload\n        /* \"#utility.yul\":15492:15498   */\n      dup3\n        /* \"#utility.yul\":15485:15527   */\n      sstore\n        /* \"#utility.yul\":15566:15567   */\n      0x01\n        /* \"#utility.yul\":15558:15564   */\n      dup3\n        /* \"#utility.yul\":15554:15568   */\n      add\n        /* \"#utility.yul\":15544:15568   */\n      swap2\n      pop\n        /* \"#utility.yul\":15613:15615   */\n      0x20\n        /* \"#utility.yul\":15602:15611   */\n      dup6\n        /* \"#utility.yul\":15598:15616   */\n      add\n        /* \"#utility.yul\":15585:15616   */\n      swap5\n      pop\n        /* \"#utility.yul\":15459:15463   */\n      0x20\n        /* \"#utility.yul\":15456:15457   */\n      dup2\n        /* \"#utility.yul\":15452:15464   */\n      add\n        /* \"#utility.yul\":15447:15464   */\n      swap1\n      pop\n        /* \"#utility.yul\":15422:15630   */\n      jump(tag_344)\n    tag_346:\n        /* \"#utility.yul\":15658:15664   */\n      dup7\n        /* \"#utility.yul\":15649:15656   */\n      dup4\n        /* \"#utility.yul\":15646:15665   */\n      lt\n        /* \"#utility.yul\":15643:15822   */\n      iszero\n      tag_347\n      jumpi\n        /* \"#utility.yul\":15716:15725   */\n      dup5\n        /* \"#utility.yul\":15711:15714   */\n      dup10\n        /* \"#utility.yul\":15707:15726   */\n      add\n        /* \"#utility.yul\":15701:15727   */\n      mload\n        /* \"#utility.yul\":15759:15807   */\n      tag_348\n        /* \"#utility.yul\":15801:15805   */\n      0x1f\n        /* \"#utility.yul\":15793:15799   */\n      dup10\n        /* \"#utility.yul\":15789:15806   */\n      and\n        /* \"#utility.yul\":15778:15787   */\n      dup3\n        /* \"#utility.yul\":15759:15807   */\n      tag_171\n      jump\t// in\n    tag_348:\n        /* \"#utility.yul\":15751:15757   */\n      dup4\n        /* \"#utility.yul\":15744:15808   */\n      sstore\n        /* \"#utility.yul\":15666:15822   */\n      pop\n        /* \"#utility.yul\":15643:15822   */\n    tag_347:\n        /* \"#utility.yul\":15868:15869   */\n      0x01\n        /* \"#utility.yul\":15864:15865   */\n      0x02\n        /* \"#utility.yul\":15856:15862   */\n      dup9\n        /* \"#utility.yul\":15852:15866   */\n      mul\n        /* \"#utility.yul\":15848:15870   */\n      add\n        /* \"#utility.yul\":15842:15846   */\n      dup9\n        /* \"#utility.yul\":15835:15871   */\n      sstore\n        /* \"#utility.yul\":15270:15881   */\n      pop\n      pop\n      pop\n        /* \"#utility.yul\":15233:16120   */\n    tag_339:\n      pop\n        /* \"#utility.yul\":14823:16126   */\n      pop\n      pop\n      pop\n        /* \"#utility.yul\":14731:16126   */\n      pop\n      pop\n      jump\t// out\n        /* \"#utility.yul\":16132:16867   */\n    tag_85:\n        /* \"#utility.yul\":16349:16353   */\n      0x00\n        /* \"#utility.yul\":16387:16390   */\n      0x80\n        /* \"#utility.yul\":16376:16385   */\n      dup3\n        /* \"#utility.yul\":16372:16391   */\n      add\n        /* \"#utility.yul\":16364:16391   */\n      swap1\n      pop\n        /* \"#utility.yul\":16401:16472   */\n      tag_350\n        /* \"#utility.yul\":16469:16470   */\n      0x00\n        /* \"#utility.yul\":16458:16467   */\n      dup4\n        /* \"#utility.yul\":16454:16471   */\n      add\n        /* \"#utility.yul\":16445:16451   */\n      dup8\n        /* \"#utility.yul\":16401:16472   */\n      tag_140\n      jump\t// in\n    tag_350:\n        /* \"#utility.yul\":16482:16554   */\n      tag_351\n        /* \"#utility.yul\":16550:16552   */\n      0x20\n        /* \"#utility.yul\":16539:16548   */\n      dup4\n        /* \"#utility.yul\":16535:16553   */\n      add\n        /* \"#utility.yul\":16526:16532   */\n      dup7\n        /* \"#utility.yul\":16482:16554   */\n      tag_143\n      jump\t// in\n    tag_351:\n        /* \"#utility.yul\":16601:16610   */\n      dup2\n        /* \"#utility.yul\":16595:16599   */\n      dup2\n        /* \"#utility.yul\":16591:16611   */\n      sub\n        /* \"#utility.yul\":16586:16588   */\n      0x40\n        /* \"#utility.yul\":16575:16584   */\n      dup4\n        /* \"#utility.yul\":16571:16589   */\n      add\n        /* \"#utility.yul\":16564:16612   */\n      mstore\n        /* \"#utility.yul\":16629:16707   */\n      tag_352\n        /* \"#utility.yul\":16702:16706   */\n      dup2\n        /* \"#utility.yul\":16693:16699   */\n      dup6\n        /* \"#utility.yul\":16629:16707   */\n      tag_147\n      jump\t// in\n    tag_352:\n        /* \"#utility.yul\":16621:16707   */\n      swap1\n      pop\n        /* \"#utility.yul\":16754:16763   */\n      dup2\n        /* \"#utility.yul\":16748:16752   */\n      dup2\n        /* \"#utility.yul\":16744:16764   */\n      sub\n        /* \"#utility.yul\":16739:16741   */\n      0x60\n        /* \"#utility.yul\":16728:16737   */\n      dup4\n        /* \"#utility.yul\":16724:16742   */\n      add\n        /* \"#utility.yul\":16717:16765   */\n      mstore\n        /* \"#utility.yul\":16782:16860   */\n      tag_353\n        /* \"#utility.yul\":16855:16859   */\n      dup2\n        /* \"#utility.yul\":16846:16852   */\n      dup5\n        /* \"#utility.yul\":16782:16860   */\n      tag_147\n      jump\t// in\n    tag_353:\n        /* \"#utility.yul\":16774:16860   */\n      swap1\n      pop\n        /* \"#utility.yul\":16132:16867   */\n      swap6\n      swap5\n      pop\n      pop\n      pop\n      pop\n      pop\n      jump\t// out\n        /* \"#utility.yul\":16873:17043   */\n    tag_173:\n        /* \"#utility.yul\":17013:17035   */\n      0x496e73756666696369656e74207061796d656e74000000000000000000000000\n        /* \"#utility.yul\":17009:17010   */\n      0x00\n        /* \"#utility.yul\":17001:17007   */\n      dup3\n        /* \"#utility.yul\":16997:17011   */\n      add\n        /* \"#utility.yul\":16990:17036   */\n      mstore\n        /* \"#utility.yul\":16873:17043   */\n      pop\n      jump\t// out\n        /* \"#utility.yul\":17049:17415   */\n    tag_174:\n        /* \"#utility.yul\":17191:17194   */\n      0x00\n        /* \"#utility.yul\":17212:17279   */\n      tag_356\n        /* \"#utility.yul\":17276:17278   */\n      0x14\n        /* \"#utility.yul\":17271:17274   */\n      dup4\n        /* \"#utility.yul\":17212:17279   */\n      tag_145\n      jump\t// in\n    tag_356:\n        /* \"#utility.yul\":17205:17279   */\n      swap2\n      pop\n        /* \"#utility.yul\":17288:17381   */\n      tag_357\n        /* \"#utility.yul\":17377:17380   */\n      dup3\n        /* \"#utility.yul\":17288:17381   */\n      tag_173\n      jump\t// in\n    tag_357:\n        /* \"#utility.yul\":17406:17408   */\n      0x20\n        /* \"#utility.yul\":17401:17404   */\n      dup3\n        /* \"#utility.yul\":17397:17409   */\n      add\n        /* \"#utility.yul\":17390:17409   */\n      swap1\n      pop\n        /* \"#utility.yul\":17049:17415   */\n      swap2\n      swap1\n      pop\n      jump\t// out\n        /* \"#utility.yul\":17421:17840   */\n    tag_105:\n        /* \"#utility.yul\":17587:17591   */\n      0x00\n        /* \"#utility.yul\":17625:17627   */\n      0x20\n        /* \"#utility.yul\":17614:17623   */\n      dup3\n        /* \"#utility.yul\":17610:17628   */\n      add\n        /* \"#utility.yul\":17602:17628   */\n      swap1\n      pop\n        /* \"#utility.yul\":17674:17683   */\n      dup2\n        /* \"#utility.yul\":17668:17672   */\n      dup2\n        /* \"#utility.yul\":17664:17684   */\n      sub\n        /* \"#utility.yul\":17660:17661   */\n      0x00\n        /* \"#utility.yul\":17649:17658   */\n      dup4\n        /* \"#utility.yul\":17645:17662   */\n      add\n        /* \"#utility.yul\":17638:17685   */\n      mstore\n        /* \"#utility.yul\":17702:17833   */\n      tag_359\n        /* \"#utility.yul\":17828:17832   */\n      dup2\n        /* \"#utility.yul\":17702:17833   */\n      tag_174\n      jump\t// in\n    tag_359:\n        /* \"#utility.yul\":17694:17833   */\n      swap1\n      pop\n        /* \"#utility.yul\":17421:17840   */\n      swap2\n      swap1\n      pop\n      jump\t// out\n        /* \"#utility.yul\":17846:18021   */\n    tag_175:\n        /* \"#utility.yul\":17986:18013   */\n      0x537562736372697074696f6e207374696c6c2061637469766500000000000000\n        /* \"#utility.yul\":17982:17983   */\n      0x00\n        /* \"#utility.yul\":17974:17980   */\n      dup3\n        /* \"#utility.yul\":17970:17984   */\n      add\n        /* \"#utility.yul\":17963:18014   */\n      mstore\n        /* \"#utility.yul\":17846:18021   */\n      pop\n      jump\t// out\n        /* \"#utility.yul\":18027:18393   */\n    tag_176:\n        /* \"#utility.yul\":18169:18172   */\n      0x00\n        /* \"#utility.yul\":18190:18257   */\n      tag_362\n        /* \"#utility.yul\":18254:18256   */\n      0x19\n        /* \"#utility.yul\":18249:18252   */\n      dup4\n        /* \"#utility.yul\":18190:18257   */\n      tag_145\n      jump\t// in\n    tag_362:\n        /* \"#utility.yul\":18183:18257   */\n      swap2\n      pop\n        /* \"#utility.yul\":18266:18359   */\n      tag_363\n        /* \"#utility.yul\":18355:18358   */\n      dup3\n        /* \"#utility.yul\":18266:18359   */\n      tag_175\n      jump\t// in\n    tag_363:\n        /* \"#utility.yul\":18384:18386   */\n      0x20\n        /* \"#utility.yul\":18379:18382   */\n      dup3\n        /* \"#utility.yul\":18375:18387   */\n      add\n        /* \"#utility.yul\":18368:18387   */\n      swap1\n      pop\n        /* \"#utility.yul\":18027:18393   */\n      swap2\n      swap1\n      pop\n      jump\t// out\n        /* \"#utility.yul\":18399:18818   */\n    tag_108:\n        /* \"#utility.yul\":18565:18569   */\n      0x00\n        /* \"#utility.yul\":18603:18605   */\n      0x20\n        /* \"#utility.yul\":18592:18601   */\n      dup3\n        /* \"#utility.yul\":18588:18606   */\n      add\n        /* \"#utility.yul\":18580:18606   */\n      swap1\n      pop\n        /* \"#utility.yul\":18652:18661   */\n      dup2\n        /* \"#utility.yul\":18646:18650   */\n      dup2\n        /* \"#utility.yul\":18642:18662   */\n      sub\n        /* \"#utility.yul\":18638:18639   */\n      0x00\n        /* \"#utility.yul\":18627:18636   */\n      dup4\n        /* \"#utility.yul\":18623:18640   */\n      add\n        /* \"#utility.yul\":18616:18663   */\n      mstore\n        /* \"#utility.yul\":18680:18811   */\n      tag_365\n        /* \"#utility.yul\":18806:18810   */\n      dup2\n        /* \"#utility.yul\":18680:18811   */\n      tag_176\n      jump\t// in\n    tag_365:\n        /* \"#utility.yul\":18672:18811   */\n      swap1\n      pop\n        /* \"#utility.yul\":18399:18818   */\n      swap2\n      swap1\n      pop\n      jump\t// out\n        /* \"#utility.yul\":18824:19015   */\n    tag_110:\n        /* \"#utility.yul\":18864:18867   */\n      0x00\n        /* \"#utility.yul\":18883:18903   */\n      tag_367\n        /* \"#utility.yul\":18901:18902   */\n      dup3\n        /* \"#utility.yul\":18883:18903   */\n      tag_127\n      jump\t// in\n    tag_367:\n        /* \"#utility.yul\":18878:18903   */\n      swap2\n      pop\n        /* \"#utility.yul\":18917:18937   */\n      tag_368\n        /* \"#utility.yul\":18935:18936   */\n      dup4\n        /* \"#utility.yul\":18917:18937   */\n      tag_127\n      jump\t// in\n    tag_368:\n        /* \"#utility.yul\":18912:18937   */\n      swap3\n      pop\n        /* \"#utility.yul\":18960:18961   */\n      dup3\n        /* \"#utility.yul\":18957:18958   */\n      dup3\n        /* \"#utility.yul\":18953:18962   */\n      add\n        /* \"#utility.yul\":18946:18962   */\n      swap1\n      pop\n        /* \"#utility.yul\":18981:18984   */\n      dup1\n        /* \"#utility.yul\":18978:18979   */\n      dup3\n        /* \"#utility.yul\":18975:18985   */\n      gt\n        /* \"#utility.yul\":18972:19008   */\n      iszero\n      tag_369\n      jumpi\n        /* \"#utility.yul\":18988:19006   */\n      tag_370\n      tag_152\n      jump\t// in\n    tag_370:\n        /* \"#utility.yul\":18972:19008   */\n    tag_369:\n        /* \"#utility.yul\":18824:19015   */\n      swap3\n      swap2\n      pop\n      pop\n      jump\t// out\n        /* \"#utility.yul\":19021:19353   */\n    tag_113:\n        /* \"#utility.yul\":19142:19146   */\n      0x00\n        /* \"#utility.yul\":19180:19182   */\n      0x40\n        /* \"#utility.yul\":19169:19178   */\n      dup3\n        /* \"#utility.yul\":19165:19183   */\n      add\n        /* \"#utility.yul\":19157:19183   */\n      swap1\n      pop\n        /* \"#utility.yul\":19193:19264   */\n      tag_372\n        /* \"#utility.yul\":19261:19262   */\n      0x00\n        /* \"#utility.yul\":19250:19259   */\n      dup4\n        /* \"#utility.yul\":19246:19263   */\n      add\n        /* \"#utility.yul\":19237:19243   */\n      dup6\n        /* \"#utility.yul\":19193:19264   */\n      tag_143\n      jump\t// in\n    tag_372:\n        /* \"#utility.yul\":19274:19346   */\n      tag_373\n        /* \"#utility.yul\":19342:19344   */\n      0x20\n        /* \"#utility.yul\":19331:19340   */\n      dup4\n        /* \"#utility.yul\":19327:19345   */\n      add\n        /* \"#utility.yul\":19318:19324   */\n      dup5\n        /* \"#utility.yul\":19274:19346   */\n      tag_140\n      jump\t// in\n    tag_373:\n        /* \"#utility.yul\":19021:19353   */\n      swap4\n      swap3\n      pop\n      pop\n      pop\n      jump\t// out\n        /* \"#utility.yul\":19359:19769   */\n    tag_116:\n        /* \"#utility.yul\":19399:19406   */\n      0x00\n        /* \"#utility.yul\":19422:19442   */\n      tag_375\n        /* \"#utility.yul\":19440:19441   */\n      dup3\n        /* \"#utility.yul\":19422:19442   */\n      tag_127\n      jump\t// in\n    tag_375:\n        /* \"#utility.yul\":19417:19442   */\n      swap2\n      pop\n        /* \"#utility.yul\":19456:19476   */\n      tag_376\n        /* \"#utility.yul\":19474:19475   */\n      dup4\n        /* \"#utility.yul\":19456:19476   */\n      tag_127\n      jump\t// in\n    tag_376:\n        /* \"#utility.yul\":19451:19476   */\n      swap3\n      pop\n        /* \"#utility.yul\":19511:19512   */\n      dup3\n        /* \"#utility.yul\":19508:19509   */\n      dup3\n        /* \"#utility.yul\":19504:19513   */\n      mul\n        /* \"#utility.yul\":19533:19563   */\n      tag_377\n        /* \"#utility.yul\":19551:19562   */\n      dup2\n        /* \"#utility.yul\":19533:19563   */\n      tag_127\n      jump\t// in\n    tag_377:\n        /* \"#utility.yul\":19522:19563   */\n      swap2\n      pop\n        /* \"#utility.yul\":19712:19713   */\n      dup3\n        /* \"#utility.yul\":19703:19710   */\n      dup3\n        /* \"#utility.yul\":19699:19714   */\n      div\n        /* \"#utility.yul\":19696:19697   */\n      dup5\n        /* \"#utility.yul\":19693:19715   */\n      eq\n        /* \"#utility.yul\":19673:19674   */\n      dup4\n        /* \"#utility.yul\":19666:19675   */\n      iszero\n        /* \"#utility.yul\":19646:19729   */\n      or\n        /* \"#utility.yul\":19623:19762   */\n      tag_378\n      jumpi\n        /* \"#utility.yul\":19742:19760   */\n      tag_379\n      tag_152\n      jump\t// in\n    tag_379:\n        /* \"#utility.yul\":19623:19762   */\n    tag_378:\n        /* \"#utility.yul\":19407:19769   */\n      pop\n        /* \"#utility.yul\":19359:19769   */\n      swap3\n      swap2\n      pop\n      pop\n      jump\t// out\n        /* \"#utility.yul\":19775:19955   */\n    tag_177:\n        /* \"#utility.yul\":19823:19900   */\n      0x4e487b7100000000000000000000000000000000000000000000000000000000\n        /* \"#utility.yul\":19820:19821   */\n      0x00\n        /* \"#utility.yul\":19813:19901   */\n      mstore\n        /* \"#utility.yul\":19920:19924   */\n      0x12\n        /* \"#utility.yul\":19917:19918   */\n      0x04\n        /* \"#utility.yul\":19910:19925   */\n      mstore\n        /* \"#utility.yul\":19944:19948   */\n      0x24\n        /* \"#utility.yul\":19941:19942   */\n      0x00\n        /* \"#utility.yul\":19934:19949   */\n      revert\n        /* \"#utility.yul\":19961:20146   */\n    tag_118:\n        /* \"#utility.yul\":20001:20002   */\n      0x00\n        /* \"#utility.yul\":20018:20038   */\n      tag_382\n        /* \"#utility.yul\":20036:20037   */\n      dup3\n        /* \"#utility.yul\":20018:20038   */\n      tag_127\n      jump\t// in\n    tag_382:\n        /* \"#utility.yul\":20013:20038   */\n      swap2\n      pop\n        /* \"#utility.yul\":20052:20072   */\n      tag_383\n        /* \"#utility.yul\":20070:20071   */\n      dup4\n        /* \"#utility.yul\":20052:20072   */\n      tag_127\n      jump\t// in\n    tag_383:\n        /* \"#utility.yul\":20047:20072   */\n      swap3\n      pop\n        /* \"#utility.yul\":20091:20092   */\n      dup3\n        /* \"#utility.yul\":20081:20116   */\n      tag_384\n      jumpi\n        /* \"#utility.yul\":20096:20114   */\n      tag_385\n      tag_177\n      jump\t// in\n    tag_385:\n        /* \"#utility.yul\":20081:20116   */\n    tag_384:\n        /* \"#utility.yul\":20138:20139   */\n      dup3\n        /* \"#utility.yul\":20135:20136   */\n      dup3\n        /* \"#utility.yul\":20131:20140   */\n      div\n        /* \"#utility.yul\":20126:20140   */\n      swap1\n      pop\n        /* \"#utility.yul\":19961:20146   */\n      swap3\n      swap2\n      pop\n      pop\n      jump\t// out\n        /* \"#utility.yul\":20152:20325   */\n    tag_178:\n        /* \"#utility.yul\":20292:20317   */\n      0x4e6f206561726e696e677320746f207769746864726177000000000000000000\n        /* \"#utility.yul\":20288:20289   */\n      0x00\n        /* \"#utility.yul\":20280:20286   */\n      dup3\n        /* \"#utility.yul\":20276:20290   */\n      add\n        /* \"#utility.yul\":20269:20318   */\n      mstore\n        /* \"#utility.yul\":20152:20325   */\n      pop\n      jump\t// out\n        /* \"#utility.yul\":20331:20697   */\n    tag_179:\n        /* \"#utility.yul\":20473:20476   */\n      0x00\n        /* \"#utility.yul\":20494:20561   */\n      tag_388\n        /* \"#utility.yul\":20558:20560   */\n      0x17\n        /* \"#utility.yul\":20553:20556   */\n      dup4\n        /* \"#utility.yul\":20494:20561   */\n      tag_145\n      jump\t// in\n    tag_388:\n        /* \"#utility.yul\":20487:20561   */\n      swap2\n      pop\n        /* \"#utility.yul\":20570:20663   */\n      tag_389\n        /* \"#utility.yul\":20659:20662   */\n      dup3\n        /* \"#utility.yul\":20570:20663   */\n      tag_178\n      jump\t// in\n    tag_389:\n        /* \"#utility.yul\":20688:20690   */\n      0x20\n        /* \"#utility.yul\":20683:20686   */\n      dup3\n        /* \"#utility.yul\":20679:20691   */\n      add\n        /* \"#utility.yul\":20672:20691   */\n      swap1\n      pop\n        /* \"#utility.yul\":20331:20697   */\n      swap2\n      swap1\n      pop\n      jump\t// out\n        /* \"#utility.yul\":20703:21122   */\n    tag_121:\n        /* \"#utility.yul\":20869:20873   */\n      0x00\n        /* \"#utility.yul\":20907:20909   */\n      0x20\n        /* \"#utility.yul\":20896:20905   */\n      dup3\n        /* \"#utility.yul\":20892:20910   */\n      add\n        /* \"#utility.yul\":20884:20910   */\n      swap1\n      pop\n        /* \"#utility.yul\":20956:20965   */\n      dup2\n        /* \"#utility.yul\":20950:20954   */\n      dup2\n        /* \"#utility.yul\":20946:20966   */\n      sub\n        /* \"#utility.yul\":20942:20943   */\n      0x00\n        /* \"#utility.yul\":20931:20940   */\n      dup4\n        /* \"#utility.yul\":20927:20944   */\n      add\n        /* \"#utility.yul\":20920:20967   */\n      mstore\n        /* \"#utility.yul\":20984:21115   */\n      tag_391\n        /* \"#utility.yul\":21110:21114   */\n      dup2\n        /* \"#utility.yul\":20984:21115   */\n      tag_179\n      jump\t// in\n    tag_391:\n        /* \"#utility.yul\":20976:21115   */\n      swap1\n      pop\n        /* \"#utility.yul\":20703:21122   */\n      swap2\n      swap1\n      pop\n      jump\t// out\n\n    auxdata: 0xa26469706673582212204f2c28218e811404b7cbbf60d07613dea371d1ba0f1f96d976da84f4b74b3af564736f6c634300081a0033\n}\n",
				"bytecode": {
					"linkReferences": {},
					"object": "6080604052662386f26fc100006004553480156019575f80fd5b50611569806100275f395ff3fe60806040526004361061009b575f3560e01c8063931a889b11610063578063931a889b14610176578063b73c6ce9146101a0578063bdc8e54c146101b6578063bf2d9e0b146101e0578063cf14b9e41461020a578063fc6ff96f146102465761009b565b806305b40e191461009f578063231f9f5e146100c7578063304cff30146100ef5780638a15359d146101305780638f449a051461016c575b5f80fd5b3480156100aa575f80fd5b506100c560048036038101906100c09190610a7b565b610270565b005b3480156100d2575f80fd5b506100ed60048036038101906100e89190610be2565b610371565b005b3480156100fa575f80fd5b5061011560048036038101906101109190610a7b565b610543565b60405161012796959493929190610d34565b60405180910390f35b34801561013b575f80fd5b5061015660048036038101906101519190610dd2565b61072c565b6040516101639190610dfd565b60405180910390f35b610174610741565b005b348015610181575f80fd5b5061018a6108e5565b6040516101979190610dfd565b60405180910390f35b3480156101ab575f80fd5b506101b46108ea565b005b3480156101c1575f80fd5b506101ca610a10565b6040516101d79190610dfd565b60405180910390f35b3480156101eb575f80fd5b506101f4610a16565b6040516102019190610dfd565b60405180910390f35b348015610215575f80fd5b50610230600480360381019061022b9190610dd2565b610a1c565b60405161023d9190610dfd565b60405180910390f35b348015610251575f80fd5b5061025a610a31565b6040516102679190610dfd565b60405180910390f35b4260035f3373ffffffffffffffffffffffffffffffffffffffff1673ffffffffffffffffffffffffffffffffffffffff1681526020019081526020015f205410156102f0576040517f08c379a00000000000000000000000000000000000000000000000000000000081526004016102e790610e60565b60405180910390fd5b5f60015f8381526020019081526020015f209050806005015f81548092919061031890610eab565b919050555060065f81548092919061032f90610eab565b91905055507ff8263f8deb4160b94a6e41f6a018f07ebdffad90884cdf4e5dc20efdb52746e48233604051610365929190610ef2565b60405180910390a15050565b5f8351116103b4576040517f08c379a00000000000000000000000000000000000000000000000000000000081526004016103ab90610f63565b60405180910390fd5b5f8151116103f7576040517f08c379a00000000000000000000000000000000000000000000000000000000081526004016103ee90610fcb565b60405180910390fd5b5f8081548092919061040890610eab565b91905055506040518060c001604052805f5481526020013373ffffffffffffffffffffffffffffffffffffffff1681526020018481526020018381526020018281526020015f81525060015f805481526020019081526020015f205f820151815f01556020820151816001015f6101000a81548173ffffffffffffffffffffffffffffffffffffffff021916908373ffffffffffffffffffffffffffffffffffffffff16021790555060408201518160020190816104c691906111e3565b5060608201518160030190816104dc91906111e3565b5060808201518160040190816104f291906111e3565b5060a082015181600501559050507fa15e76a608db68d9c75eef1f7d6055eecaaad4126ed6b33aa1002689ca3c8b4b5f5433858460405161053694939291906112b2565b60405180910390a1505050565b6001602052805f5260405f205f91509050805f015490806001015f9054906101000a900473ffffffffffffffffffffffffffffffffffffffff169080600201805461058d90611016565b80601f01602080910402602001604051908101604052809291908181526020018280546105b990611016565b80156106045780601f106105db57610100808354040283529160200191610604565b820191905f5260205f20905b8154815290600101906020018083116105e757829003601f168201915b50505050509080600301805461061990611016565b80601f016020809104026020016040519081016040528092919081815260200182805461064590611016565b80156106905780601f1061066757610100808354040283529160200191610690565b820191905f5260205f20905b81548152906001019060200180831161067357829003601f168201915b5050505050908060040180546106a590611016565b80601f01602080910402602001604051908101604052809291908181526020018280546106d190611016565b801561071c5780601f106106f35761010080835404028352916020019161071c565b820191905f5260205f20905b8154815290600101906020018083116106ff57829003601f168201915b5050505050908060050154905086565b6002602052805f5260405f205f915090505481565b600454341015610786576040517f08c379a000000000000000000000000000000000000000000000000000000000815260040161077d9061134d565b60405180910390fd5b60035f3373ffffffffffffffffffffffffffffffffffffffff1673ffffffffffffffffffffffffffffffffffffffff1681526020019081526020015f20544211610805576040517f08c379a00000000000000000000000000000000000000000000000000000000081526004016107fc906113b5565b60405180910390fd5b62278d004261081491906113d3565b60035f3373ffffffffffffffffffffffffffffffffffffffff1673ffffffffffffffffffffffffffffffffffffffff1681526020019081526020015f20819055503460055f82825461086691906113d3565b925050819055507f12a9d58ffb04d701ab6af4284b5499dc95596e7bf6294a0970828baa2700545d3360035f3373ffffffffffffffffffffffffffffffffffffffff1673ffffffffffffffffffffffffffffffffffffffff1681526020019081526020015f20546040516108db929190611406565b60405180910390a1565b5f5481565b5f60065460055460025f3373ffffffffffffffffffffffffffffffffffffffff1673ffffffffffffffffffffffffffffffffffffffff1681526020019081526020015f2054610939919061142d565b610943919061149b565b90505f8111610987576040517f08c379a000000000000000000000000000000000000000000000000000000000815260040161097e90611515565b60405180910390fd5b5f60025f3373ffffffffffffffffffffffffffffffffffffffff1673ffffffffffffffffffffffffffffffffffffffff1681526020019081526020015f20819055503373ffffffffffffffffffffffffffffffffffffffff166108fc8290811502906040515f60405180830381858888f19350505050158015610a0c573d5f803e3d5ffd5b5050565b60045481565b60055481565b6003602052805f5260405f205f915090505481565b60065481565b5f604051905090565b5f80fd5b5f80fd5b5f819050919050565b610a5a81610a48565b8114610a64575f80fd5b50565b5f81359050610a7581610a51565b92915050565b5f60208284031215610a9057610a8f610a40565b5b5f610a9d84828501610a67565b91505092915050565b5f80fd5b5f80fd5b5f601f19601f8301169050919050565b7f4e487b71000000000000000000000000000000000000000000000000000000005f52604160045260245ffd5b610af482610aae565b810181811067ffffffffffffffff82111715610b1357610b12610abe565b5b80604052505050565b5f610b25610a37565b9050610b318282610aeb565b919050565b5f67ffffffffffffffff821115610b5057610b4f610abe565b5b610b5982610aae565b9050602081019050919050565b828183375f83830152505050565b5f610b86610b8184610b36565b610b1c565b905082815260208101848484011115610ba257610ba1610aaa565b5b610bad848285610b66565b509392505050565b5f82601f830112610bc957610bc8610aa6565b5b8135610bd9848260208601610b74565b91505092915050565b5f805f60608486031215610bf957610bf8610a40565b5b5f84013567ffffffffffffffff811115610c1657610c15610a44565b5b610c2286828701610bb5565b935050602084013567ffffffffffffffff811115610c4357610c42610a44565b5b610c4f86828701610bb5565b925050604084013567ffffffffffffffff811115610c7057610c6f610a44565b5b610c7c86828701610bb5565b9150509250925092565b610c8f81610a48565b82525050565b5f73ffffffffffffffffffffffffffffffffffffffff82169050919050565b5f610cbe82610c95565b9050919050565b610cce81610cb4565b82525050565b5f81519050919050565b5f82825260208201905092915050565b8281835e5f83830152505050565b5f610d0682610cd4565b610d108185610cde565b9350610d20818560208601610cee565b610d2981610aae565b840191505092915050565b5f60c082019050610d475f830189610c86565b610d546020830188610cc5565b8181036040830152610d668187610cfc565b90508181036060830152610d7a8186610cfc565b90508181036080830152610d8e8185610cfc565b9050610d9d60a0830184610c86565b979650505050505050565b610db181610cb4565b8114610dbb575f80fd5b50565b5f81359050610dcc81610da8565b92915050565b5f60208284031215610de757610de6610a40565b5b5f610df484828501610dbe565b91505092915050565b5f602082019050610e105f830184610c86565b92915050565b7f537562736372697074696f6e20657870697265640000000000000000000000005f82015250565b5f610e4a601483610cde565b9150610e5582610e16565b602082019050919050565b5f6020820190508181035f830152610e7781610e3e565b9050919050565b7f4e487b71000000000000000000000000000000000000000000000000000000005f52601160045260245ffd5b5f610eb582610a48565b91507fffffffffffffffffffffffffffffffffffffffffffffffffffffffffffffffff8203610ee757610ee6610e7e565b5b600182019050919050565b5f604082019050610f055f830185610c86565b610f126020830184610cc5565b9392505050565b7f5469746c652063616e6e6f7420626520656d70747900000000000000000000005f82015250565b5f610f4d601583610cde565b9150610f5882610f19565b602082019050919050565b5f6020820190508181035f830152610f7a81610f41565b9050919050565b7f4950465320686173682063616e6e6f7420626520656d707479000000000000005f82015250565b5f610fb5601983610cde565b9150610fc082610f81565b602082019050919050565b5f6020820190508181035f830152610fe281610fa9565b9050919050565b7f4e487b71000000000000000000000000000000000000000000000000000000005f52602260045260245ffd5b5f600282049050600182168061102d57607f821691505b6020821081036110405761103f610fe9565b5b50919050565b5f819050815f5260205f209050919050565b5f6020601f8301049050919050565b5f82821b905092915050565b5f600883026110a27fffffffffffffffffffffffffffffffffffffffffffffffffffffffffffffffff82611067565b6110ac8683611067565b95508019841693508086168417925050509392505050565b5f819050919050565b5f6110e76110e26110dd84610a48565b6110c4565b610a48565b9050919050565b5f819050919050565b611100836110cd565b61111461110c826110ee565b848454611073565b825550505050565b5f90565b61112861111c565b6111338184846110f7565b505050565b5b818110156111565761114b5f82611120565b600181019050611139565b5050565b601f82111561119b5761116c81611046565b61117584611058565b81016020851015611184578190505b61119861119085611058565b830182611138565b50505b505050565b5f82821c905092915050565b5f6111bb5f19846008026111a0565b1980831691505092915050565b5f6111d383836111ac565b9150826002028217905092915050565b6111ec82610cd4565b67ffffffffffffffff81111561120557611204610abe565b5b61120f8254611016565b61121a82828561115a565b5f60209050601f83116001811461124b575f8415611239578287015190505b61124385826111c8565b8655506112aa565b601f19841661125986611046565b5f5b828110156112805784890151825560018201915060208501945060208101905061125b565b8683101561129d5784890151611299601f8916826111ac565b8355505b6001600288020188555050505b505050505050565b5f6080820190506112c55f830187610c86565b6112d26020830186610cc5565b81810360408301526112e48185610cfc565b905081810360608301526112f88184610cfc565b905095945050505050565b7f496e73756666696369656e74207061796d656e740000000000000000000000005f82015250565b5f611337601483610cde565b915061134282611303565b602082019050919050565b5f6020820190508181035f8301526113648161132b565b9050919050565b7f537562736372697074696f6e207374696c6c20616374697665000000000000005f82015250565b5f61139f601983610cde565b91506113aa8261136b565b602082019050919050565b5f6020820190508181035f8301526113cc81611393565b9050919050565b5f6113dd82610a48565b91506113e883610a48565b9250828201905080821115611400576113ff610e7e565b5b92915050565b5f6040820190506114195f830185610cc5565b6114266020830184610c86565b9392505050565b5f61143782610a48565b915061144283610a48565b925082820261145081610a48565b9150828204841483151761146757611466610e7e565b5b5092915050565b7f4e487b71000000000000000000000000000000000000000000000000000000005f52601260045260245ffd5b5f6114a582610a48565b91506114b083610a48565b9250826114c0576114bf61146e565b5b828204905092915050565b7f4e6f206561726e696e677320746f2077697468647261770000000000000000005f82015250565b5f6114ff601783610cde565b915061150a826114cb565b602082019050919050565b5f6020820190508181035f83015261152c816114f3565b905091905056fea26469706673582212204f2c28218e811404b7cbbf60d07613dea371d1ba0f1f96d976da84f4b74b3af564736f6c634300081a0033",
					"opcodes": "PUSH1 0x80 PUSH1 0x40 MSTORE PUSH7 0x2386F26FC10000 PUSH1 0x4 SSTORE CALLVALUE DUP1 ISZERO PUSH1 0x19 JUMPI PUSH0 DUP1 REVERT JUMPDEST POP PUSH2 0x1569 DUP1 PUSH2 0x27 PUSH0 CODECOPY PUSH0 RETURN INVALID PUSH1 0x80 PUSH1 0x40 MSTORE PUSH1 0x4 CALLDATASIZE LT PUSH2 0x9B JUMPI PUSH0 CALLDATALOAD PUSH1 0xE0 SHR DUP1 PUSH4 0x931A889B GT PUSH2 0x63 JUMPI DUP1 PUSH4 0x931A889B EQ PUSH2 0x176 JUMPI DUP1 PUSH4 0xB73C6CE9 EQ PUSH2 0x1A0 JUMPI DUP1 PUSH4 0xBDC8E54C EQ PUSH2 0x1B6 JUMPI DUP1 PUSH4 0xBF2D9E0B EQ PUSH2 0x1E0 JUMPI DUP1 PUSH4 0xCF14B9E4 EQ PUSH2 0x20A JUMPI DUP1 PUSH4 0xFC6FF96F EQ PUSH2 0x246 JUMPI PUSH2 0x9B JUMP JUMPDEST DUP1 PUSH4 0x5B40E19 EQ PUSH2 0x9F JUMPI DUP1 PUSH4 0x231F9F5E EQ PUSH2 0xC7 JUMPI DUP1 PUSH4 0x304CFF30 EQ PUSH2 0xEF JUMPI DUP1 PUSH4 0x8A15359D EQ PUSH2 0x130 JUMPI DUP1 PUSH4 0x8F449A05 EQ PUSH2 0x16C JUMPI JUMPDEST PUSH0 DUP1 REVERT JUMPDEST CALLVALUE DUP1 ISZERO PUSH2 0xAA JUMPI PUSH0 DUP1 REVERT JUMPDEST POP PUSH2 0xC5 PUSH1 0x4 DUP1 CALLDATASIZE SUB DUP2 ADD SWAP1 PUSH2 0xC0 SWAP2 SWAP1 PUSH2 0xA7B JUMP JUMPDEST PUSH2 0x270 JUMP JUMPDEST STOP JUMPDEST CALLVALUE DUP1 ISZERO PUSH2 0xD2 JUMPI PUSH0 DUP1 REVERT JUMPDEST POP PUSH2 0xED PUSH1 0x4 DUP1 CALLDATASIZE SUB DUP2 ADD SWAP1 PUSH2 0xE8 SWAP2 SWAP1 PUSH2 0xBE2 JUMP JUMPDEST PUSH2 0x371 JUMP JUMPDEST STOP JUMPDEST CALLVALUE DUP1 ISZERO PUSH2 0xFA JUMPI PUSH0 DUP1 REVERT JUMPDEST POP PUSH2 0x115 PUSH1 0x4 DUP1 CALLDATASIZE SUB DUP2 ADD SWAP1 PUSH2 0x110 SWAP2 SWAP1 PUSH2 0xA7B JUMP JUMPDEST PUSH2 0x543 JUMP JUMPDEST PUSH1 0x40 MLOAD PUSH2 0x127 SWAP7 SWAP6 SWAP5 SWAP4 SWAP3 SWAP2 SWAP1 PUSH2 0xD34 JUMP JUMPDEST PUSH1 0x40 MLOAD DUP1 SWAP2 SUB SWAP1 RETURN JUMPDEST CALLVALUE DUP1 ISZERO PUSH2 0x13B JUMPI PUSH0 DUP1 REVERT JUMPDEST POP PUSH2 0x156 PUSH1 0x4 DUP1 CALLDATASIZE SUB DUP2 ADD SWAP1 PUSH2 0x151 SWAP2 SWAP1 PUSH2 0xDD2 JUMP JUMPDEST PUSH2 0x72C JUMP JUMPDEST PUSH1 0x40 MLOAD PUSH2 0x163 SWAP2 SWAP1 PUSH2 0xDFD JUMP JUMPDEST PUSH1 0x40 MLOAD DUP1 SWAP2 SUB SWAP1 RETURN JUMPDEST PUSH2 0x174 PUSH2 0x741 JUMP JUMPDEST STOP JUMPDEST CALLVALUE DUP1 ISZERO PUSH2 0x181 JUMPI PUSH0 DUP1 REVERT JUMPDEST POP PUSH2 0x18A PUSH2 0x8E5 JUMP JUMPDEST PUSH1 0x40 MLOAD PUSH2 0x197 SWAP2 SWAP1 PUSH2 0xDFD JUMP JUMPDEST PUSH1 0x40 MLOAD DUP1 SWAP2 SUB SWAP1 RETURN JUMPDEST CALLVALUE DUP1 ISZERO PUSH2 0x1AB JUMPI PUSH0 DUP1 REVERT JUMPDEST POP PUSH2 0x1B4 PUSH2 0x8EA JUMP JUMPDEST STOP JUMPDEST CALLVALUE DUP1 ISZERO PUSH2 0x1C1 JUMPI PUSH0 DUP1 REVERT JUMPDEST POP PUSH2 0x1CA PUSH2 0xA10 JUMP JUMPDEST PUSH1 0x40 MLOAD PUSH2 0x1D7 SWAP2 SWAP1 PUSH2 0xDFD JUMP JUMPDEST PUSH1 0x40 MLOAD DUP1 SWAP2 SUB SWAP1 RETURN JUMPDEST CALLVALUE DUP1 ISZERO PUSH2 0x1EB JUMPI PUSH0 DUP1 REVERT JUMPDEST POP PUSH2 0x1F4 PUSH2 0xA16 JUMP JUMPDEST PUSH1 0x40 MLOAD PUSH2 0x201 SWAP2 SWAP1 PUSH2 0xDFD JUMP JUMPDEST PUSH1 0x40 MLOAD DUP1 SWAP2 SUB SWAP1 RETURN JUMPDEST CALLVALUE DUP1 ISZERO PUSH2 0x215 JUMPI PUSH0 DUP1 REVERT JUMPDEST POP PUSH2 0x230 PUSH1 0x4 DUP1 CALLDATASIZE SUB DUP2 ADD SWAP1 PUSH2 0x22B SWAP2 SWAP1 PUSH2 0xDD2 JUMP JUMPDEST PUSH2 0xA1C JUMP JUMPDEST PUSH1 0x40 MLOAD PUSH2 0x23D SWAP2 SWAP1 PUSH2 0xDFD JUMP JUMPDEST PUSH1 0x40 MLOAD DUP1 SWAP2 SUB SWAP1 RETURN JUMPDEST CALLVALUE DUP1 ISZERO PUSH2 0x251 JUMPI PUSH0 DUP1 REVERT JUMPDEST POP PUSH2 0x25A PUSH2 0xA31 JUMP JUMPDEST PUSH1 0x40 MLOAD PUSH2 0x267 SWAP2 SWAP1 PUSH2 0xDFD JUMP JUMPDEST PUSH1 0x40 MLOAD DUP1 SWAP2 SUB SWAP1 RETURN JUMPDEST TIMESTAMP PUSH1 0x3 PUSH0 CALLER PUSH20 0xFFFFFFFFFFFFFFFFFFFFFFFFFFFFFFFFFFFFFFFF AND PUSH20 0xFFFFFFFFFFFFFFFFFFFFFFFFFFFFFFFFFFFFFFFF AND DUP2 MSTORE PUSH1 0x20 ADD SWAP1 DUP2 MSTORE PUSH1 0x20 ADD PUSH0 KECCAK256 SLOAD LT ISZERO PUSH2 0x2F0 JUMPI PUSH1 0x40 MLOAD PUSH32 0x8C379A000000000000000000000000000000000000000000000000000000000 DUP2 MSTORE PUSH1 0x4 ADD PUSH2 0x2E7 SWAP1 PUSH2 0xE60 JUMP JUMPDEST PUSH1 0x40 MLOAD DUP1 SWAP2 SUB SWAP1 REVERT JUMPDEST PUSH0 PUSH1 0x1 PUSH0 DUP4 DUP2 MSTORE PUSH1 0x20 ADD SWAP1 DUP2 MSTORE PUSH1 0x20 ADD PUSH0 KECCAK256 SWAP1 POP DUP1 PUSH1 0x5 ADD PUSH0 DUP2 SLOAD DUP1 SWAP3 SWAP2 SWAP1 PUSH2 0x318 SWAP1 PUSH2 0xEAB JUMP JUMPDEST SWAP2 SWAP1 POP SSTORE POP PUSH1 0x6 PUSH0 DUP2 SLOAD DUP1 SWAP3 SWAP2 SWAP1 PUSH2 0x32F SWAP1 PUSH2 0xEAB JUMP JUMPDEST SWAP2 SWAP1 POP SSTORE POP PUSH32 0xF8263F8DEB4160B94A6E41F6A018F07EBDFFAD90884CDF4E5DC20EFDB52746E4 DUP3 CALLER PUSH1 0x40 MLOAD PUSH2 0x365 SWAP3 SWAP2 SWAP1 PUSH2 0xEF2 JUMP JUMPDEST PUSH1 0x40 MLOAD DUP1 SWAP2 SUB SWAP1 LOG1 POP POP JUMP JUMPDEST PUSH0 DUP4 MLOAD GT PUSH2 0x3B4 JUMPI PUSH1 0x40 MLOAD PUSH32 0x8C379A000000000000000000000000000000000000000000000000000000000 DUP2 MSTORE PUSH1 0x4 ADD PUSH2 0x3AB SWAP1 PUSH2 0xF63 JUMP JUMPDEST PUSH1 0x40 MLOAD DUP1 SWAP2 SUB SWAP1 REVERT JUMPDEST PUSH0 DUP2 MLOAD GT PUSH2 0x3F7 JUMPI PUSH1 0x40 MLOAD PUSH32 0x8C379A000000000000000000000000000000000000000000000000000000000 DUP2 MSTORE PUSH1 0x4 ADD PUSH2 0x3EE SWAP1 PUSH2 0xFCB JUMP JUMPDEST PUSH1 0x40 MLOAD DUP1 SWAP2 SUB SWAP1 REVERT JUMPDEST PUSH0 DUP1 DUP2 SLOAD DUP1 SWAP3 SWAP2 SWAP1 PUSH2 0x408 SWAP1 PUSH2 0xEAB JUMP JUMPDEST SWAP2 SWAP1 POP SSTORE POP PUSH1 0x40 MLOAD DUP1 PUSH1 0xC0 ADD PUSH1 0x40 MSTORE DUP1 PUSH0 SLOAD DUP2 MSTORE PUSH1 0x20 ADD CALLER PUSH20 0xFFFFFFFFFFFFFFFFFFFFFFFFFFFFFFFFFFFFFFFF AND DUP2 MSTORE PUSH1 0x20 ADD DUP5 DUP2 MSTORE PUSH1 0x20 ADD DUP4 DUP2 MSTORE PUSH1 0x20 ADD DUP3 DUP2 MSTORE PUSH1 0x20 ADD PUSH0 DUP2 MSTORE POP PUSH1 0x1 PUSH0 DUP1 SLOAD DUP2 MSTORE PUSH1 0x20 ADD SWAP1 DUP2 MSTORE PUSH1 0x20 ADD PUSH0 KECCAK256 PUSH0 DUP3 ADD MLOAD DUP2 PUSH0 ADD SSTORE PUSH1 0x20 DUP3 ADD MLOAD DUP2 PUSH1 0x1 ADD PUSH0 PUSH2 0x100 EXP DUP2 SLOAD DUP2 PUSH20 0xFFFFFFFFFFFFFFFFFFFFFFFFFFFFFFFFFFFFFFFF MUL NOT AND SWAP1 DUP4 PUSH20 0xFFFFFFFFFFFFFFFFFFFFFFFFFFFFFFFFFFFFFFFF AND MUL OR SWAP1 SSTORE POP PUSH1 0x40 DUP3 ADD MLOAD DUP2 PUSH1 0x2 ADD SWAP1 DUP2 PUSH2 0x4C6 SWAP2 SWAP1 PUSH2 0x11E3 JUMP JUMPDEST POP PUSH1 0x60 DUP3 ADD MLOAD DUP2 PUSH1 0x3 ADD SWAP1 DUP2 PUSH2 0x4DC SWAP2 SWAP1 PUSH2 0x11E3 JUMP JUMPDEST POP PUSH1 0x80 DUP3 ADD MLOAD DUP2 PUSH1 0x4 ADD SWAP1 DUP2 PUSH2 0x4F2 SWAP2 SWAP1 PUSH2 0x11E3 JUMP JUMPDEST POP PUSH1 0xA0 DUP3 ADD MLOAD DUP2 PUSH1 0x5 ADD SSTORE SWAP1 POP POP PUSH32 0xA15E76A608DB68D9C75EEF1F7D6055EECAAAD4126ED6B33AA1002689CA3C8B4B PUSH0 SLOAD CALLER DUP6 DUP5 PUSH1 0x40 MLOAD PUSH2 0x536 SWAP5 SWAP4 SWAP3 SWAP2 SWAP1 PUSH2 0x12B2 JUMP JUMPDEST PUSH1 0x40 MLOAD DUP1 SWAP2 SUB SWAP1 LOG1 POP POP POP JUMP JUMPDEST PUSH1 0x1 PUSH1 0x20 MSTORE DUP1 PUSH0 MSTORE PUSH1 0x40 PUSH0 KECCAK256 PUSH0 SWAP2 POP SWAP1 POP DUP1 PUSH0 ADD SLOAD SWAP1 DUP1 PUSH1 0x1 ADD PUSH0 SWAP1 SLOAD SWAP1 PUSH2 0x100 EXP SWAP1 DIV PUSH20 0xFFFFFFFFFFFFFFFFFFFFFFFFFFFFFFFFFFFFFFFF AND SWAP1 DUP1 PUSH1 0x2 ADD DUP1 SLOAD PUSH2 0x58D SWAP1 PUSH2 0x1016 JUMP JUMPDEST DUP1 PUSH1 0x1F ADD PUSH1 0x20 DUP1 SWAP2 DIV MUL PUSH1 0x20 ADD PUSH1 0x40 MLOAD SWAP1 DUP2 ADD PUSH1 0x40 MSTORE DUP1 SWAP3 SWAP2 SWAP1 DUP2 DUP2 MSTORE PUSH1 0x20 ADD DUP3 DUP1 SLOAD PUSH2 0x5B9 SWAP1 PUSH2 0x1016 JUMP JUMPDEST DUP1 ISZERO PUSH2 0x604 JUMPI DUP1 PUSH1 0x1F LT PUSH2 0x5DB JUMPI PUSH2 0x100 DUP1 DUP4 SLOAD DIV MUL DUP4 MSTORE SWAP2 PUSH1 0x20 ADD SWAP2 PUSH2 0x604 JUMP JUMPDEST DUP3 ADD SWAP2 SWAP1 PUSH0 MSTORE PUSH1 0x20 PUSH0 KECCAK256 SWAP1 JUMPDEST DUP2 SLOAD DUP2 MSTORE SWAP1 PUSH1 0x1 ADD SWAP1 PUSH1 0x20 ADD DUP1 DUP4 GT PUSH2 0x5E7 JUMPI DUP3 SWAP1 SUB PUSH1 0x1F AND DUP3 ADD SWAP2 JUMPDEST POP POP POP POP POP SWAP1 DUP1 PUSH1 0x3 ADD DUP1 SLOAD PUSH2 0x619 SWAP1 PUSH2 0x1016 JUMP JUMPDEST DUP1 PUSH1 0x1F ADD PUSH1 0x20 DUP1 SWAP2 DIV MUL PUSH1 0x20 ADD PUSH1 0x40 MLOAD SWAP1 DUP2 ADD PUSH1 0x40 MSTORE DUP1 SWAP3 SWAP2 SWAP1 DUP2 DUP2 MSTORE PUSH1 0x20 ADD DUP3 DUP1 SLOAD PUSH2 0x645 SWAP1 PUSH2 0x1016 JUMP JUMPDEST DUP1 ISZERO PUSH2 0x690 JUMPI DUP1 PUSH1 0x1F LT PUSH2 0x667 JUMPI PUSH2 0x100 DUP1 DUP4 SLOAD DIV MUL DUP4 MSTORE SWAP2 PUSH1 0x20 ADD SWAP2 PUSH2 0x690 JUMP JUMPDEST DUP3 ADD SWAP2 SWAP1 PUSH0 MSTORE PUSH1 0x20 PUSH0 KECCAK256 SWAP1 JUMPDEST DUP2 SLOAD DUP2 MSTORE SWAP1 PUSH1 0x1 ADD SWAP1 PUSH1 0x20 ADD DUP1 DUP4 GT PUSH2 0x673 JUMPI DUP3 SWAP1 SUB PUSH1 0x1F AND DUP3 ADD SWAP2 JUMPDEST POP POP POP POP POP SWAP1 DUP1 PUSH1 0x4 ADD DUP1 SLOAD PUSH2 0x6A5 SWAP1 PUSH2 0x1016 JUMP JUMPDEST DUP1 PUSH1 0x1F ADD PUSH1 0x20 DUP1 SWAP2 DIV MUL PUSH1 0x20 ADD PUSH1 0x40 MLOAD SWAP1 DUP2 ADD PUSH1 0x40 MSTORE DUP1 SWAP3 SWAP2 SWAP1 DUP2 DUP2 MSTORE PUSH1 0x20 ADD DUP3 DUP1 SLOAD PUSH2 0x6D1 SWAP1 PUSH2 0x1016 JUMP JUMPDEST DUP1 ISZERO PUSH2 0x71C JUMPI DUP1 PUSH1 0x1F LT PUSH2 0x6F3 JUMPI PUSH2 0x100 DUP1 DUP4 SLOAD DIV MUL DUP4 MSTORE SWAP2 PUSH1 0x20 ADD SWAP2 PUSH2 0x71C JUMP JUMPDEST DUP3 ADD SWAP2 SWAP1 PUSH0 MSTORE PUSH1 0x20 PUSH0 KECCAK256 SWAP1 JUMPDEST DUP2 SLOAD DUP2 MSTORE SWAP1 PUSH1 0x1 ADD SWAP1 PUSH1 0x20 ADD DUP1 DUP4 GT PUSH2 0x6FF JUMPI DUP3 SWAP1 SUB PUSH1 0x1F AND DUP3 ADD SWAP2 JUMPDEST POP POP POP POP POP SWAP1 DUP1 PUSH1 0x5 ADD SLOAD SWAP1 POP DUP7 JUMP JUMPDEST PUSH1 0x2 PUSH1 0x20 MSTORE DUP1 PUSH0 MSTORE PUSH1 0x40 PUSH0 KECCAK256 PUSH0 SWAP2 POP SWAP1 POP SLOAD DUP2 JUMP JUMPDEST PUSH1 0x4 SLOAD CALLVALUE LT ISZERO PUSH2 0x786 JUMPI PUSH1 0x40 MLOAD PUSH32 0x8C379A000000000000000000000000000000000000000000000000000000000 DUP2 MSTORE PUSH1 0x4 ADD PUSH2 0x77D SWAP1 PUSH2 0x134D JUMP JUMPDEST PUSH1 0x40 MLOAD DUP1 SWAP2 SUB SWAP1 REVERT JUMPDEST PUSH1 0x3 PUSH0 CALLER PUSH20 0xFFFFFFFFFFFFFFFFFFFFFFFFFFFFFFFFFFFFFFFF AND PUSH20 0xFFFFFFFFFFFFFFFFFFFFFFFFFFFFFFFFFFFFFFFF AND DUP2 MSTORE PUSH1 0x20 ADD SWAP1 DUP2 MSTORE PUSH1 0x20 ADD PUSH0 KECCAK256 SLOAD TIMESTAMP GT PUSH2 0x805 JUMPI PUSH1 0x40 MLOAD PUSH32 0x8C379A000000000000000000000000000000000000000000000000000000000 DUP2 MSTORE PUSH1 0x4 ADD PUSH2 0x7FC SWAP1 PUSH2 0x13B5 JUMP JUMPDEST PUSH1 0x40 MLOAD DUP1 SWAP2 SUB SWAP1 REVERT JUMPDEST PUSH3 0x278D00 TIMESTAMP PUSH2 0x814 SWAP2 SWAP1 PUSH2 0x13D3 JUMP JUMPDEST PUSH1 0x3 PUSH0 CALLER PUSH20 0xFFFFFFFFFFFFFFFFFFFFFFFFFFFFFFFFFFFFFFFF AND PUSH20 0xFFFFFFFFFFFFFFFFFFFFFFFFFFFFFFFFFFFFFFFF AND DUP2 MSTORE PUSH1 0x20 ADD SWAP1 DUP2 MSTORE PUSH1 0x20 ADD PUSH0 KECCAK256 DUP2 SWAP1 SSTORE POP CALLVALUE PUSH1 0x5 PUSH0 DUP3 DUP3 SLOAD PUSH2 0x866 SWAP2 SWAP1 PUSH2 0x13D3 JUMP JUMPDEST SWAP3 POP POP DUP2 SWAP1 SSTORE POP PUSH32 0x12A9D58FFB04D701AB6AF4284B5499DC95596E7BF6294A0970828BAA2700545D CALLER PUSH1 0x3 PUSH0 CALLER PUSH20 0xFFFFFFFFFFFFFFFFFFFFFFFFFFFFFFFFFFFFFFFF AND PUSH20 0xFFFFFFFFFFFFFFFFFFFFFFFFFFFFFFFFFFFFFFFF AND DUP2 MSTORE PUSH1 0x20 ADD SWAP1 DUP2 MSTORE PUSH1 0x20 ADD PUSH0 KECCAK256 SLOAD PUSH1 0x40 MLOAD PUSH2 0x8DB SWAP3 SWAP2 SWAP1 PUSH2 0x1406 JUMP JUMPDEST PUSH1 0x40 MLOAD DUP1 SWAP2 SUB SWAP1 LOG1 JUMP JUMPDEST PUSH0 SLOAD DUP2 JUMP JUMPDEST PUSH0 PUSH1 0x6 SLOAD PUSH1 0x5 SLOAD PUSH1 0x2 PUSH0 CALLER PUSH20 0xFFFFFFFFFFFFFFFFFFFFFFFFFFFFFFFFFFFFFFFF AND PUSH20 0xFFFFFFFFFFFFFFFFFFFFFFFFFFFFFFFFFFFFFFFF AND DUP2 MSTORE PUSH1 0x20 ADD SWAP1 DUP2 MSTORE PUSH1 0x20 ADD PUSH0 KECCAK256 SLOAD PUSH2 0x939 SWAP2 SWAP1 PUSH2 0x142D JUMP JUMPDEST PUSH2 0x943 SWAP2 SWAP1 PUSH2 0x149B JUMP JUMPDEST SWAP1 POP PUSH0 DUP2 GT PUSH2 0x987 JUMPI PUSH1 0x40 MLOAD PUSH32 0x8C379A000000000000000000000000000000000000000000000000000000000 DUP2 MSTORE PUSH1 0x4 ADD PUSH2 0x97E SWAP1 PUSH2 0x1515 JUMP JUMPDEST PUSH1 0x40 MLOAD DUP1 SWAP2 SUB SWAP1 REVERT JUMPDEST PUSH0 PUSH1 0x2 PUSH0 CALLER PUSH20 0xFFFFFFFFFFFFFFFFFFFFFFFFFFFFFFFFFFFFFFFF AND PUSH20 0xFFFFFFFFFFFFFFFFFFFFFFFFFFFFFFFFFFFFFFFF AND DUP2 MSTORE PUSH1 0x20 ADD SWAP1 DUP2 MSTORE PUSH1 0x20 ADD PUSH0 KECCAK256 DUP2 SWAP1 SSTORE POP CALLER PUSH20 0xFFFFFFFFFFFFFFFFFFFFFFFFFFFFFFFFFFFFFFFF AND PUSH2 0x8FC DUP3 SWAP1 DUP2 ISZERO MUL SWAP1 PUSH1 0x40 MLOAD PUSH0 PUSH1 0x40 MLOAD DUP1 DUP4 SUB DUP2 DUP6 DUP9 DUP9 CALL SWAP4 POP POP POP POP ISZERO DUP1 ISZERO PUSH2 0xA0C JUMPI RETURNDATASIZE PUSH0 DUP1 RETURNDATACOPY RETURNDATASIZE PUSH0 REVERT JUMPDEST POP POP JUMP JUMPDEST PUSH1 0x4 SLOAD DUP2 JUMP JUMPDEST PUSH1 0x5 SLOAD DUP2 JUMP JUMPDEST PUSH1 0x3 PUSH1 0x20 MSTORE DUP1 PUSH0 MSTORE PUSH1 0x40 PUSH0 KECCAK256 PUSH0 SWAP2 POP SWAP1 POP SLOAD DUP2 JUMP JUMPDEST PUSH1 0x6 SLOAD DUP2 JUMP JUMPDEST PUSH0 PUSH1 0x40 MLOAD SWAP1 POP SWAP1 JUMP JUMPDEST PUSH0 DUP1 REVERT JUMPDEST PUSH0 DUP1 REVERT JUMPDEST PUSH0 DUP2 SWAP1 POP SWAP2 SWAP1 POP JUMP JUMPDEST PUSH2 0xA5A DUP2 PUSH2 0xA48 JUMP JUMPDEST DUP2 EQ PUSH2 0xA64 JUMPI PUSH0 DUP1 REVERT JUMPDEST POP JUMP JUMPDEST PUSH0 DUP2 CALLDATALOAD SWAP1 POP PUSH2 0xA75 DUP2 PUSH2 0xA51 JUMP JUMPDEST SWAP3 SWAP2 POP POP JUMP JUMPDEST PUSH0 PUSH1 0x20 DUP3 DUP5 SUB SLT ISZERO PUSH2 0xA90 JUMPI PUSH2 0xA8F PUSH2 0xA40 JUMP JUMPDEST JUMPDEST PUSH0 PUSH2 0xA9D DUP5 DUP3 DUP6 ADD PUSH2 0xA67 JUMP JUMPDEST SWAP2 POP POP SWAP3 SWAP2 POP POP JUMP JUMPDEST PUSH0 DUP1 REVERT JUMPDEST PUSH0 DUP1 REVERT JUMPDEST PUSH0 PUSH1 0x1F NOT PUSH1 0x1F DUP4 ADD AND SWAP1 POP SWAP2 SWAP1 POP JUMP JUMPDEST PUSH32 0x4E487B7100000000000000000000000000000000000000000000000000000000 PUSH0 MSTORE PUSH1 0x41 PUSH1 0x4 MSTORE PUSH1 0x24 PUSH0 REVERT JUMPDEST PUSH2 0xAF4 DUP3 PUSH2 0xAAE JUMP JUMPDEST DUP2 ADD DUP2 DUP2 LT PUSH8 0xFFFFFFFFFFFFFFFF DUP3 GT OR ISZERO PUSH2 0xB13 JUMPI PUSH2 0xB12 PUSH2 0xABE JUMP JUMPDEST JUMPDEST DUP1 PUSH1 0x40 MSTORE POP POP POP JUMP JUMPDEST PUSH0 PUSH2 0xB25 PUSH2 0xA37 JUMP JUMPDEST SWAP1 POP PUSH2 0xB31 DUP3 DUP3 PUSH2 0xAEB JUMP JUMPDEST SWAP2 SWAP1 POP JUMP JUMPDEST PUSH0 PUSH8 0xFFFFFFFFFFFFFFFF DUP3 GT ISZERO PUSH2 0xB50 JUMPI PUSH2 0xB4F PUSH2 0xABE JUMP JUMPDEST JUMPDEST PUSH2 0xB59 DUP3 PUSH2 0xAAE JUMP JUMPDEST SWAP1 POP PUSH1 0x20 DUP2 ADD SWAP1 POP SWAP2 SWAP1 POP JUMP JUMPDEST DUP3 DUP2 DUP4 CALLDATACOPY PUSH0 DUP4 DUP4 ADD MSTORE POP POP POP JUMP JUMPDEST PUSH0 PUSH2 0xB86 PUSH2 0xB81 DUP5 PUSH2 0xB36 JUMP JUMPDEST PUSH2 0xB1C JUMP JUMPDEST SWAP1 POP DUP3 DUP2 MSTORE PUSH1 0x20 DUP2 ADD DUP5 DUP5 DUP5 ADD GT ISZERO PUSH2 0xBA2 JUMPI PUSH2 0xBA1 PUSH2 0xAAA JUMP JUMPDEST JUMPDEST PUSH2 0xBAD DUP5 DUP3 DUP6 PUSH2 0xB66 JUMP JUMPDEST POP SWAP4 SWAP3 POP POP POP JUMP JUMPDEST PUSH0 DUP3 PUSH1 0x1F DUP4 ADD SLT PUSH2 0xBC9 JUMPI PUSH2 0xBC8 PUSH2 0xAA6 JUMP JUMPDEST JUMPDEST DUP2 CALLDATALOAD PUSH2 0xBD9 DUP5 DUP3 PUSH1 0x20 DUP7 ADD PUSH2 0xB74 JUMP JUMPDEST SWAP2 POP POP SWAP3 SWAP2 POP POP JUMP JUMPDEST PUSH0 DUP1 PUSH0 PUSH1 0x60 DUP5 DUP7 SUB SLT ISZERO PUSH2 0xBF9 JUMPI PUSH2 0xBF8 PUSH2 0xA40 JUMP JUMPDEST JUMPDEST PUSH0 DUP5 ADD CALLDATALOAD PUSH8 0xFFFFFFFFFFFFFFFF DUP2 GT ISZERO PUSH2 0xC16 JUMPI PUSH2 0xC15 PUSH2 0xA44 JUMP JUMPDEST JUMPDEST PUSH2 0xC22 DUP7 DUP3 DUP8 ADD PUSH2 0xBB5 JUMP JUMPDEST SWAP4 POP POP PUSH1 0x20 DUP5 ADD CALLDATALOAD PUSH8 0xFFFFFFFFFFFFFFFF DUP2 GT ISZERO PUSH2 0xC43 JUMPI PUSH2 0xC42 PUSH2 0xA44 JUMP JUMPDEST JUMPDEST PUSH2 0xC4F DUP7 DUP3 DUP8 ADD PUSH2 0xBB5 JUMP JUMPDEST SWAP3 POP POP PUSH1 0x40 DUP5 ADD CALLDATALOAD PUSH8 0xFFFFFFFFFFFFFFFF DUP2 GT ISZERO PUSH2 0xC70 JUMPI PUSH2 0xC6F PUSH2 0xA44 JUMP JUMPDEST JUMPDEST PUSH2 0xC7C DUP7 DUP3 DUP8 ADD PUSH2 0xBB5 JUMP JUMPDEST SWAP2 POP POP SWAP3 POP SWAP3 POP SWAP3 JUMP JUMPDEST PUSH2 0xC8F DUP2 PUSH2 0xA48 JUMP JUMPDEST DUP3 MSTORE POP POP JUMP JUMPDEST PUSH0 PUSH20 0xFFFFFFFFFFFFFFFFFFFFFFFFFFFFFFFFFFFFFFFF DUP3 AND SWAP1 POP SWAP2 SWAP1 POP JUMP JUMPDEST PUSH0 PUSH2 0xCBE DUP3 PUSH2 0xC95 JUMP JUMPDEST SWAP1 POP SWAP2 SWAP1 POP JUMP JUMPDEST PUSH2 0xCCE DUP2 PUSH2 0xCB4 JUMP JUMPDEST DUP3 MSTORE POP POP JUMP JUMPDEST PUSH0 DUP2 MLOAD SWAP1 POP SWAP2 SWAP1 POP JUMP JUMPDEST PUSH0 DUP3 DUP3 MSTORE PUSH1 0x20 DUP3 ADD SWAP1 POP SWAP3 SWAP2 POP POP JUMP JUMPDEST DUP3 DUP2 DUP4 MCOPY PUSH0 DUP4 DUP4 ADD MSTORE POP POP POP JUMP JUMPDEST PUSH0 PUSH2 0xD06 DUP3 PUSH2 0xCD4 JUMP JUMPDEST PUSH2 0xD10 DUP2 DUP6 PUSH2 0xCDE JUMP JUMPDEST SWAP4 POP PUSH2 0xD20 DUP2 DUP6 PUSH1 0x20 DUP7 ADD PUSH2 0xCEE JUMP JUMPDEST PUSH2 0xD29 DUP2 PUSH2 0xAAE JUMP JUMPDEST DUP5 ADD SWAP2 POP POP SWAP3 SWAP2 POP POP JUMP JUMPDEST PUSH0 PUSH1 0xC0 DUP3 ADD SWAP1 POP PUSH2 0xD47 PUSH0 DUP4 ADD DUP10 PUSH2 0xC86 JUMP JUMPDEST PUSH2 0xD54 PUSH1 0x20 DUP4 ADD DUP9 PUSH2 0xCC5 JUMP JUMPDEST DUP2 DUP2 SUB PUSH1 0x40 DUP4 ADD MSTORE PUSH2 0xD66 DUP2 DUP8 PUSH2 0xCFC JUMP JUMPDEST SWAP1 POP DUP2 DUP2 SUB PUSH1 0x60 DUP4 ADD MSTORE PUSH2 0xD7A DUP2 DUP7 PUSH2 0xCFC JUMP JUMPDEST SWAP1 POP DUP2 DUP2 SUB PUSH1 0x80 DUP4 ADD MSTORE PUSH2 0xD8E DUP2 DUP6 PUSH2 0xCFC JUMP JUMPDEST SWAP1 POP PUSH2 0xD9D PUSH1 0xA0 DUP4 ADD DUP5 PUSH2 0xC86 JUMP JUMPDEST SWAP8 SWAP7 POP POP POP POP POP POP POP JUMP JUMPDEST PUSH2 0xDB1 DUP2 PUSH2 0xCB4 JUMP JUMPDEST DUP2 EQ PUSH2 0xDBB JUMPI PUSH0 DUP1 REVERT JUMPDEST POP JUMP JUMPDEST PUSH0 DUP2 CALLDATALOAD SWAP1 POP PUSH2 0xDCC DUP2 PUSH2 0xDA8 JUMP JUMPDEST SWAP3 SWAP2 POP POP JUMP JUMPDEST PUSH0 PUSH1 0x20 DUP3 DUP5 SUB SLT ISZERO PUSH2 0xDE7 JUMPI PUSH2 0xDE6 PUSH2 0xA40 JUMP JUMPDEST JUMPDEST PUSH0 PUSH2 0xDF4 DUP5 DUP3 DUP6 ADD PUSH2 0xDBE JUMP JUMPDEST SWAP2 POP POP SWAP3 SWAP2 POP POP JUMP JUMPDEST PUSH0 PUSH1 0x20 DUP3 ADD SWAP1 POP PUSH2 0xE10 PUSH0 DUP4 ADD DUP5 PUSH2 0xC86 JUMP JUMPDEST SWAP3 SWAP2 POP POP JUMP JUMPDEST PUSH32 0x537562736372697074696F6E2065787069726564000000000000000000000000 PUSH0 DUP3 ADD MSTORE POP JUMP JUMPDEST PUSH0 PUSH2 0xE4A PUSH1 0x14 DUP4 PUSH2 0xCDE JUMP JUMPDEST SWAP2 POP PUSH2 0xE55 DUP3 PUSH2 0xE16 JUMP JUMPDEST PUSH1 0x20 DUP3 ADD SWAP1 POP SWAP2 SWAP1 POP JUMP JUMPDEST PUSH0 PUSH1 0x20 DUP3 ADD SWAP1 POP DUP2 DUP2 SUB PUSH0 DUP4 ADD MSTORE PUSH2 0xE77 DUP2 PUSH2 0xE3E JUMP JUMPDEST SWAP1 POP SWAP2 SWAP1 POP JUMP JUMPDEST PUSH32 0x4E487B7100000000000000000000000000000000000000000000000000000000 PUSH0 MSTORE PUSH1 0x11 PUSH1 0x4 MSTORE PUSH1 0x24 PUSH0 REVERT JUMPDEST PUSH0 PUSH2 0xEB5 DUP3 PUSH2 0xA48 JUMP JUMPDEST SWAP2 POP PUSH32 0xFFFFFFFFFFFFFFFFFFFFFFFFFFFFFFFFFFFFFFFFFFFFFFFFFFFFFFFFFFFFFFFF DUP3 SUB PUSH2 0xEE7 JUMPI PUSH2 0xEE6 PUSH2 0xE7E JUMP JUMPDEST JUMPDEST PUSH1 0x1 DUP3 ADD SWAP1 POP SWAP2 SWAP1 POP JUMP JUMPDEST PUSH0 PUSH1 0x40 DUP3 ADD SWAP1 POP PUSH2 0xF05 PUSH0 DUP4 ADD DUP6 PUSH2 0xC86 JUMP JUMPDEST PUSH2 0xF12 PUSH1 0x20 DUP4 ADD DUP5 PUSH2 0xCC5 JUMP JUMPDEST SWAP4 SWAP3 POP POP POP JUMP JUMPDEST PUSH32 0x5469746C652063616E6E6F7420626520656D7074790000000000000000000000 PUSH0 DUP3 ADD MSTORE POP JUMP JUMPDEST PUSH0 PUSH2 0xF4D PUSH1 0x15 DUP4 PUSH2 0xCDE JUMP JUMPDEST SWAP2 POP PUSH2 0xF58 DUP3 PUSH2 0xF19 JUMP JUMPDEST PUSH1 0x20 DUP3 ADD SWAP1 POP SWAP2 SWAP1 POP JUMP JUMPDEST PUSH0 PUSH1 0x20 DUP3 ADD SWAP1 POP DUP2 DUP2 SUB PUSH0 DUP4 ADD MSTORE PUSH2 0xF7A DUP2 PUSH2 0xF41 JUMP JUMPDEST SWAP1 POP SWAP2 SWAP1 POP JUMP JUMPDEST PUSH32 0x4950465320686173682063616E6E6F7420626520656D70747900000000000000 PUSH0 DUP3 ADD MSTORE POP JUMP JUMPDEST PUSH0 PUSH2 0xFB5 PUSH1 0x19 DUP4 PUSH2 0xCDE JUMP JUMPDEST SWAP2 POP PUSH2 0xFC0 DUP3 PUSH2 0xF81 JUMP JUMPDEST PUSH1 0x20 DUP3 ADD SWAP1 POP SWAP2 SWAP1 POP JUMP JUMPDEST PUSH0 PUSH1 0x20 DUP3 ADD SWAP1 POP DUP2 DUP2 SUB PUSH0 DUP4 ADD MSTORE PUSH2 0xFE2 DUP2 PUSH2 0xFA9 JUMP JUMPDEST SWAP1 POP SWAP2 SWAP1 POP JUMP JUMPDEST PUSH32 0x4E487B7100000000000000000000000000000000000000000000000000000000 PUSH0 MSTORE PUSH1 0x22 PUSH1 0x4 MSTORE PUSH1 0x24 PUSH0 REVERT JUMPDEST PUSH0 PUSH1 0x2 DUP3 DIV SWAP1 POP PUSH1 0x1 DUP3 AND DUP1 PUSH2 0x102D JUMPI PUSH1 0x7F DUP3 AND SWAP2 POP JUMPDEST PUSH1 0x20 DUP3 LT DUP2 SUB PUSH2 0x1040 JUMPI PUSH2 0x103F PUSH2 0xFE9 JUMP JUMPDEST JUMPDEST POP SWAP2 SWAP1 POP JUMP JUMPDEST PUSH0 DUP2 SWAP1 POP DUP2 PUSH0 MSTORE PUSH1 0x20 PUSH0 KECCAK256 SWAP1 POP SWAP2 SWAP1 POP JUMP JUMPDEST PUSH0 PUSH1 0x20 PUSH1 0x1F DUP4 ADD DIV SWAP1 POP SWAP2 SWAP1 POP JUMP JUMPDEST PUSH0 DUP3 DUP3 SHL SWAP1 POP SWAP3 SWAP2 POP POP JUMP JUMPDEST PUSH0 PUSH1 0x8 DUP4 MUL PUSH2 0x10A2 PUSH32 0xFFFFFFFFFFFFFFFFFFFFFFFFFFFFFFFFFFFFFFFFFFFFFFFFFFFFFFFFFFFFFFFF DUP3 PUSH2 0x1067 JUMP JUMPDEST PUSH2 0x10AC DUP7 DUP4 PUSH2 0x1067 JUMP JUMPDEST SWAP6 POP DUP1 NOT DUP5 AND SWAP4 POP DUP1 DUP7 AND DUP5 OR SWAP3 POP POP POP SWAP4 SWAP3 POP POP POP JUMP JUMPDEST PUSH0 DUP2 SWAP1 POP SWAP2 SWAP1 POP JUMP JUMPDEST PUSH0 PUSH2 0x10E7 PUSH2 0x10E2 PUSH2 0x10DD DUP5 PUSH2 0xA48 JUMP JUMPDEST PUSH2 0x10C4 JUMP JUMPDEST PUSH2 0xA48 JUMP JUMPDEST SWAP1 POP SWAP2 SWAP1 POP JUMP JUMPDEST PUSH0 DUP2 SWAP1 POP SWAP2 SWAP1 POP JUMP JUMPDEST PUSH2 0x1100 DUP4 PUSH2 0x10CD JUMP JUMPDEST PUSH2 0x1114 PUSH2 0x110C DUP3 PUSH2 0x10EE JUMP JUMPDEST DUP5 DUP5 SLOAD PUSH2 0x1073 JUMP JUMPDEST DUP3 SSTORE POP POP POP POP JUMP JUMPDEST PUSH0 SWAP1 JUMP JUMPDEST PUSH2 0x1128 PUSH2 0x111C JUMP JUMPDEST PUSH2 0x1133 DUP2 DUP5 DUP5 PUSH2 0x10F7 JUMP JUMPDEST POP POP POP JUMP JUMPDEST JUMPDEST DUP2 DUP2 LT ISZERO PUSH2 0x1156 JUMPI PUSH2 0x114B PUSH0 DUP3 PUSH2 0x1120 JUMP JUMPDEST PUSH1 0x1 DUP2 ADD SWAP1 POP PUSH2 0x1139 JUMP JUMPDEST POP POP JUMP JUMPDEST PUSH1 0x1F DUP3 GT ISZERO PUSH2 0x119B JUMPI PUSH2 0x116C DUP2 PUSH2 0x1046 JUMP JUMPDEST PUSH2 0x1175 DUP5 PUSH2 0x1058 JUMP JUMPDEST DUP2 ADD PUSH1 0x20 DUP6 LT ISZERO PUSH2 0x1184 JUMPI DUP2 SWAP1 POP JUMPDEST PUSH2 0x1198 PUSH2 0x1190 DUP6 PUSH2 0x1058 JUMP JUMPDEST DUP4 ADD DUP3 PUSH2 0x1138 JUMP JUMPDEST POP POP JUMPDEST POP POP POP JUMP JUMPDEST PUSH0 DUP3 DUP3 SHR SWAP1 POP SWAP3 SWAP2 POP POP JUMP JUMPDEST PUSH0 PUSH2 0x11BB PUSH0 NOT DUP5 PUSH1 0x8 MUL PUSH2 0x11A0 JUMP JUMPDEST NOT DUP1 DUP4 AND SWAP2 POP POP SWAP3 SWAP2 POP POP JUMP JUMPDEST PUSH0 PUSH2 0x11D3 DUP4 DUP4 PUSH2 0x11AC JUMP JUMPDEST SWAP2 POP DUP3 PUSH1 0x2 MUL DUP3 OR SWAP1 POP SWAP3 SWAP2 POP POP JUMP JUMPDEST PUSH2 0x11EC DUP3 PUSH2 0xCD4 JUMP JUMPDEST PUSH8 0xFFFFFFFFFFFFFFFF DUP2 GT ISZERO PUSH2 0x1205 JUMPI PUSH2 0x1204 PUSH2 0xABE JUMP JUMPDEST JUMPDEST PUSH2 0x120F DUP3 SLOAD PUSH2 0x1016 JUMP JUMPDEST PUSH2 0x121A DUP3 DUP3 DUP6 PUSH2 0x115A JUMP JUMPDEST PUSH0 PUSH1 0x20 SWAP1 POP PUSH1 0x1F DUP4 GT PUSH1 0x1 DUP2 EQ PUSH2 0x124B JUMPI PUSH0 DUP5 ISZERO PUSH2 0x1239 JUMPI DUP3 DUP8 ADD MLOAD SWAP1 POP JUMPDEST PUSH2 0x1243 DUP6 DUP3 PUSH2 0x11C8 JUMP JUMPDEST DUP7 SSTORE POP PUSH2 0x12AA JUMP JUMPDEST PUSH1 0x1F NOT DUP5 AND PUSH2 0x1259 DUP7 PUSH2 0x1046 JUMP JUMPDEST PUSH0 JUMPDEST DUP3 DUP2 LT ISZERO PUSH2 0x1280 JUMPI DUP5 DUP10 ADD MLOAD DUP3 SSTORE PUSH1 0x1 DUP3 ADD SWAP2 POP PUSH1 0x20 DUP6 ADD SWAP5 POP PUSH1 0x20 DUP2 ADD SWAP1 POP PUSH2 0x125B JUMP JUMPDEST DUP7 DUP4 LT ISZERO PUSH2 0x129D JUMPI DUP5 DUP10 ADD MLOAD PUSH2 0x1299 PUSH1 0x1F DUP10 AND DUP3 PUSH2 0x11AC JUMP JUMPDEST DUP4 SSTORE POP JUMPDEST PUSH1 0x1 PUSH1 0x2 DUP9 MUL ADD DUP9 SSTORE POP POP POP JUMPDEST POP POP POP POP POP POP JUMP JUMPDEST PUSH0 PUSH1 0x80 DUP3 ADD SWAP1 POP PUSH2 0x12C5 PUSH0 DUP4 ADD DUP8 PUSH2 0xC86 JUMP JUMPDEST PUSH2 0x12D2 PUSH1 0x20 DUP4 ADD DUP7 PUSH2 0xCC5 JUMP JUMPDEST DUP2 DUP2 SUB PUSH1 0x40 DUP4 ADD MSTORE PUSH2 0x12E4 DUP2 DUP6 PUSH2 0xCFC JUMP JUMPDEST SWAP1 POP DUP2 DUP2 SUB PUSH1 0x60 DUP4 ADD MSTORE PUSH2 0x12F8 DUP2 DUP5 PUSH2 0xCFC JUMP JUMPDEST SWAP1 POP SWAP6 SWAP5 POP POP POP POP POP JUMP JUMPDEST PUSH32 0x496E73756666696369656E74207061796D656E74000000000000000000000000 PUSH0 DUP3 ADD MSTORE POP JUMP JUMPDEST PUSH0 PUSH2 0x1337 PUSH1 0x14 DUP4 PUSH2 0xCDE JUMP JUMPDEST SWAP2 POP PUSH2 0x1342 DUP3 PUSH2 0x1303 JUMP JUMPDEST PUSH1 0x20 DUP3 ADD SWAP1 POP SWAP2 SWAP1 POP JUMP JUMPDEST PUSH0 PUSH1 0x20 DUP3 ADD SWAP1 POP DUP2 DUP2 SUB PUSH0 DUP4 ADD MSTORE PUSH2 0x1364 DUP2 PUSH2 0x132B JUMP JUMPDEST SWAP1 POP SWAP2 SWAP1 POP JUMP JUMPDEST PUSH32 0x537562736372697074696F6E207374696C6C2061637469766500000000000000 PUSH0 DUP3 ADD MSTORE POP JUMP JUMPDEST PUSH0 PUSH2 0x139F PUSH1 0x19 DUP4 PUSH2 0xCDE JUMP JUMPDEST SWAP2 POP PUSH2 0x13AA DUP3 PUSH2 0x136B JUMP JUMPDEST PUSH1 0x20 DUP3 ADD SWAP1 POP SWAP2 SWAP1 POP JUMP JUMPDEST PUSH0 PUSH1 0x20 DUP3 ADD SWAP1 POP DUP2 DUP2 SUB PUSH0 DUP4 ADD MSTORE PUSH2 0x13CC DUP2 PUSH2 0x1393 JUMP JUMPDEST SWAP1 POP SWAP2 SWAP1 POP JUMP JUMPDEST PUSH0 PUSH2 0x13DD DUP3 PUSH2 0xA48 JUMP JUMPDEST SWAP2 POP PUSH2 0x13E8 DUP4 PUSH2 0xA48 JUMP JUMPDEST SWAP3 POP DUP3 DUP3 ADD SWAP1 POP DUP1 DUP3 GT ISZERO PUSH2 0x1400 JUMPI PUSH2 0x13FF PUSH2 0xE7E JUMP JUMPDEST JUMPDEST SWAP3 SWAP2 POP POP JUMP JUMPDEST PUSH0 PUSH1 0x40 DUP3 ADD SWAP1 POP PUSH2 0x1419 PUSH0 DUP4 ADD DUP6 PUSH2 0xCC5 JUMP JUMPDEST PUSH2 0x1426 PUSH1 0x20 DUP4 ADD DUP5 PUSH2 0xC86 JUMP JUMPDEST SWAP4 SWAP3 POP POP POP JUMP JUMPDEST PUSH0 PUSH2 0x1437 DUP3 PUSH2 0xA48 JUMP JUMPDEST SWAP2 POP PUSH2 0x1442 DUP4 PUSH2 0xA48 JUMP JUMPDEST SWAP3 POP DUP3 DUP3 MUL PUSH2 0x1450 DUP2 PUSH2 0xA48 JUMP JUMPDEST SWAP2 POP DUP3 DUP3 DIV DUP5 EQ DUP4 ISZERO OR PUSH2 0x1467 JUMPI PUSH2 0x1466 PUSH2 0xE7E JUMP JUMPDEST JUMPDEST POP SWAP3 SWAP2 POP POP JUMP JUMPDEST PUSH32 0x4E487B7100000000000000000000000000000000000000000000000000000000 PUSH0 MSTORE PUSH1 0x12 PUSH1 0x4 MSTORE PUSH1 0x24 PUSH0 REVERT JUMPDEST PUSH0 PUSH2 0x14A5 DUP3 PUSH2 0xA48 JUMP JUMPDEST SWAP2 POP PUSH2 0x14B0 DUP4 PUSH2 0xA48 JUMP JUMPDEST SWAP3 POP DUP3 PUSH2 0x14C0 JUMPI PUSH2 0x14BF PUSH2 0x146E JUMP JUMPDEST JUMPDEST DUP3 DUP3 DIV SWAP1 POP SWAP3 SWAP2 POP POP JUMP JUMPDEST PUSH32 0x4E6F206561726E696E677320746F207769746864726177000000000000000000 PUSH0 DUP3 ADD MSTORE POP JUMP JUMPDEST PUSH0 PUSH2 0x14FF PUSH1 0x17 DUP4 PUSH2 0xCDE JUMP JUMPDEST SWAP2 POP PUSH2 0x150A DUP3 PUSH2 0x14CB JUMP JUMPDEST PUSH1 0x20 DUP3 ADD SWAP1 POP SWAP2 SWAP1 POP JUMP JUMPDEST PUSH0 PUSH1 0x20 DUP3 ADD SWAP1 POP DUP2 DUP2 SUB PUSH0 DUP4 ADD MSTORE PUSH2 0x152C DUP2 PUSH2 0x14F3 JUMP JUMPDEST SWAP1 POP SWAP2 SWAP1 POP JUMP INVALID LOG2 PUSH5 0x6970667358 0x22 SLT KECCAK256 0x4F 0x2C 0x28 0x21 DUP15 DUP2 EQ DIV 0xB7 0xCB 0xBF PUSH1 0xD0 PUSH23 0x13DEA371D1BA0F1F96D976DA84F4B74B3AF564736F6C63 NUMBER STOP ADDMOD BYTE STOP CALLER "
				},
				"gasEstimates": {
					"creation": {
						"codeDepositCost": "1096200",
						"executionCost": "23244",
						"totalCost": "1119444"
					},
					"external": {
						"artistEarnings(address)": "2869",
						"songCount()": "2424",
						"songs(uint256)": "infinite",
						"streamSong(uint256)": "infinite",
						"subscribe()": "infinite",
						"subscriptionPrice()": "2469",
						"totalRevenue()": "2491",
						"totalStreams()": "2535",
						"uploadSong(string,string,string)": "infinite",
						"userSubscriptions(address)": "2890",
						"withdrawEarnings()": "infinite"
					}
				},
				"methodIdentifiers": {
					"artistEarnings(address)": "8a15359d",
					"songCount()": "931a889b",
					"songs(uint256)": "304cff30",
					"streamSong(uint256)": "05b40e19",
					"subscribe()": "8f449a05",
					"subscriptionPrice()": "bdc8e54c",
					"totalRevenue()": "bf2d9e0b",
					"totalStreams()": "fc6ff96f",
					"uploadSong(string,string,string)": "231f9f5e",
					"userSubscriptions(address)": "cf14b9e4",
					"withdrawEarnings()": "b73c6ce9"
				}
			},
			"storageLayout": {
				"storage": [
					{
						"astId": 16,
						"contract": "contracts/7_streaming.sol:MusicStreaming",
						"label": "songCount",
						"offset": 0,
						"slot": "0",
						"type": "t_uint256"
					},
					{
						"astId": 21,
						"contract": "contracts/7_streaming.sol:MusicStreaming",
						"label": "songs",
						"offset": 0,
						"slot": "1",
						"type": "t_mapping(t_uint256,t_struct(Song)14_storage)"
					},
					{
						"astId": 25,
						"contract": "contracts/7_streaming.sol:MusicStreaming",
						"label": "artistEarnings",
						"offset": 0,
						"slot": "2",
						"type": "t_mapping(t_address,t_uint256)"
					},
					{
						"astId": 29,
						"contract": "contracts/7_streaming.sol:MusicStreaming",
						"label": "userSubscriptions",
						"offset": 0,
						"slot": "3",
						"type": "t_mapping(t_address,t_uint256)"
					},
					{
						"astId": 32,
						"contract": "contracts/7_streaming.sol:MusicStreaming",
						"label": "subscriptionPrice",
						"offset": 0,
						"slot": "4",
						"type": "t_uint256"
					},
					{
						"astId": 34,
						"contract": "contracts/7_streaming.sol:MusicStreaming",
						"label": "totalRevenue",
						"offset": 0,
						"slot": "5",
						"type": "t_uint256"
					},
					{
						"astId": 36,
						"contract": "contracts/7_streaming.sol:MusicStreaming",
						"label": "totalStreams",
						"offset": 0,
						"slot": "6",
						"type": "t_uint256"
					}
				],
				"types": {
					"t_address": {
						"encoding": "inplace",
						"label": "address",
						"numberOfBytes": "20"
					},
					"t_mapping(t_address,t_uint256)": {
						"encoding": "mapping",
						"key": "t_address",
						"label": "mapping(address => uint256)",
						"numberOfBytes": "32",
						"value": "t_uint256"
					},
					"t_mapping(t_uint256,t_struct(Song)14_storage)": {
						"encoding": "mapping",
						"key": "t_uint256",
						"label": "mapping(uint256 => struct MusicStreaming.Song)",
						"numberOfBytes": "32",
						"value": "t_struct(Song)14_storage"
					},
					"t_string_storage": {
						"encoding": "bytes",
						"label": "string",
						"numberOfBytes": "32"
					},
					"t_struct(Song)14_storage": {
						"encoding": "inplace",
						"label": "struct MusicStreaming.Song",
						"members": [
							{
								"astId": 3,
								"contract": "contracts/7_streaming.sol:MusicStreaming",
								"label": "id",
								"offset": 0,
								"slot": "0",
								"type": "t_uint256"
							},
							{
								"astId": 5,
								"contract": "contracts/7_streaming.sol:MusicStreaming",
								"label": "artist",
								"offset": 0,
								"slot": "1",
								"type": "t_address"
							},
							{
								"astId": 7,
								"contract": "contracts/7_streaming.sol:MusicStreaming",
								"label": "title",
								"offset": 0,
								"slot": "2",
								"type": "t_string_storage"
							},
							{
								"astId": 9,
								"contract": "contracts/7_streaming.sol:MusicStreaming",
								"label": "artistName",
								"offset": 0,
								"slot": "3",
								"type": "t_string_storage"
							},
							{
								"astId": 11,
								"contract": "contracts/7_streaming.sol:MusicStreaming",
								"label": "ipfsHash",
								"offset": 0,
								"slot": "4",
								"type": "t_string_storage"
							},
							{
								"astId": 13,
								"contract": "contracts/7_streaming.sol:MusicStreaming",
								"label": "streamCount",
								"offset": 0,
								"slot": "5",
								"type": "t_uint256"
							}
						],
						"numberOfBytes": "192"
					},
					"t_uint256": {
						"encoding": "inplace",
						"label": "uint256",
						"numberOfBytes": "32"
					}
				}
			},
			"userdoc": {
				"kind": "user",
				"methods": {},
				"version": 1
			}
		}
	}
}