{
	"contracts/counter.sol": {
		"Counter": {
			"abi": [
				{
					"anonymous": false,
					"inputs": [
						{
							"indexed": true,
							"internalType": "address",
							"name": "sender",
							"type": "address"
						},
						{
							"indexed": false,
							"internalType": "uint256",
							"name": "newCount",
							"type": "uint256"
						},
						{
							"indexed": false,
							"internalType": "string",
							"name": "message",
							"type": "string"
						}
					],
					"name": "Incremented",
					"type": "event"
				},
				{
					"inputs": [],
					"name": "count",
					"outputs": [
						{
							"internalType": "uint256",
							"name": "",
							"type": "uint256"
						}
					],
					"stateMutability": "view",
					"type": "function"
				},
				{
					"inputs": [
						{
							"internalType": "uint256",
							"name": "_value",
							"type": "uint256"
						}
					],
					"name": "decrease_by_value",
					"outputs": [],
					"stateMutability": "nonpayable",
					"type": "function"
				},
				{
					"inputs": [],
					"name": "decrement",
					"outputs": [],
					"stateMutability": "nonpayable",
					"type": "function"
				},
				{
					"inputs": [],
					"name": "getCount",
					"outputs": [
						{
							"internalType": "uint256",
							"name": "",
							"type": "uint256"
						}
					],
					"stateMutability": "view",
					"type": "function"
				},
				{
					"inputs": [
						{
							"internalType": "uint256",
							"name": "_value",
							"type": "uint256"
						}
					],
					"name": "increase_by_value",
					"outputs": [],
					"stateMutability": "nonpayable",
					"type": "function"
				},
				{
					"inputs": [],
					"name": "increment",
					"outputs": [],
					"stateMutability": "nonpayable",
					"type": "function"
				},
				{
					"inputs": [
						{
							"internalType": "uint256",
							"name": "count_",
							"type": "uint256"
						}
					],
					"name": "setCounter",
					"outputs": [],
					"stateMutability": "nonpayable",
					"type": "function"
				},
				{
					"inputs": [],
					"name": "uncheckedValue",
					"outputs": [
						{
							"internalType": "uint256",
							"name": "",
							"type": "uint256"
						}
					],
					"stateMutability": "pure",
					"type": "function"
				}
			],
			"devdoc": {
				"kind": "dev",
				"methods": {},
				"version": 1
			},
			"evm": {
				"assembly": "    /* \"contracts/counter.sol\":57:1355  contract Counter {... */\n  mstore(0x40, 0x80)\n  callvalue\n  dup1\n  iszero\n  tag_1\n  jumpi\n  0x00\n  dup1\n  revert\ntag_1:\n  pop\n  dataSize(sub_0)\n  dup1\n  dataOffset(sub_0)\n  0x00\n  codecopy\n  0x00\n  return\nstop\n\nsub_0: assembly {\n        /* \"contracts/counter.sol\":57:1355  contract Counter {... */\n      mstore(0x40, 0x80)\n      callvalue\n      dup1\n      iszero\n      tag_1\n      jumpi\n      0x00\n      dup1\n      revert\n    tag_1:\n      pop\n      jumpi(tag_2, lt(calldatasize, 0x04))\n      shr(0xe0, calldataload(0x00))\n      dup1\n      0x52c83b41\n      gt\n      tag_11\n      jumpi\n      dup1\n      0x52c83b41\n      eq\n      tag_7\n      jumpi\n      dup1\n      0x8bb5d9c3\n      eq\n      tag_8\n      jumpi\n      dup1\n      0xa87d942c\n      eq\n      tag_9\n      jumpi\n      dup1\n      0xd09de08a\n      eq\n      tag_10\n      jumpi\n      jump(tag_2)\n    tag_11:\n      dup1\n      0x06661abd\n      eq\n      tag_3\n      jumpi\n      dup1\n      0x1750cbd8\n      eq\n      tag_4\n      jumpi\n      dup1\n      0x2baeceb7\n      eq\n      tag_5\n      jumpi\n      dup1\n      0x46536448\n      eq\n      tag_6\n      jumpi\n    tag_2:\n      0x00\n      dup1\n      revert\n        /* \"contracts/counter.sol\":102:122  uint256 public count */\n    tag_3:\n      tag_12\n      tag_13\n      jump\t// in\n    tag_12:\n      mload(0x40)\n      tag_14\n      swap2\n      swap1\n      tag_15\n      jump\t// in\n    tag_14:\n      mload(0x40)\n      dup1\n      swap2\n      sub\n      swap1\n      return\n        /* \"contracts/counter.sol\":1225:1353  function uncheckedValue() public pure returns (uint256) {... */\n    tag_4:\n      tag_16\n      tag_17\n      jump\t// in\n    tag_16:\n      mload(0x40)\n      tag_18\n      swap2\n      swap1\n      tag_15\n      jump\t// in\n    tag_18:\n      mload(0x40)\n      dup1\n      swap2\n      sub\n      swap1\n      return\n        /* \"contracts/counter.sol\":615:696  function decrement() public {... */\n    tag_5:\n      tag_19\n      tag_20\n      jump\t// in\n    tag_19:\n      stop\n        /* \"contracts/counter.sol\":702:1087  function increase_by_value(uint256 _value) public  {... */\n    tag_6:\n      tag_21\n      0x04\n      dup1\n      calldatasize\n      sub\n      dup2\n      add\n      swap1\n      tag_22\n      swap2\n      swap1\n      tag_23\n      jump\t// in\n    tag_22:\n      tag_24\n      jump\t// in\n    tag_21:\n      stop\n        /* \"contracts/counter.sol\":1093:1219  function decrease_by_value(uint256 _value) public {... */\n    tag_7:\n      tag_25\n      0x04\n      dup1\n      calldatasize\n      sub\n      dup2\n      add\n      swap1\n      tag_26\n      swap2\n      swap1\n      tag_23\n      jump\t// in\n    tag_26:\n      tag_27\n      jump\t// in\n    tag_25:\n      stop\n        /* \"contracts/counter.sol\":309:383  function setCounter(uint256 count_) public {... */\n    tag_8:\n      tag_28\n      0x04\n      dup1\n      calldatasize\n      sub\n      dup2\n      add\n      swap1\n      tag_29\n      swap2\n      swap1\n      tag_23\n      jump\t// in\n    tag_29:\n      tag_30\n      jump\t// in\n    tag_28:\n      stop\n        /* \"contracts/counter.sol\":224:303  function getCount() public view returns (uint256) {... */\n    tag_9:\n      tag_31\n      tag_32\n      jump\t// in\n    tag_31:\n      mload(0x40)\n      tag_33\n      swap2\n      swap1\n      tag_15\n      jump\t// in\n    tag_33:\n      mload(0x40)\n      dup1\n      swap2\n      sub\n      swap1\n      return\n        /* \"contracts/counter.sol\":389:609  function increment() public {... */\n    tag_10:\n      tag_34\n      tag_35\n      jump\t// in\n    tag_34:\n      stop\n        /* \"contracts/counter.sol\":102:122  uint256 public count */\n    tag_13:\n      sload(0x00)\n      dup2\n      jump\t// out\n        /* \"contracts/counter.sol\":1225:1353  function uncheckedValue() public pure returns (uint256) {... */\n    tag_17:\n        /* \"contracts/counter.sol\":1272:1279  uint256 */\n      0x00\n        /* \"contracts/counter.sol\":1335:1336  1 */\n      0x01\n        /* \"contracts/counter.sol\":1330:1331  0 */\n      0x00\n        /* \"contracts/counter.sol\":1322:1336  uint256(0) - 1 */\n      sub\n        /* \"contracts/counter.sol\":1315:1336  return uint256(0) - 1 */\n      swap1\n      pop\n        /* \"contracts/counter.sol\":1225:1353  function uncheckedValue() public pure returns (uint256) {... */\n      swap1\n      jump\t// out\n        /* \"contracts/counter.sol\":615:696  function decrement() public {... */\n    tag_20:\n        /* \"contracts/counter.sol\":670:671  0 */\n      0x00\n        /* \"contracts/counter.sol\":661:666  count */\n      dup1\n      sload\n        /* \"contracts/counter.sol\":661:671  count != 0 */\n      sub\n        /* \"contracts/counter.sol\":653:672  require(count != 0) */\n      tag_38\n      jumpi\n      0x00\n      dup1\n      revert\n    tag_38:\n        /* \"contracts/counter.sol\":682:687  count */\n      0x00\n      dup1\n        /* \"contracts/counter.sol\":682:689  count-- */\n      dup2\n      sload\n      dup1\n      swap3\n      swap2\n      swap1\n      tag_39\n      swap1\n      tag_40\n      jump\t// in\n    tag_39:\n      swap2\n      swap1\n      pop\n      sstore\n      pop\n        /* \"contracts/counter.sol\":615:696  function decrement() public {... */\n      jump\t// out\n        /* \"contracts/counter.sol\":702:1087  function increase_by_value(uint256 _value) public  {... */\n    tag_24:\n        /* \"contracts/counter.sol\":787:803  uint256 maxValue */\n      0x00\n        /* \"contracts/counter.sol\":806:822  uncheckedValue() */\n      tag_42\n        /* \"contracts/counter.sol\":806:820  uncheckedValue */\n      tag_17\n        /* \"contracts/counter.sol\":806:822  uncheckedValue() */\n      jump\t// in\n    tag_42:\n        /* \"contracts/counter.sol\":787:822  uint256 maxValue = uncheckedValue() */\n      swap1\n      pop\n        /* \"contracts/counter.sol\":837:853  uint256 newCount */\n      0x00\n        /* \"contracts/counter.sol\":865:871  _value */\n      dup3\n        /* \"contracts/counter.sol\":856:861  count */\n      0x00\n      dup1\n        /* \"contracts/counter.sol\":856:871  count += _value */\n      dup3\n      dup3\n      sload\n      add\n      swap3\n      pop\n      pop\n      dup2\n      swap1\n      sstore\n        /* \"contracts/counter.sol\":837:871  uint256 newCount = count += _value */\n      swap1\n      pop\n        /* \"contracts/counter.sol\":900:908  maxValue */\n      dup2\n        /* \"contracts/counter.sol\":889:897  newCount */\n      dup2\n        /* \"contracts/counter.sol\":889:908  newCount > maxValue */\n      gt\n        /* \"contracts/counter.sol\":885:983  if (newCount > maxValue) {... */\n      iszero\n      tag_43\n      jumpi\n        /* \"contracts/counter.sol\":928:968  revert(\"Value is greater than maxValue\") */\n      mload(0x40)\n      0x08c379a000000000000000000000000000000000000000000000000000000000\n      dup2\n      mstore\n      0x04\n      add\n      tag_44\n      swap1\n      tag_45\n      jump\t// in\n    tag_44:\n      mload(0x40)\n      dup1\n      swap2\n      sub\n      swap1\n      revert\n        /* \"contracts/counter.sol\":885:983  if (newCount > maxValue) {... */\n    tag_43:\n        /* \"contracts/counter.sol\":1012:1020  maxValue */\n      dup2\n        /* \"contracts/counter.sol\":1001:1009  newCount */\n      dup2\n        /* \"contracts/counter.sol\":1001:1020  newCount < maxValue */\n      lt\n        /* \"contracts/counter.sol\":997:1071  if (newCount < maxValue) {... */\n      iszero\n      tag_46\n      jumpi\n        /* \"contracts/counter.sol\":1048:1056  newCount */\n      dup1\n        /* \"contracts/counter.sol\":1040:1045  count */\n      0x00\n        /* \"contracts/counter.sol\":1040:1056  count = newCount */\n      dup2\n      swap1\n      sstore\n      pop\n        /* \"contracts/counter.sol\":997:1071  if (newCount < maxValue) {... */\n    tag_46:\n        /* \"contracts/counter.sol\":763:1081  unchecked {... */\n      pop\n      pop\n        /* \"contracts/counter.sol\":702:1087  function increase_by_value(uint256 _value) public  {... */\n      pop\n      jump\t// out\n        /* \"contracts/counter.sol\":1093:1219  function decrease_by_value(uint256 _value) public {... */\n    tag_27:\n        /* \"contracts/counter.sol\":1165:1171  _value */\n      dup1\n        /* \"contracts/counter.sol\":1157:1162  count */\n      sload(0x00)\n        /* \"contracts/counter.sol\":1157:1171  count > _value */\n      gt\n        /* \"contracts/counter.sol\":1153:1213  if (count > _value) {... */\n      iszero\n      tag_48\n      jumpi\n        /* \"contracts/counter.sol\":1196:1202  _value */\n      dup1\n        /* \"contracts/counter.sol\":1187:1192  count */\n      0x00\n      dup1\n        /* \"contracts/counter.sol\":1187:1202  count += _value */\n      dup3\n      dup3\n      sload\n      tag_49\n      swap2\n      swap1\n      tag_50\n      jump\t// in\n    tag_49:\n      swap3\n      pop\n      pop\n      dup2\n      swap1\n      sstore\n      pop\n        /* \"contracts/counter.sol\":1153:1213  if (count > _value) {... */\n    tag_48:\n        /* \"contracts/counter.sol\":1093:1219  function decrease_by_value(uint256 _value) public {... */\n      pop\n      jump\t// out\n        /* \"contracts/counter.sol\":309:383  function setCounter(uint256 count_) public {... */\n    tag_30:\n        /* \"contracts/counter.sol\":370:376  count_ */\n      dup1\n        /* \"contracts/counter.sol\":362:367  count */\n      0x00\n        /* \"contracts/counter.sol\":362:376  count = count_ */\n      dup2\n      swap1\n      sstore\n      pop\n        /* \"contracts/counter.sol\":309:383  function setCounter(uint256 count_) public {... */\n      pop\n      jump\t// out\n        /* \"contracts/counter.sol\":224:303  function getCount() public view returns (uint256) {... */\n    tag_32:\n        /* \"contracts/counter.sol\":265:272  uint256 */\n      0x00\n        /* \"contracts/counter.sol\":291:296  count */\n      dup1\n      sload\n        /* \"contracts/counter.sol\":284:296  return count */\n      swap1\n      pop\n        /* \"contracts/counter.sol\":224:303  function getCount() public view returns (uint256) {... */\n      swap1\n      jump\t// out\n        /* \"contracts/counter.sol\":389:609  function increment() public {... */\n    tag_35:\n        /* \"contracts/counter.sol\":427:443  uint256 maxValue */\n      0x00\n        /* \"contracts/counter.sol\":446:462  uncheckedValue() */\n      tag_54\n        /* \"contracts/counter.sol\":446:460  uncheckedValue */\n      tag_17\n        /* \"contracts/counter.sol\":446:462  uncheckedValue() */\n      jump\t// in\n    tag_54:\n        /* \"contracts/counter.sol\":427:462  uint256 maxValue = uncheckedValue() */\n      swap1\n      pop\n        /* \"contracts/counter.sol\":484:492  maxValue */\n      dup1\n        /* \"contracts/counter.sol\":476:481  count */\n      sload(0x00)\n        /* \"contracts/counter.sol\":476:492  count < maxValue */\n      lt\n        /* \"contracts/counter.sol\":472:526  if (count < maxValue) {... */\n      iszero\n      tag_55\n      jumpi\n        /* \"contracts/counter.sol\":508:513  count */\n      0x00\n      dup1\n        /* \"contracts/counter.sol\":508:515  count++ */\n      dup2\n      sload\n      dup1\n      swap3\n      swap2\n      swap1\n      tag_56\n      swap1\n      tag_57\n      jump\t// in\n    tag_56:\n      swap2\n      swap1\n      pop\n      sstore\n      pop\n        /* \"contracts/counter.sol\":472:526  if (count < maxValue) {... */\n    tag_55:\n        /* \"contracts/counter.sol\":553:563  msg.sender */\n      caller\n        /* \"contracts/counter.sol\":541:602  Incremented(msg.sender, count, \"Counter incremented failed!\") */\n      0xffffffffffffffffffffffffffffffffffffffff\n      and\n      0x34e143b2c08d18dcb491c1e83b266921c9dd195d3e878572bd174614f9b500bd\n        /* \"contracts/counter.sol\":565:570  count */\n      sload(0x00)\n        /* \"contracts/counter.sol\":541:602  Incremented(msg.sender, count, \"Counter incremented failed!\") */\n      mload(0x40)\n      tag_58\n      swap2\n      swap1\n      tag_59\n      jump\t// in\n    tag_58:\n      mload(0x40)\n      dup1\n      swap2\n      sub\n      swap1\n      log2\n        /* \"contracts/counter.sol\":417:609  {... */\n      pop\n        /* \"contracts/counter.sol\":389:609  function increment() public {... */\n      jump\t// out\n        /* \"#utility.yul\":7:84   */\n    tag_60:\n        /* \"#utility.yul\":44:51   */\n      0x00\n        /* \"#utility.yul\":73:78   */\n      dup2\n        /* \"#utility.yul\":62:78   */\n      swap1\n      pop\n        /* \"#utility.yul\":7:84   */\n      swap2\n      swap1\n      pop\n      jump\t// out\n        /* \"#utility.yul\":90:208   */\n    tag_61:\n        /* \"#utility.yul\":177:201   */\n      tag_76\n        /* \"#utility.yul\":195:200   */\n      dup2\n        /* \"#utility.yul\":177:201   */\n      tag_60\n      jump\t// in\n    tag_76:\n        /* \"#utility.yul\":172:175   */\n      dup3\n        /* \"#utility.yul\":165:202   */\n      mstore\n        /* \"#utility.yul\":90:208   */\n      pop\n      pop\n      jump\t// out\n        /* \"#utility.yul\":214:436   */\n    tag_15:\n        /* \"#utility.yul\":307:311   */\n      0x00\n        /* \"#utility.yul\":345:347   */\n      0x20\n        /* \"#utility.yul\":334:343   */\n      dup3\n        /* \"#utility.yul\":330:348   */\n      add\n        /* \"#utility.yul\":322:348   */\n      swap1\n      pop\n        /* \"#utility.yul\":358:429   */\n      tag_78\n        /* \"#utility.yul\":426:427   */\n      0x00\n        /* \"#utility.yul\":415:424   */\n      dup4\n        /* \"#utility.yul\":411:428   */\n      add\n        /* \"#utility.yul\":402:408   */\n      dup5\n        /* \"#utility.yul\":358:429   */\n      tag_61\n      jump\t// in\n    tag_78:\n        /* \"#utility.yul\":214:436   */\n      swap3\n      swap2\n      pop\n      pop\n      jump\t// out\n        /* \"#utility.yul\":523:640   */\n    tag_63:\n        /* \"#utility.yul\":632:633   */\n      0x00\n        /* \"#utility.yul\":629:630   */\n      dup1\n        /* \"#utility.yul\":622:634   */\n      revert\n        /* \"#utility.yul\":769:891   */\n    tag_65:\n        /* \"#utility.yul\":842:866   */\n      tag_83\n        /* \"#utility.yul\":860:865   */\n      dup2\n        /* \"#utility.yul\":842:866   */\n      tag_60\n      jump\t// in\n    tag_83:\n        /* \"#utility.yul\":835:840   */\n      dup2\n        /* \"#utility.yul\":832:867   */\n      eq\n        /* \"#utility.yul\":822:885   */\n      tag_84\n      jumpi\n        /* \"#utility.yul\":881:882   */\n      0x00\n        /* \"#utility.yul\":878:879   */\n      dup1\n        /* \"#utility.yul\":871:883   */\n      revert\n        /* \"#utility.yul\":822:885   */\n    tag_84:\n        /* \"#utility.yul\":769:891   */\n      pop\n      jump\t// out\n        /* \"#utility.yul\":897:1036   */\n    tag_66:\n        /* \"#utility.yul\":943:948   */\n      0x00\n        /* \"#utility.yul\":981:987   */\n      dup2\n        /* \"#utility.yul\":968:988   */\n      calldataload\n        /* \"#utility.yul\":959:988   */\n      swap1\n      pop\n        /* \"#utility.yul\":997:1030   */\n      tag_86\n        /* \"#utility.yul\":1024:1029   */\n      dup2\n        /* \"#utility.yul\":997:1030   */\n      tag_65\n      jump\t// in\n    tag_86:\n        /* \"#utility.yul\":897:1036   */\n      swap3\n      swap2\n      pop\n      pop\n      jump\t// out\n        /* \"#utility.yul\":1042:1371   */\n    tag_23:\n        /* \"#utility.yul\":1101:1107   */\n      0x00\n        /* \"#utility.yul\":1150:1152   */\n      0x20\n        /* \"#utility.yul\":1138:1147   */\n      dup3\n        /* \"#utility.yul\":1129:1136   */\n      dup5\n        /* \"#utility.yul\":1125:1148   */\n      sub\n        /* \"#utility.yul\":1121:1153   */\n      slt\n        /* \"#utility.yul\":1118:1237   */\n      iszero\n      tag_88\n      jumpi\n        /* \"#utility.yul\":1156:1235   */\n      tag_89\n      tag_63\n      jump\t// in\n    tag_89:\n        /* \"#utility.yul\":1118:1237   */\n    tag_88:\n        /* \"#utility.yul\":1276:1277   */\n      0x00\n        /* \"#utility.yul\":1301:1354   */\n      tag_90\n        /* \"#utility.yul\":1346:1353   */\n      dup5\n        /* \"#utility.yul\":1337:1343   */\n      dup3\n        /* \"#utility.yul\":1326:1335   */\n      dup6\n        /* \"#utility.yul\":1322:1344   */\n      add\n        /* \"#utility.yul\":1301:1354   */\n      tag_66\n      jump\t// in\n    tag_90:\n        /* \"#utility.yul\":1291:1354   */\n      swap2\n      pop\n        /* \"#utility.yul\":1247:1364   */\n      pop\n        /* \"#utility.yul\":1042:1371   */\n      swap3\n      swap2\n      pop\n      pop\n      jump\t// out\n        /* \"#utility.yul\":1377:1557   */\n    tag_67:\n        /* \"#utility.yul\":1425:1502   */\n      0x4e487b7100000000000000000000000000000000000000000000000000000000\n        /* \"#utility.yul\":1422:1423   */\n      0x00\n        /* \"#utility.yul\":1415:1503   */\n      mstore\n        /* \"#utility.yul\":1522:1526   */\n      0x11\n        /* \"#utility.yul\":1519:1520   */\n      0x04\n        /* \"#utility.yul\":1512:1527   */\n      mstore\n        /* \"#utility.yul\":1546:1550   */\n      0x24\n        /* \"#utility.yul\":1543:1544   */\n      0x00\n        /* \"#utility.yul\":1536:1551   */\n      revert\n        /* \"#utility.yul\":1563:1734   */\n    tag_40:\n        /* \"#utility.yul\":1602:1605   */\n      0x00\n        /* \"#utility.yul\":1625:1649   */\n      tag_93\n        /* \"#utility.yul\":1643:1648   */\n      dup3\n        /* \"#utility.yul\":1625:1649   */\n      tag_60\n      jump\t// in\n    tag_93:\n        /* \"#utility.yul\":1616:1649   */\n      swap2\n      pop\n        /* \"#utility.yul\":1671:1675   */\n      0x00\n        /* \"#utility.yul\":1664:1669   */\n      dup3\n        /* \"#utility.yul\":1661:1676   */\n      sub\n        /* \"#utility.yul\":1658:1699   */\n      tag_94\n      jumpi\n        /* \"#utility.yul\":1679:1697   */\n      tag_95\n      tag_67\n      jump\t// in\n    tag_95:\n        /* \"#utility.yul\":1658:1699   */\n    tag_94:\n        /* \"#utility.yul\":1726:1727   */\n      0x01\n        /* \"#utility.yul\":1719:1724   */\n      dup3\n        /* \"#utility.yul\":1715:1728   */\n      sub\n        /* \"#utility.yul\":1708:1728   */\n      swap1\n      pop\n        /* \"#utility.yul\":1563:1734   */\n      swap2\n      swap1\n      pop\n      jump\t// out\n        /* \"#utility.yul\":1740:1909   */\n    tag_68:\n        /* \"#utility.yul\":1824:1835   */\n      0x00\n        /* \"#utility.yul\":1858:1864   */\n      dup3\n        /* \"#utility.yul\":1853:1856   */\n      dup3\n        /* \"#utility.yul\":1846:1865   */\n      mstore\n        /* \"#utility.yul\":1898:1902   */\n      0x20\n        /* \"#utility.yul\":1893:1896   */\n      dup3\n        /* \"#utility.yul\":1889:1903   */\n      add\n        /* \"#utility.yul\":1874:1903   */\n      swap1\n      pop\n        /* \"#utility.yul\":1740:1909   */\n      swap3\n      swap2\n      pop\n      pop\n      jump\t// out\n        /* \"#utility.yul\":1915:2095   */\n    tag_69:\n        /* \"#utility.yul\":2055:2087   */\n      0x56616c75652069732067726561746572207468616e206d617856616c75650000\n        /* \"#utility.yul\":2051:2052   */\n      0x00\n        /* \"#utility.yul\":2043:2049   */\n      dup3\n        /* \"#utility.yul\":2039:2053   */\n      add\n        /* \"#utility.yul\":2032:2088   */\n      mstore\n        /* \"#utility.yul\":1915:2095   */\n      pop\n      jump\t// out\n        /* \"#utility.yul\":2101:2467   */\n    tag_70:\n        /* \"#utility.yul\":2243:2246   */\n      0x00\n        /* \"#utility.yul\":2264:2331   */\n      tag_99\n        /* \"#utility.yul\":2328:2330   */\n      0x1e\n        /* \"#utility.yul\":2323:2326   */\n      dup4\n        /* \"#utility.yul\":2264:2331   */\n      tag_68\n      jump\t// in\n    tag_99:\n        /* \"#utility.yul\":2257:2331   */\n      swap2\n      pop\n        /* \"#utility.yul\":2340:2433   */\n      tag_100\n        /* \"#utility.yul\":2429:2432   */\n      dup3\n        /* \"#utility.yul\":2340:2433   */\n      tag_69\n      jump\t// in\n    tag_100:\n        /* \"#utility.yul\":2458:2460   */\n      0x20\n        /* \"#utility.yul\":2453:2456   */\n      dup3\n        /* \"#utility.yul\":2449:2461   */\n      add\n        /* \"#utility.yul\":2442:2461   */\n      swap1\n      pop\n        /* \"#utility.yul\":2101:2467   */\n      swap2\n      swap1\n      pop\n      jump\t// out\n        /* \"#utility.yul\":2473:2892   */\n    tag_45:\n        /* \"#utility.yul\":2639:2643   */\n      0x00\n        /* \"#utility.yul\":2677:2679   */\n      0x20\n        /* \"#utility.yul\":2666:2675   */\n      dup3\n        /* \"#utility.yul\":2662:2680   */\n      add\n        /* \"#utility.yul\":2654:2680   */\n      swap1\n      pop\n        /* \"#utility.yul\":2726:2735   */\n      dup2\n        /* \"#utility.yul\":2720:2724   */\n      dup2\n        /* \"#utility.yul\":2716:2736   */\n      sub\n        /* \"#utility.yul\":2712:2713   */\n      0x00\n        /* \"#utility.yul\":2701:2710   */\n      dup4\n        /* \"#utility.yul\":2697:2714   */\n      add\n        /* \"#utility.yul\":2690:2737   */\n      mstore\n        /* \"#utility.yul\":2754:2885   */\n      tag_102\n        /* \"#utility.yul\":2880:2884   */\n      dup2\n        /* \"#utility.yul\":2754:2885   */\n      tag_70\n      jump\t// in\n    tag_102:\n        /* \"#utility.yul\":2746:2885   */\n      swap1\n      pop\n        /* \"#utility.yul\":2473:2892   */\n      swap2\n      swap1\n      pop\n      jump\t// out\n        /* \"#utility.yul\":2898:3089   */\n    tag_50:\n        /* \"#utility.yul\":2938:2941   */\n      0x00\n        /* \"#utility.yul\":2957:2977   */\n      tag_104\n        /* \"#utility.yul\":2975:2976   */\n      dup3\n        /* \"#utility.yul\":2957:2977   */\n      tag_60\n      jump\t// in\n    tag_104:\n        /* \"#utility.yul\":2952:2977   */\n      swap2\n      pop\n        /* \"#utility.yul\":2991:3011   */\n      tag_105\n        /* \"#utility.yul\":3009:3010   */\n      dup4\n        /* \"#utility.yul\":2991:3011   */\n      tag_60\n      jump\t// in\n    tag_105:\n        /* \"#utility.yul\":2986:3011   */\n      swap3\n      pop\n        /* \"#utility.yul\":3034:3035   */\n      dup3\n        /* \"#utility.yul\":3031:3032   */\n      dup3\n        /* \"#utility.yul\":3027:3036   */\n      add\n        /* \"#utility.yul\":3020:3036   */\n      swap1\n      pop\n        /* \"#utility.yul\":3055:3058   */\n      dup1\n        /* \"#utility.yul\":3052:3053   */\n      dup3\n        /* \"#utility.yul\":3049:3059   */\n      gt\n        /* \"#utility.yul\":3046:3082   */\n      iszero\n      tag_106\n      jumpi\n        /* \"#utility.yul\":3062:3080   */\n      tag_107\n      tag_67\n      jump\t// in\n    tag_107:\n        /* \"#utility.yul\":3046:3082   */\n    tag_106:\n        /* \"#utility.yul\":2898:3089   */\n      swap3\n      swap2\n      pop\n      pop\n      jump\t// out\n        /* \"#utility.yul\":3095:3328   */\n    tag_57:\n        /* \"#utility.yul\":3134:3137   */\n      0x00\n        /* \"#utility.yul\":3157:3181   */\n      tag_109\n        /* \"#utility.yul\":3175:3180   */\n      dup3\n        /* \"#utility.yul\":3157:3181   */\n      tag_60\n      jump\t// in\n    tag_109:\n        /* \"#utility.yul\":3148:3181   */\n      swap2\n      pop\n        /* \"#utility.yul\":3203:3269   */\n      0xffffffffffffffffffffffffffffffffffffffffffffffffffffffffffffffff\n        /* \"#utility.yul\":3196:3201   */\n      dup3\n        /* \"#utility.yul\":3193:3270   */\n      sub\n        /* \"#utility.yul\":3190:3293   */\n      tag_110\n      jumpi\n        /* \"#utility.yul\":3273:3291   */\n      tag_111\n      tag_67\n      jump\t// in\n    tag_111:\n        /* \"#utility.yul\":3190:3293   */\n    tag_110:\n        /* \"#utility.yul\":3320:3321   */\n      0x01\n        /* \"#utility.yul\":3313:3318   */\n      dup3\n        /* \"#utility.yul\":3309:3322   */\n      add\n        /* \"#utility.yul\":3302:3322   */\n      swap1\n      pop\n        /* \"#utility.yul\":3095:3328   */\n      swap2\n      swap1\n      pop\n      jump\t// out\n        /* \"#utility.yul\":3334:3511   */\n    tag_71:\n        /* \"#utility.yul\":3474:3503   */\n      0x436f756e74657220696e6372656d656e746564206661696c6564210000000000\n        /* \"#utility.yul\":3470:3471   */\n      0x00\n        /* \"#utility.yul\":3462:3468   */\n      dup3\n        /* \"#utility.yul\":3458:3472   */\n      add\n        /* \"#utility.yul\":3451:3504   */\n      mstore\n        /* \"#utility.yul\":3334:3511   */\n      pop\n      jump\t// out\n        /* \"#utility.yul\":3517:3883   */\n    tag_72:\n        /* \"#utility.yul\":3659:3662   */\n      0x00\n        /* \"#utility.yul\":3680:3747   */\n      tag_114\n        /* \"#utility.yul\":3744:3746   */\n      0x1b\n        /* \"#utility.yul\":3739:3742   */\n      dup4\n        /* \"#utility.yul\":3680:3747   */\n      tag_68\n      jump\t// in\n    tag_114:\n        /* \"#utility.yul\":3673:3747   */\n      swap2\n      pop\n        /* \"#utility.yul\":3756:3849   */\n      tag_115\n        /* \"#utility.yul\":3845:3848   */\n      dup3\n        /* \"#utility.yul\":3756:3849   */\n      tag_71\n      jump\t// in\n    tag_115:\n        /* \"#utility.yul\":3874:3876   */\n      0x20\n        /* \"#utility.yul\":3869:3872   */\n      dup3\n        /* \"#utility.yul\":3865:3877   */\n      add\n        /* \"#utility.yul\":3858:3877   */\n      swap1\n      pop\n        /* \"#utility.yul\":3517:3883   */\n      swap2\n      swap1\n      pop\n      jump\t// out\n        /* \"#utility.yul\":3889:4418   */\n    tag_59:\n        /* \"#utility.yul\":4083:4087   */\n      0x00\n        /* \"#utility.yul\":4121:4123   */\n      0x40\n        /* \"#utility.yul\":4110:4119   */\n      dup3\n        /* \"#utility.yul\":4106:4124   */\n      add\n        /* \"#utility.yul\":4098:4124   */\n      swap1\n      pop\n        /* \"#utility.yul\":4134:4205   */\n      tag_117\n        /* \"#utility.yul\":4202:4203   */\n      0x00\n        /* \"#utility.yul\":4191:4200   */\n      dup4\n        /* \"#utility.yul\":4187:4204   */\n      add\n        /* \"#utility.yul\":4178:4184   */\n      dup5\n        /* \"#utility.yul\":4134:4205   */\n      tag_61\n      jump\t// in\n    tag_117:\n        /* \"#utility.yul\":4252:4261   */\n      dup2\n        /* \"#utility.yul\":4246:4250   */\n      dup2\n        /* \"#utility.yul\":4242:4262   */\n      sub\n        /* \"#utility.yul\":4237:4239   */\n      0x20\n        /* \"#utility.yul\":4226:4235   */\n      dup4\n        /* \"#utility.yul\":4222:4240   */\n      add\n        /* \"#utility.yul\":4215:4263   */\n      mstore\n        /* \"#utility.yul\":4280:4411   */\n      tag_118\n        /* \"#utility.yul\":4406:4410   */\n      dup2\n        /* \"#utility.yul\":4280:4411   */\n      tag_72\n      jump\t// in\n    tag_118:\n        /* \"#utility.yul\":4272:4411   */\n      swap1\n      pop\n        /* \"#utility.yul\":3889:4418   */\n      swap3\n      swap2\n      pop\n      pop\n      jump\t// out\n\n    auxdata: 0xa26469706673582212209136ad3b98d60963a5b150520127102e3d515ece5d21cfe80ea389499f7cd8d864736f6c634300081a0033\n}\n",
				"bytecode": {
					"linkReferences": {},
					"object": "6080604052348015600e575f80fd5b5061051f8061001c5f395ff3fe608060405234801561000f575f80fd5b5060043610610086575f3560e01c806352c83b411161005957806352c83b41146100ec5780638bb5d9c314610108578063a87d942c14610124578063d09de08a1461014257610086565b806306661abd1461008a5780631750cbd8146100a85780632baeceb7146100c657806346536448146100d0575b5f80fd5b61009261014c565b60405161009f91906102bb565b60405180910390f35b6100b0610151565b6040516100bd91906102bb565b60405180910390f35b6100ce61015b565b005b6100ea60048036038101906100e59190610302565b61017f565b005b61010660048036038101906101019190610302565b6101f1565b005b610122600480360381019061011d9190610302565b610215565b005b61012c61021e565b60405161013991906102bb565b60405180910390f35b61014a610226565b005b5f5481565b5f60015f03905090565b5f805403610167575f80fd5b5f808154809291906101789061035a565b9190505550565b5f610188610151565b90505f825f80828254019250508190559050818111156101dd576040517f08c379a00000000000000000000000000000000000000000000000000000000081526004016101d4906103db565b60405180910390fd5b818110156101ec57805f819055505b505050565b805f54111561021257805f8082825461020a91906103f9565b925050819055505b50565b805f8190555050565b5f8054905090565b5f61022f610151565b9050805f541015610251575f8081548092919061024b9061042c565b91905055505b3373ffffffffffffffffffffffffffffffffffffffff167f34e143b2c08d18dcb491c1e83b266921c9dd195d3e878572bd174614f9b500bd5f5460405161029891906104bd565b60405180910390a250565b5f819050919050565b6102b5816102a3565b82525050565b5f6020820190506102ce5f8301846102ac565b92915050565b5f80fd5b6102e1816102a3565b81146102eb575f80fd5b50565b5f813590506102fc816102d8565b92915050565b5f60208284031215610317576103166102d4565b5b5f610324848285016102ee565b91505092915050565b7f4e487b71000000000000000000000000000000000000000000000000000000005f52601160045260245ffd5b5f610364826102a3565b91505f82036103765761037561032d565b5b600182039050919050565b5f82825260208201905092915050565b7f56616c75652069732067726561746572207468616e206d617856616c756500005f82015250565b5f6103c5601e83610381565b91506103d082610391565b602082019050919050565b5f6020820190508181035f8301526103f2816103b9565b9050919050565b5f610403826102a3565b915061040e836102a3565b92508282019050808211156104265761042561032d565b5b92915050565b5f610436826102a3565b91507fffffffffffffffffffffffffffffffffffffffffffffffffffffffffffffffff82036104685761046761032d565b5b600182019050919050565b7f436f756e74657220696e6372656d656e746564206661696c65642100000000005f82015250565b5f6104a7601b83610381565b91506104b282610473565b602082019050919050565b5f6040820190506104d05f8301846102ac565b81810360208301526104e18161049b565b90509291505056fea26469706673582212209136ad3b98d60963a5b150520127102e3d515ece5d21cfe80ea389499f7cd8d864736f6c634300081a0033",
					"opcodes": "PUSH1 0x80 PUSH1 0x40 MSTORE CALLVALUE DUP1 ISZERO PUSH1 0xE JUMPI PUSH0 DUP1 REVERT JUMPDEST POP PUSH2 0x51F DUP1 PUSH2 0x1C PUSH0 CODECOPY PUSH0 RETURN INVALID PUSH1 0x80 PUSH1 0x40 MSTORE CALLVALUE DUP1 ISZERO PUSH2 0xF JUMPI PUSH0 DUP1 REVERT JUMPDEST POP PUSH1 0x4 CALLDATASIZE LT PUSH2 0x86 JUMPI PUSH0 CALLDATALOAD PUSH1 0xE0 SHR DUP1 PUSH4 0x52C83B41 GT PUSH2 0x59 JUMPI DUP1 PUSH4 0x52C83B41 EQ PUSH2 0xEC JUMPI DUP1 PUSH4 0x8BB5D9C3 EQ PUSH2 0x108 JUMPI DUP1 PUSH4 0xA87D942C EQ PUSH2 0x124 JUMPI DUP1 PUSH4 0xD09DE08A EQ PUSH2 0x142 JUMPI PUSH2 0x86 JUMP JUMPDEST DUP1 PUSH4 0x6661ABD EQ PUSH2 0x8A JUMPI DUP1 PUSH4 0x1750CBD8 EQ PUSH2 0xA8 JUMPI DUP1 PUSH4 0x2BAECEB7 EQ PUSH2 0xC6 JUMPI DUP1 PUSH4 0x46536448 EQ PUSH2 0xD0 JUMPI JUMPDEST PUSH0 DUP1 REVERT JUMPDEST PUSH2 0x92 PUSH2 0x14C JUMP JUMPDEST PUSH1 0x40 MLOAD PUSH2 0x9F SWAP2 SWAP1 PUSH2 0x2BB JUMP JUMPDEST PUSH1 0x40 MLOAD DUP1 SWAP2 SUB SWAP1 RETURN JUMPDEST PUSH2 0xB0 PUSH2 0x151 JUMP JUMPDEST PUSH1 0x40 MLOAD PUSH2 0xBD SWAP2 SWAP1 PUSH2 0x2BB JUMP JUMPDEST PUSH1 0x40 MLOAD DUP1 SWAP2 SUB SWAP1 RETURN JUMPDEST PUSH2 0xCE PUSH2 0x15B JUMP JUMPDEST STOP JUMPDEST PUSH2 0xEA PUSH1 0x4 DUP1 CALLDATASIZE SUB DUP2 ADD SWAP1 PUSH2 0xE5 SWAP2 SWAP1 PUSH2 0x302 JUMP JUMPDEST PUSH2 0x17F JUMP JUMPDEST STOP JUMPDEST PUSH2 0x106 PUSH1 0x4 DUP1 CALLDATASIZE SUB DUP2 ADD SWAP1 PUSH2 0x101 SWAP2 SWAP1 PUSH2 0x302 JUMP JUMPDEST PUSH2 0x1F1 JUMP JUMPDEST STOP JUMPDEST PUSH2 0x122 PUSH1 0x4 DUP1 CALLDATASIZE SUB DUP2 ADD SWAP1 PUSH2 0x11D SWAP2 SWAP1 PUSH2 0x302 JUMP JUMPDEST PUSH2 0x215 JUMP JUMPDEST STOP JUMPDEST PUSH2 0x12C PUSH2 0x21E JUMP JUMPDEST PUSH1 0x40 MLOAD PUSH2 0x139 SWAP2 SWAP1 PUSH2 0x2BB JUMP JUMPDEST PUSH1 0x40 MLOAD DUP1 SWAP2 SUB SWAP1 RETURN JUMPDEST PUSH2 0x14A PUSH2 0x226 JUMP JUMPDEST STOP JUMPDEST PUSH0 SLOAD DUP2 JUMP JUMPDEST PUSH0 PUSH1 0x1 PUSH0 SUB SWAP1 POP SWAP1 JUMP JUMPDEST PUSH0 DUP1 SLOAD SUB PUSH2 0x167 JUMPI PUSH0 DUP1 REVERT JUMPDEST PUSH0 DUP1 DUP2 SLOAD DUP1 SWAP3 SWAP2 SWAP1 PUSH2 0x178 SWAP1 PUSH2 0x35A JUMP JUMPDEST SWAP2 SWAP1 POP SSTORE POP JUMP JUMPDEST PUSH0 PUSH2 0x188 PUSH2 0x151 JUMP JUMPDEST SWAP1 POP PUSH0 DUP3 PUSH0 DUP1 DUP3 DUP3 SLOAD ADD SWAP3 POP POP DUP2 SWAP1 SSTORE SWAP1 POP DUP2 DUP2 GT ISZERO PUSH2 0x1DD JUMPI PUSH1 0x40 MLOAD PUSH32 0x8C379A000000000000000000000000000000000000000000000000000000000 DUP2 MSTORE PUSH1 0x4 ADD PUSH2 0x1D4 SWAP1 PUSH2 0x3DB JUMP JUMPDEST PUSH1 0x40 MLOAD DUP1 SWAP2 SUB SWAP1 REVERT JUMPDEST DUP2 DUP2 LT ISZERO PUSH2 0x1EC JUMPI DUP1 PUSH0 DUP2 SWAP1 SSTORE POP JUMPDEST POP POP POP JUMP JUMPDEST DUP1 PUSH0 SLOAD GT ISZERO PUSH2 0x212 JUMPI DUP1 PUSH0 DUP1 DUP3 DUP3 SLOAD PUSH2 0x20A SWAP2 SWAP1 PUSH2 0x3F9 JUMP JUMPDEST SWAP3 POP POP DUP2 SWAP1 SSTORE POP JUMPDEST POP JUMP JUMPDEST DUP1 PUSH0 DUP2 SWAP1 SSTORE POP POP JUMP JUMPDEST PUSH0 DUP1 SLOAD SWAP1 POP SWAP1 JUMP JUMPDEST PUSH0 PUSH2 0x22F PUSH2 0x151 JUMP JUMPDEST SWAP1 POP DUP1 PUSH0 SLOAD LT ISZERO PUSH2 0x251 JUMPI PUSH0 DUP1 DUP2 SLOAD DUP1 SWAP3 SWAP2 SWAP1 PUSH2 0x24B SWAP1 PUSH2 0x42C JUMP JUMPDEST SWAP2 SWAP1 POP SSTORE POP JUMPDEST CALLER PUSH20 0xFFFFFFFFFFFFFFFFFFFFFFFFFFFFFFFFFFFFFFFF AND PUSH32 0x34E143B2C08D18DCB491C1E83B266921C9DD195D3E878572BD174614F9B500BD PUSH0 SLOAD PUSH1 0x40 MLOAD PUSH2 0x298 SWAP2 SWAP1 PUSH2 0x4BD JUMP JUMPDEST PUSH1 0x40 MLOAD DUP1 SWAP2 SUB SWAP1 LOG2 POP JUMP JUMPDEST PUSH0 DUP2 SWAP1 POP SWAP2 SWAP1 POP JUMP JUMPDEST PUSH2 0x2B5 DUP2 PUSH2 0x2A3 JUMP JUMPDEST DUP3 MSTORE POP POP JUMP JUMPDEST PUSH0 PUSH1 0x20 DUP3 ADD SWAP1 POP PUSH2 0x2CE PUSH0 DUP4 ADD DUP5 PUSH2 0x2AC JUMP JUMPDEST SWAP3 SWAP2 POP POP JUMP JUMPDEST PUSH0 DUP1 REVERT JUMPDEST PUSH2 0x2E1 DUP2 PUSH2 0x2A3 JUMP JUMPDEST DUP2 EQ PUSH2 0x2EB JUMPI PUSH0 DUP1 REVERT JUMPDEST POP JUMP JUMPDEST PUSH0 DUP2 CALLDATALOAD SWAP1 POP PUSH2 0x2FC DUP2 PUSH2 0x2D8 JUMP JUMPDEST SWAP3 SWAP2 POP POP JUMP JUMPDEST PUSH0 PUSH1 0x20 DUP3 DUP5 SUB SLT ISZERO PUSH2 0x317 JUMPI PUSH2 0x316 PUSH2 0x2D4 JUMP JUMPDEST JUMPDEST PUSH0 PUSH2 0x324 DUP5 DUP3 DUP6 ADD PUSH2 0x2EE JUMP JUMPDEST SWAP2 POP POP SWAP3 SWAP2 POP POP JUMP JUMPDEST PUSH32 0x4E487B7100000000000000000000000000000000000000000000000000000000 PUSH0 MSTORE PUSH1 0x11 PUSH1 0x4 MSTORE PUSH1 0x24 PUSH0 REVERT JUMPDEST PUSH0 PUSH2 0x364 DUP3 PUSH2 0x2A3 JUMP JUMPDEST SWAP2 POP PUSH0 DUP3 SUB PUSH2 0x376 JUMPI PUSH2 0x375 PUSH2 0x32D JUMP JUMPDEST JUMPDEST PUSH1 0x1 DUP3 SUB SWAP1 POP SWAP2 SWAP1 POP JUMP JUMPDEST PUSH0 DUP3 DUP3 MSTORE PUSH1 0x20 DUP3 ADD SWAP1 POP SWAP3 SWAP2 POP POP JUMP JUMPDEST PUSH32 0x56616C75652069732067726561746572207468616E206D617856616C75650000 PUSH0 DUP3 ADD MSTORE POP JUMP JUMPDEST PUSH0 PUSH2 0x3C5 PUSH1 0x1E DUP4 PUSH2 0x381 JUMP JUMPDEST SWAP2 POP PUSH2 0x3D0 DUP3 PUSH2 0x391 JUMP JUMPDEST PUSH1 0x20 DUP3 ADD SWAP1 POP SWAP2 SWAP1 POP JUMP JUMPDEST PUSH0 PUSH1 0x20 DUP3 ADD SWAP1 POP DUP2 DUP2 SUB PUSH0 DUP4 ADD MSTORE PUSH2 0x3F2 DUP2 PUSH2 0x3B9 JUMP JUMPDEST SWAP1 POP SWAP2 SWAP1 POP JUMP JUMPDEST PUSH0 PUSH2 0x403 DUP3 PUSH2 0x2A3 JUMP JUMPDEST SWAP2 POP PUSH2 0x40E DUP4 PUSH2 0x2A3 JUMP JUMPDEST SWAP3 POP DUP3 DUP3 ADD SWAP1 POP DUP1 DUP3 GT ISZERO PUSH2 0x426 JUMPI PUSH2 0x425 PUSH2 0x32D JUMP JUMPDEST JUMPDEST SWAP3 SWAP2 POP POP JUMP JUMPDEST PUSH0 PUSH2 0x436 DUP3 PUSH2 0x2A3 JUMP JUMPDEST SWAP2 POP PUSH32 0xFFFFFFFFFFFFFFFFFFFFFFFFFFFFFFFFFFFFFFFFFFFFFFFFFFFFFFFFFFFFFFFF DUP3 SUB PUSH2 0x468 JUMPI PUSH2 0x467 PUSH2 0x32D JUMP JUMPDEST JUMPDEST PUSH1 0x1 DUP3 ADD SWAP1 POP SWAP2 SWAP1 POP JUMP JUMPDEST PUSH32 0x436F756E74657220696E6372656D656E746564206661696C6564210000000000 PUSH0 DUP3 ADD MSTORE POP JUMP JUMPDEST PUSH0 PUSH2 0x4A7 PUSH1 0x1B DUP4 PUSH2 0x381 JUMP JUMPDEST SWAP2 POP PUSH2 0x4B2 DUP3 PUSH2 0x473 JUMP JUMPDEST PUSH1 0x20 DUP3 ADD SWAP1 POP SWAP2 SWAP1 POP JUMP JUMPDEST PUSH0 PUSH1 0x40 DUP3 ADD SWAP1 POP PUSH2 0x4D0 PUSH0 DUP4 ADD DUP5 PUSH2 0x2AC JUMP JUMPDEST DUP2 DUP2 SUB PUSH1 0x20 DUP4 ADD MSTORE PUSH2 0x4E1 DUP2 PUSH2 0x49B JUMP JUMPDEST SWAP1 POP SWAP3 SWAP2 POP POP JUMP INVALID LOG2 PUSH5 0x6970667358 0x22 SLT KECCAK256 SWAP2 CALLDATASIZE 0xAD EXTCODESIZE SWAP9 0xD6 MULMOD PUSH4 0xA5B15052 ADD 0x27 LT 0x2E RETURNDATASIZE MLOAD MCOPY 0xCE TSTORE 0x21 0xCF 0xE8 0xE LOG3 DUP10 BLOBHASH SWAP16 PUSH29 0xD8D864736F6C634300081A003300000000000000000000000000000000 "
				},
				"gasEstimates": {
					"creation": {
						"codeDepositCost": "262200",
						"executionCost": "298",
						"totalCost": "262498"
					},
					"external": {
						"count()": "2425",
						"decrease_by_value(uint256)": "infinite",
						"decrement()": "26663",
						"getCount()": "2476",
						"increase_by_value(uint256)": "46923",
						"increment()": "infinite",
						"setCounter(uint256)": "22536",
						"uncheckedValue()": "360"
					}
				},
				"methodIdentifiers": {
					"count()": "06661abd",
					"decrease_by_value(uint256)": "52c83b41",
					"decrement()": "2baeceb7",
					"getCount()": "a87d942c",
					"increase_by_value(uint256)": "46536448",
					"increment()": "d09de08a",
					"setCounter(uint256)": "8bb5d9c3",
					"uncheckedValue()": "1750cbd8"
				}
			},
			"storageLayout": {
				"storage": [
					{
						"astId": 3,
						"contract": "contracts/counter.sol:Counter",
						"label": "count",
						"offset": 0,
						"slot": "0",
						"type": "t_uint256"
					}
				],
				"types": {
					"t_uint256": {
						"encoding": "inplace",
						"label": "uint256",
						"numberOfBytes": "32"
					}
				}
			},
			"userdoc": {
				"kind": "user",
				"methods": {},
				"version": 1
			}
		}
	}
}